:1000000000C100001BC1000019C1000017C10000A1
:1000100015C1000013C1000011C100000FC1000094
:100020000DC100000BC1000009C1000007C10000A4
:1000300005C1000003C1000001C10000FFC00000B5
:10004000FDC00000FBC00000F9C00000F7C00000C8
:10005000F5C00000F3C00000F1C00000EFC00000D8
:10006000EDC000000C94D2100C941211E7C00000F7
:10007000E5C00000E3C00000E1C00000DFC00000F8
:10008000DDC00000DBC00000D9C00000D7C0000008
:10009000D5C00000D3C00000D1C00000CFC0000018
:1000A000CDC00000CBC00000C9C00000C7C0000028
:1000B000C5C00000C3C00000C1C00000BFC0000038
:1000C000BDC00000BBC00000B9C00000B7C0000048
:1000D000B5C00000B3C00000B1C00000AFC0000058
:1000E000ADC00000ABC00000A9C00000A7C0000068
:1000F000A5C00000A3C00000A1C000009FC0000078
:100100009DC000009BC0000099C0000097C0000087
:1001100095C0000093C0000091C000008FC0000097
:100120008DC000008BC0000089C0000087C00000A7
:1001300085C0000083C0000081C000007FC00000B7
:100140007DC000007BC0000079C0000077C00000C7
:1001500075C0000073C0000071C000006FC00000D7
:100160006DC000006BC0000069C0000067C00000E7
:1001700065C0000063C0000061C000005FC00000F7
:100180005DC000005BC0000059C0000057C0000007
:1001900055C0000053C0000051C000004FC0000017
:1001A0004DC000004BC0000049C0000047C0000027
:1001B00045C0000043C0000041C000003FC0000037
:1001C0003DC000003BC0000039C0000037C0000047
:1001D00035C0000033C0000031C000002FC0000057
:1001E0002DC000002BC0000029C0000027C0000067
:1001F00025C000000C94610E0C94130F000E060C29
:10020000040011241FBECFEFD7E2DEBFCDBF10E246
:10021000A0E0B0E2ECE0F3E202C005900D92A43B56
:10022000B107D9F717E2A4EBB0E201C01D92AC38D8
:10023000B107E1F70E94F10F0C948411E1CECF9346
:10024000DF9300D000D0CDB7DEB78FEF8093700082
:100250008093710080937200809373008093740088
:10026000809375008093760081E490E064E00E94C2
:100270008C0982E06CE170E00E9492098A8382E03E
:100280006DE170E00E949209898389819A812FEF44
:100290008F3F920721F480E493E289839A838981D6
:1002A0009A818B839C83E0E6F0E082838C81838358
:1002B0008FB7F894E0E5F0E09081926090838FBF73
:1002C000818181FFFDCF80E490E061E00E948C0994
:1002D0008FB7F894E0E5F0E09681997F9683A0E6E9
:1002E000B0E090E815969C9315979BEB16969C931F
:1002F00016979681946096839C9191609C938FBF92
:100300008FB7F89490819E7F90838FBF2496CDBF46
:10031000DEBFDF91CF9108959FB7F894E82FF0E00A
:10032000E059FF4F60958081682360839FBF0895E7
:100330009FB7F894E82FF0E0E059FF4F8081682BD9
:1003400060839FBF0895863011F468E101C060E0CA
:10035000E0E5F0E0818181FD24C08FB7F8949081C1
:10036000926090838FBF818181FFFDCF8FB7F8941A
:10037000A0E5B0E016969C911697997F16969C93EF
:100380001697E0E6F0E090E895839BEB968316964F
:100390009C911697946016969C939081916090839F
:1003A0008FBF636084E490E0B7D780E060E4B4CFAF
:1003B000CF93DF93EC01DA01FC01709620E030E08E
:1003C000462F50E0CA01022E02C0959587950A94E7
:1003D000E2F780FDA0832F5F3F4F31962830310533
:1003E00089F7A0FF07C0B1FF02C06D8301C06E8313
:1003F000698301C06A83DF91CF910895E0E0F6E060
:1004000081E0868382E0858384E0858380E1858343
:1004100080E2858380E4858380E885830895E0E039
:10042000F6E081E0858382E0858384E0858380E156
:10043000858380E2858380E4858380E885830895D1
:1004400081E0E0E0F6E08683089584E0E0E0F6E015
:1004500086830895E0E0F6E084E0858380E185838B
:1004600080E2858380E4858380E88583089580E148
:10047000E0E0F6E08683089580E1E0E0F6E0858341
:10048000089580E2E0E0F6E08683089580E2E0E00F
:10049000F6E08583089580E4E0E0F6E08683089541
:1004A00080E8E0E0F6E086830895009729F482E092
:1004B000E0E0F6E08683089523E0883E920721F489
:1004C00082E0E0E0F6E085830895089580E00895F5
:1004D00080E008950F931F938091D9258823F9F424
:1004E0002091BC203091BD208091C6209091C720E2
:1004F00028173907A1F08091BC209091BD208093EE
:10050000C6209093C72082E860E04EEB50E22AE0DC
:1005100030E000EB12E00E94A00D8093D9251F91DE
:100520000F9108952FB7F894662359F08091BC205D
:100530009091BD20482B592B4093BC205093BD2057
:100540000CC08091BC209091BD20409550954823CF
:1005500059234093BC205093BD202FBF80E0BACFD9
:100560001092D9258091BC209091BD2083788093F2
:10057000BC209093BD208091C6209091C7208378A5
:100580008093C6209093C72080E0A4CF0F931F9341
:10059000CF93DF938091B520882309F06FC00E942C
:1005A0003B0D882351F0C091D320D091D4200E94DC
:1005B000480DC817D90759F461C0C091D320D09114
:1005C000D4200E94430DC817D90709F457C08FB72C
:1005D000F894C091B6209091B420992331F491E021
:1005E000C11190E09093B62004C091E0C11190E059
:1005F000C92F91E09093B5208FBF0C2F10E0F80128
:10060000EE0FFF1FE153FF4DD1E08081918121E08A
:100610008034920709F4D0E0DD2391F00E943B0D75
:10062000882339F00E94480D8093D3209093D420E2
:100630000BC00E94430D8093D3209093D42004C01C
:100640001092D3201092D4202C2F30E080E491E03F
:10065000289FA001299F500D389F500D112447520B
:100660005F4DF801EE0FFF1FE153FF4D20813181F7
:1006700081E86D2F05E413E00E94A00DDF91CF917A
:100680001F910F91089580E081CF8823A9F42091D4
:10069000B62081E090E0222311F080E090E0FC01A0
:1006A000EE0FFF1FE153FF4D108211821092B42014
:1006B0001092B52080E06ACF089580917C2788232E
:1006C000FCF48076803209F049C080917D27813228
:1006D00009F046C080918227909183278730910549
:1006E00009F040C088EC90E280938427909385279E
:1006F00087E090E0809386279093872781E0089594
:100700008076803289F580917D27803219F082329F
:1007100069F51BC0809182279091832787309105CE
:1007200039F58AEB93E0809388279093892788ECAA
:1007300090E2809384279093852787E090E08093D0
:1007400086279093872781E0089590917E2781E006
:1007500090FF80E00E944D1081E0089580E00895B0
:1007600080E0089580E0089580E0089580E0089595
:1007700080E0089588EC90E20C9453101092BB2016
:100780000C944A101092BC201092BD2081EA8093F4
:10079000BE2080E28093BF201092C0201092C12022
:1007A0001092C2201092C32082E090E08093C42077
:1007B0009093C5201092C6201092C72080E092EC42
:1007C000A1E0B0E08093C8209093C920A093CA20F4
:1007D000B093CB201092CC201092CD2088E0809353
:1007E000CE2088EC90E20E9453100C94441080E0DC
:1007F00061E040E150E096CE80E061E040E450E00E
:1008000091CE2091B8203091B920E091BA20F0E04B
:10081000EE0FFF1FEB52FF4D81E040815181241705
:10082000350708F080E008950F931F93CF93DF936F
:100830004FB7F894C091BA208091B720882379F4FB
:100840008091B8209091B920EC2FF0E0EE0FFF1FBF
:10085000EB52FF4D208131818217930718F44FBF6F
:1008600080E027C01092B8201092B92081E0C11119
:1008700080E08093BA2081E08093B7204FBF80E072
:10088000C0DF882311F00E94CA10D0E080E491E01C
:10089000C89FA001C99F500DD89F500D1124475AE1
:1008A0005C4D82E061E020E431E00EE514E00E945E
:1008B000A00DDF91CF911F910F9108950F931F937A
:1008C000882341F58091BA20E1E08111E0E06115D3
:1008D0007105A9F4F0E080E491E0E89FA001E99FB0
:1008E000500DF89F500D1124475A5C4D82E061E095
:1008F00020E431E00EE514E00E94A00D0BC0F0E012
:10090000EE0FFF1FEB52FF4D608371831092B720F3
:1009100080E08ADF1F910F9108951092B520109208
:10092000B4201092B6201092CF201092D0201092B6
:10093000D1201092D2201092D3201092D42080E0A7
:1009400025DE1092B7201092BA201092D520109276
:10095000D6201092B8201092B92080E065DF8093F5
:10096000BB208091BB20089580E04BCFEF92FF9297
:100970001F93CF93DF9311E08091CE20893009F04F
:1009800010E060E070E00F2EF0E4EF2EF1E0FF2EBB
:10099000F02D4091B8205091B9202091BA2030E03C
:1009A000F901EE0FFF1FEB52FF4D80819181481737
:1009B000590728F08091BB20882359F71EC02E9D2F
:1009C000C0012F9D900D3E9D900D1124840F951F09
:1009D000FC01E75AFC4DC081D0E0C62BD72B4F5FFE
:1009E0005F4F4093B8205093B92080E01DDF112362
:1009F00031F07C2F662710E0CCCFC0E0D0E08C2F08
:100A00009D2FDF91CF911F91FF90EF90089580E08F
:100A1000ADCFE091B620F0E0EE0FFF1FE153FF4DA8
:100A20008081918121E08034920721F58091B4206A
:100A3000882381F48FB7F8949091B520992349F4D5
:100A400091E09093B4202091B620211190E09093F2
:100A5000B6208FBFE091B620F0E0EE0FFF1FE1530C
:100A6000FF4D81E02081318191E02034390719F474
:100A700080E0089581E0089580E0CBCFEF92FF926F
:100A80000F931F93CF938B01C1E08091CE208930CB
:100A900009F0C0E00F2EF0E4EF2EF1E0FF2EF02D74
:100AA00080E0B7DF882329F48091BB208823C1F739
:100AB00027C06FB7F8942091B62030E0D901AA0F73
:100AC000BB1FA153BF4D4D915C9111972E9DC0014D
:100AD0002F9D900D3E9D900D1124840F951FFC01BC
:100AE000E752FF4D00834F5F5F4F4D935C9311972B
:100AF0006FBFCC2341F0012F110F110BC0E0D0CFFD
:100B000080E090E002C081E090E0CF911F910F91D2
:100B1000FF90EF900895BC0180E0B0CFE091DD251B
:100B2000F091DE250190F081E02D828193818E0F7E
:100B30009F1F08951F93CF93DF93EC01162FEEDFD5
:100B40009C018881C80FD11DC217D307A0F48981E9
:100B50008430A1F0811731F416C08981843089F086
:100B6000811789F08881C80FD11DC217D307A8F358
:100B7000C0E0D0E008C0C0E0D0E005C0C0E0D0E0F8
:100B800002C0C0E0D0E08C2F9D2FDF91CF911F914C
:100B900008950F931F93CF93DF93182F062F809103
:100BA000DC25882389F1E091DD25F091DE25C081E7
:100BB000D1818C81181750F5C093DA25D093DB25AD
:100BC000ADDFC817D90720F54C2F3D2F02C04C2FA1
:100BD0003D2F2981243061F42A81211749F42B818A
:100BE000201731F44093DA253093DB2581E011C0E2
:100BF0002881C20FD11DC817D90748F3C093DA2541
:100C0000D093DB2580E005C080E003C080E001C018
:100C100080E0DF91CF911F910F91089580917E2701
:100C20008F772BC71F93CF93DF93182FB2DF8823C3
:100C300041F1C091DA25D091DB25CE0165E07ADF64
:100C4000EC01009741F04C815D818A816B812CD74A
:100C5000882399F718C0A091DD25B091DE25812F5A
:100C600090E0880F991F1296ED91FC911397E80F71
:100C7000F91F0190F081E02D0190F081E02D0995A0
:100C800003C080E001C080E0DF91CF911F91089503
:100C90000F931F93CF93DF93C82F60E07ADF8823F1
:100CA00081F1A091DD25B091DE258C2F90E0880F99
:100CB000991F1296ED91FC911397E80FF91F00818F
:100CC0001181D8011696ED91FC9117970995682F1F
:100CD0008C2F5FDF8823B9F0C091DA25D091DB2516
:100CE000CE0165E027DFEC01009719F08A81E0D79B
:100CF000F7CFD8011296ED91FC911397099581E0F9
:100D000003C080E001C080E0DF91CF911F910F917F
:100D1000089507C60895CF938091DC258823C1F0FC
:100D2000E091DD25F091DE250190F081E02D8481B8
:100D3000882371F0C0E08C2FABDFCF5FE091DD2521
:100D4000F091DE250190F081E02D8481C81798F3A1
:100D50001092DC2581E090E08093DF259093E025E0
:100D6000CF910895CF938091DC25882351F1E091B4
:100D7000DD25F091DE25A081B18114968C91149728
:100D80008823F9F0C0E08C2F90E0880F991F028033
:100D9000F381E02DE80FF91F0190F081E02D008430
:100DA000F185E02D309709F00995CF5FE091DD25C1
:100DB000F091DE25A081B18114968C911497C8170B
:100DC00010F3CF9108951F93CF93DF93109286274E
:100DD00010928727109288271092892710928A27CD
:100DE00010928B2780917C27482F882344F42091F0
:100DF0008227309183272115310509F434C290E010
:100E00009C01207630702115310509F0FDC1442385
:100E10000CF004C1209182273091832721153105E0
:100E200009F4F2C18F719070009709F09DC0409154
:100E30007D27463091F0483009F48AC0442309F0F8
:100E400093C02230310539F48FED95E262E070E015
:100E500022D681E0D7C180E0D5C180917E279091D4
:100E60007F27923071F0933061F1913009F068C0C2
:100E70008091142090911520FC01608170E00BD6C8
:100E80004EC0E0911420F09115209189891708F047
:100E900059C090E0880F991F880F991FE091162084
:100EA000F0911720E80FF91F80819181FC01628188
:100EB0007381F1D5E0918427F091852782E08183C9
:100EC0002EC090708130910569F08130910520F03D
:100ED00082309105C9F50AC085E790E264E070E0D0
:100EE000DAD51DC089E790E22DE003C087E890E2E3
:100EF0002EE0382FE8E9F0E2A82FB92F8D918083FA
:100F0000118232968A2F831B8217C0F3220F622F21
:100F10006E5F6093962086E990E270E0BCD5809188
:100F200082279091832720918627309187278217E7
:100F3000930760F4809386279093872781E062C1AE
:100F400080E060C180E05EC180E05CC181E05AC1A8
:100F50002130310539F48CED95E261E070E09BD5EC
:100F600081E050C180E04EC181309105D9F54091BA
:100F70007D274A30B9F52130310561F58091DC25B6
:100F8000882351F110918027C091DD25D091DE2575
:100F9000E881F9818481181708F5812F60E0F9DD77
:100FA0008823F1F0812F90E0880F991FEA81FB815F
:100FB000E80FF91F0190F081E02D86819781FC01F7
:100FC00009958093E12581EE95E261E070E063D5BB
:100FD00081E018C180E016C180E014C180E012C138
:100FE00080E010C18230910509F00EC180917D270B
:100FF000882309F002C12230310571F480918027E5
:101000007FD58093E2251092E32582EE95E262E09F
:1010100070E041D581E0F6C080E0F4C08F7190703F
:10102000009709F092C020917D27233009F4E7C092
:10103000243020F4213009F088C016C0253021F07A
:10104000293009F082C02CC080918227909183279B
:10105000009741F48EE096E080938827909389274B
:1010600081E0D0C080E0CEC080918227909183271C
:10107000009791F480917E2790917F278130910590
:1010800069F48091DF259091E0258D7F8093DF25A5
:101090009093E02581E0B6C080E0B4C080E0B2C0AB
:1010A0008091822790918327009709F042C0E8D46D
:1010B000882309F440C020917E2730917F2730702B
:1010C000E0911420F0911520818990E08217930718
:1010D000A0F121DE80917E278093DC25882379F1A1
:1010E00090E00197880F991F880F991FE0911620B3
:1010F000F0911720E80FF91FE093DD25F093DE252E
:101100000190F081E02D84818823D9F0C0E08C2FFC
:1011100060E088DD8823B9F0CF5FE091DD25F091B4
:10112000DE250190F081E02D8481C81780F381E0F5
:1011300069C080E067C080E065C080E063C081E096
:1011400061C081E05FC080E05DC08130910501F544
:1011500020917D272B30E1F4809182279091832785
:10116000009781F48091DC25882371F0C09180275D
:1011700010917E278C2F8CDD882341F08C2F612FDE
:1011800051DD40C080E03EC080E03CC080E03AC01D
:1011900082309105C9F580917D27813019F0833027
:1011A00081F514C08091822790918327009751F494
:1011B00080917E2790917F27009731F4809180273E
:1011C000A6D420C080E01EC080E01CC08091822791
:1011D00090918327009769F480917E2790917F27D3
:1011E000009749F48091802727D58091802750D59A
:1011F00009C080E007C080E005C080E003C080E057
:1012000001C080E0882389F580917C278F7181302F
:1012100071F58091DC25882361F110918027C091C0
:10122000DD25D091DE25E881F9818481181718F534
:10123000812F60E0AEDC882301F1812F90E0880FE0
:10124000991FEA81FB81E80FF91FC081D181EE81EE
:10125000FF810995682F812F9CDC882381F0EC8128
:10126000FD8109950DC080E00BC081E009C080E0E0
:1012700007C080E005C080E003C080E001C080E0DE
:10128000DF91CF911F91089580E096E061E041E009
:1012900052E08ED880E096E062E041E052E088D8EB
:1012A00080E096E064E041E052E082D880E096E0A1
:1012B00068E041E052E07CD880E096E060E141E007
:1012C00052E076D880E096E060E241E052E070D8EB
:1012D00080E096E060E441E052E06AD880E096E089
:1012E00060E841E052E064D880E296E061E048E1E5
:1012F00050E05ED880E296E062E048E150E058D8E5
:1013000080E296E064E048E150E052D880E296E066
:1013100068E048E150E04CC81BBEFC0128ED24BF4A
:10132000608308954091CA01E62FF72F8093CA0188
:1013300084914093CA010895882369F490916E26A0
:101340009923A9F09FB7F8942091772721502093F3
:1013500077279FBF0CC090916E26992341F49FB7C9
:10136000F894209177272F5F209377279FBF809352
:101370006E260895482F50E04F705070440F551F4F
:10138000282F332727FD30952227330F221F33279D
:10139000CA01820F931F880F991F880F991F880F0A
:1013A000991F8C509A4D0895CF93DF9370E063702E
:1013B00070706130710539F06230710534F4611577
:1013C000710529F005C0C0EC03C0C0E801C0C0E44D
:1013D00040385105F9F04138510550F4403251057B
:1013E000A9F040345105A1F04031510569F41AC00B
:1013F00092E04030590791F093E04F3F590781F058
:1014000091E04030590741F0D0E00DC0D2E00BC070
:10141000D3E009C0D4E007C0D5E005C0D6E003C0E2
:10142000D7E001C0D1E0A6DFFC01118286E0808315
:10143000CD2BC183DF91CF9108950F93E8ECF4E0B9
:1014400080818F7D808380818F7D8083ECEFF5E2CA
:1014500002E005931092FE251092FF2500E206930C
:1014600000E40693389700E2069300E40693109296
:1014700088271092892710928A2710928B27109222
:1014800086271092872710926F270F9108950F9348
:1014900085E080936F27EDEFF5E204E00593389740
:1014A00004E005930F9108950F9383E080936F27D5
:1014B0001092FE251092FF25ECEFF5E202E0069374
:1014C0000F9108950F9384E080936F27E4EFF5E286
:1014D00002E006930F910895E0918827F091892703
:1014E000309709F0099508950F93CF93DF9380917A
:1014F0006F27833019F4F0DFA0DF5AC08091722784
:1015000090917327C0918627D0918727C81BD90B4C
:1015100041F52091702730917127820F931F80939E
:10152000702790937127209182273091832782170B
:10153000930721F080917427882311F0C3DF38C00E
:10154000E0918A27F0918B27309799F009958823AD
:1015500081F01092722710927327C0918627D09144
:101560008727C034D10528F010927427C0E4D0E05A
:1015700003C081E080937427C093FE25D093FF259C
:10158000809172279091732720918427309185272D
:10159000280F391F2093002630930126C80FD91F2A
:1015A000C0937227D0937327ECEFF5E202E0069325
:1015B000DF91CF910F910895FC01818190E08770B8
:1015C000907084309105F9F08530910554F48230A3
:1015D000910599F0833091059CF48130910551F487
:1015E0001EC086309105A9F0863091057CF08730C9
:1015F000910591F088E090E0089580E290E00895F0
:1016000080E490E0089580E890E0089580E091E023
:10161000089580E092E008958FEF93E0089580E1CF
:1016200090E00895282F30E02F703070220F331F84
:10163000482F552747FD50954427550F441F5527E0
:10164000240F351FC901880F991F880F991F880F14
:10165000991F820F931F8A5D994D08950F93809172
:10166000CC0480FF63C021E02093CC0484EF95E29A
:10167000FC0100E80693389600E806932093CA041C
:10168000FC0100E1069380916F27882329F08350A5
:10169000823008F421DFD1DE8091F6259091F72584
:1016A0008830910509F044C0ACE7B7E2EFE2F7E219
:1016B00088E001900D928150E1F7E8ECF4E0808140
:1016C000806280838081806280837DDB882319F43F
:1016D000DEDE81E02EC080917C27882374F4109296
:1016E000702710927127109272271092732782E050
:1016F00080936F27F9DE81E01CC080918227909152
:101700008327009719F4D0DE81E013C01092702770
:1017100010927127109272271092732781E08093A4
:101720006F27E4EFF5E202E0069303C080E001C01A
:1017300081E00F910895AF92BF92CF92DF92EF9226
:10174000FF920F931F93CF93DF93182F6BDFEC0162
:10175000812F10DE7C0130DF5C0111230CF04EC0C4
:10176000F701868197812D813E81820F931F8D83A2
:101770009E832B813C818217930799F1281B390B9B
:10178000F4E020303F0738F02FEF33E0C901B50116
:101790007CD5281B390B888181FF0BC0C901B5019D
:1017A00074D541E050E0009711F040E050E0CA01EC
:1017B00002C080E090E08170880F98819D7F892B26
:1017C0008883F701168217822283338389819A8165
:1017D0002D813E81820F931F8483958302E00693BF
:1017E00095C0888181FF85C08D7F8883F70116822F
:1017F00017821282138202E0069388C0F701C2802A
:10180000D380888182FF1CC089819A812D813E818D
:10181000280F391F8B819C81B50137D5482F592F4F
:10182000612F70E00024769567950794769567950B
:101830000794762F602D615D794D822F932F5BD5B4
:101840008D819E818C0D9D1D8D839E832B813C817E
:101850002817390710F42D833E83F701868197817D
:101860008C159D0509F045C08D819E81281739078B
:1018700009F43FC0281B390BF4E020303F0740F04B
:101880002FEF33E0C901B50100D5281B390B05C086
:10189000C901B501FAD4281B390BF7011282138252
:1018A0002A153B05B8F4888184608883812F90E0F5
:1018B0008F709070002496958795079496958795DC
:1018C0000794982F802D815D994D84839583A682FE
:1018D000B7820BC049815A818D819E81840F951FEB
:1018E000F7018483958326833783F70102E006930B
:1018F0000DC0888180FF0AC08E7F8883EF81F885C4
:10190000309721F06D817E8180E00995DF91CF9144
:101910001F910F91FF90EF90DF90CF90BF90AF900D
:101920000895CF93DF93C0E6D0E0188280E30E9451
:10193000A301E0ECF4E080818064808381E088830F
:10194000CFB7F8941092F5251092FD251092052638
:1019500010920D261092152610921D261092252603
:1019600010922D26809138268E7F80933826809184
:1019700041268E7F8093412680914A268E7F8093D8
:101980004A26809153268E7F8093532680915C2631
:101990008E7F80935C26809165268E7F809365265E
:1019A00082E06AE170E0BEDC8F3F19F08093FA04B8
:1019B00003C08FE18093FA0482E06BE170E0B2DC57
:1019C0008F3F19F08093FB0403C08FE18093FB04E9
:1019D000E0ECF4E080818360808380818068808394
:1019E00080818061808384EF95E286839783808104
:1019F000806280838FEF8093C504E8ECF4E08081FF
:101A00008160808310926E268FB7F89490917B2727
:101A10009F5F90937B278FBFCFBFDF91CF910895BA
:101A200080E00895CF93CFB7F89481E085DCEAECAD
:101A3000F4E080E4808380E28083E1ECF4E0808164
:101A400081608083A9ECB4E08C9182608C93E8EC97
:101A5000F4E08081806480838C9181608C938081AC
:101A600080688083CFBFCF910895E1ECF4E080815E
:101A70008E7F8083089580E008958093C304089545
:101A80008091C3040895809134269091352608955D
:101A900080E090E008958093842790938527609359
:101AA0008627709387270895EF92FF920F931F93D5
:101AB000CF93DF93C82FD62F7A015CDC8C01FC0119
:101AC0008181807C99F48C2F6D2FA7016DDCF8014A
:101AD0008181807C803C21F481818770873041F056
:101AE000F80181818062818381E003C080E001C0D0
:101AF00081E0DF91CF911F910F91FF90EF900895BA
:101B000039DCFC01918181E092FF80E00895CF9360
:101B1000C82F30DCFC01818182FF0FC081818B7F67
:101B200081838C2F7FDDFC01808180FF06C08E7F4A
:101B300080830780F085E02D099581E0CF9108959D
:101B40008F929F92AF92BF92CF92DF92EF92FF92CD
:101B50000F931F93CF93DF93C82FD62F5A014901BC
:101B6000680160DD7C018C2F05DC8C01FC0181812A
:101B7000807C09F451C08181807C803C19F0818196
:101B800082FD4CC08FB7F894F701908190FF03C09D
:101B90008FBF80E044C0F7019081916090838FBF38
:101BA000A182B2828382948215821682C782D086F5
:101BB000DD2341F481E090E08114910429F080E07C
:101BC00090E002C081E090E08170880FF701908181
:101BD000997F892B8083CC2324F4F8011682178205
:101BE00017C0F8018181807C803C69F4C801E4DC85
:101BF000BC01C4014AD3009731F0F70180818E7F88
:101C0000808380E00CC0F801128213821682178252
:101C10008C2F91DD81E003C080E001C080E0DF9186
:101C2000CF911F910F91FF90EF90DF90CF90BF90D9
:101C3000AF909F908F900895EF92FF920F93CF9364
:101C4000C82F98DB7C018C2FEDDCDC01F70102E072
:101C500005938C9180FF17C08E7F8C931796ED9122
:101C6000FC911897309779F0CC2334F4D70116966D
:101C70006D917C91179705C0D70112966D917C915B
:101C8000139781E00995CF910F91FF90EF90089500
:101C90000F93CF93C82F6EDBFC0181818460818319
:101CA00001E006938C2FC8DF81E0CF910F9108955A
:101CB000CF93C82FC1DF8C2F5DDBFC011182CF9148
:101CC00008951F920F920FB60F9211240F932F9326
:101CD0003F934F935F936F937F938F939F93AF93B4
:101CE000BF93EF93FF938091CB04882334F480E873
:101CF0008093CA0437D8C0D184C08091CB0482FFBE
:101D000020C084E08093CA048091FC2586FF79C0BE
:101D10008091CC0481FD75C0A1DC882309F071C0DD
:101D200080916F27813011F4BFDB6BC0843009F0E4
:101D300068C0EDEFF5E204E00593389704E0059301
:101D400060C08091CB0481FF57C082E08093CA04B9
:101D50008091F42586FF55C08091CC0481FD51C04F
:101D60007DDC882309F04DC080916F27823011F40B
:101D7000A9DB47C0833009F044C0EDEFF5E204E091
:101D80000593389704E005933CC080E18093CA0432
:101D900081E052DF81E850DF82E04EDF82E84CDFF5
:101DA0000E948B061092C30480E060E040E450E0A3
:101DB000FBDA80E860E040E450E0F6DA8FE297E298
:101DC0008093F8259093F92538DB1BC08091CB04D4
:101DD00086FF07C080E48093CA0480E0ADDA46D174
:101DE00010C08091CB0485FF0CC080E28093CA04B0
:101DF00081E0A2DA3ED105C08091CB0484FDC5CF3D
:101E0000E5CFFF91EF91BF91AF919F918F917F911E
:101E10006F915F914F913F912F910F910F900FBE56
:101E20000F901F9018951F920F920FB60F921124CA
:101E30000F931F932F933F934F935F936F937F93D2
:101E40008F939F93AF93BF93CF93DF93EF93FF93C2
:101E50008091CC0481FD04C001DC882309F0A8C076
:101E600082E08093CC048091C5048195880FE4EFD3
:101E7000F5E2E81BF10980819181845F9542969596
:101E800087959695879596958795982F969580FF37
:101E900002C0C0E801C0C0E0C90F8C2F6BDAFC01A2
:101EA000808185FF85C000E20693CC2309F07AC0CB
:101EB00080916F27843019F40FDBBFDA79C0C091AD
:101EC000F625D091F725809186279091872700915C
:101ED00072271091732798012C0F3D1F82179307CB
:101EE00018F4EC01C01BD10B8091842790918527B9
:101EF000800F911F6FE277E24C2F5D2FFCD1CE0156
:101F0000800F911F8093722790937327C034D1055F
:101F100069F42091702730917127280F391F409163
:101F20008227509183272417350788F080938627CE
:101F300090938727E0918A27F0918B27309729F09B
:101F40000995882311F4A3DA33C0AEDA31C02091A9
:101F500086273091872782179307F9F4E0918A2723
:101F6000F0918B27309711F492DA22C009958823DB
:101F700011F48DDA1DC08091702790917127209106
:101F8000722730917327820F931F8093702790934D
:101F900071271092722710927327E4EFF5E202E0A6
:101FA000069306C0C03811F49FDA02C08C2FC3DB41
:101FB000FF91EF91DF91CF91BF91AF919F918F9161
:101FC0007F916F915F914F913F912F911F910F9151
:101FD0000F900FBE0F901F901895882309F022CD07
:101FE00044CD87E0E0EAF0E082837894109276278F
:101FF00010927727109278271092792710927A27DB
:1020000081E080937B270E941F013ED90E94FE0140
:102010000E940F020E94890603DD882311F481E0EB
:10202000DCDFC6E7D7E287E797E2A8E4B0E0F89400
:102030002881222339F4FC012F5F31913323E1F30E
:10204000222311F47894F3CFE22FF0E0E550FE4F15
:10205000E4912C91217FE22BEC932C9121602C9325
:10206000789488952C912E7F2C93E1CF0C940F02BD
:1020700008950C942002089580917527882319F003
:1020800002DD0C945502089581E08093752768D095
:1020900081E008951092752774C0882311F00C9484
:1020A00025020C942A02EF92FF921F93CF93DF93A5
:1020B000EC018C81823011F010E001C018E08D81BC
:1020C000813021F0823019F4106201C010638E81DA
:1020D000863051F0873018F4853051F40CC08730C9
:1020E00029F0893029F406C0116005C0126003C0D0
:1020F000136001C0176083E060E10E948C010F2E25
:10210000F0EAEF2EF8E0FF2EF02DF701158388811D
:102110009981AA81BB81880F991FAA1FBB1F880FB5
:10212000991FAA1FBB1F9C01AD01220F331F441F23
:10213000551F60E07CE68CED92E0BBD0DA01C9016E
:102140000196A11DB11DB695A795979587958150CC
:10215000F7018683DF91CF911F91FF90EF90089553
:1021600083E060E10E948C01E0E4F6E088E0818396
:1021700084E08283E0EAF8E08CE1848380E3838377
:10218000089583E060E10E949801E0EAF8E013829C
:1021900014820895E0EAF8E08381882311F083E354
:1021A000838308951F920F920FB60F9211242F93DD
:1021B0003F934F935F936F937F938F939F93AF93CF
:1021C000BF93CF93EF93FF930E944102E0EAF8E0C0
:1021D0008181887121F00E94F7030E944B02C09117
:1021E000A0080E943C05882329F40E94FC030E9459
:1021F000500204C08C2F90E00E948B050E94460282
:10220000FF91EF91CF91BF91AF919F918F917F916E
:102210006F915F914F913F912F910F900FBE0F9053
:102220001F9018951F920F920FB60F9211242F93A3
:102230003F934F935F936F937F938F939F93AF934E
:10224000BF93EF93FF930E94B404882339F00E9458
:1022500037020E9407058093A00806C080E3E0EAE9
:10226000F8E083830E943C02FF91EF91BF91AF9110
:102270009F918F917F916F915F914F913F912F919E
:102280000F900FBE0F901F901895AA1BBB1B51E11A
:1022900007C0AA1FBB1FA617B70710F0A61BB70BD6
:1022A000881F991F5A95A9F780959095BC01CD017B
:1022B0000895A1E21A2EAA1BBB1BFD010DC0AA1F87
:1022C000BB1FEE1FFF1FA217B307E407F50720F09F
:1022D000A21BB30BE40BF50B661F771F881F991F1A
:1022E0001A9469F760957095809590959B01AC0163
:1022F000BD01CF010895FB01DC0102C001900D92E8
:0C23000041505040D8F70895F894FFCFEA
:10230C008D046502660268024303C203BE035D03CB
:10231C00680200006320182020201C200A200020C6
:10232C0009024300020100C032090400000102024C
:10233C0001000524001001042402020524060001FA
:10234C000524010301070582034000100904010064
:10235C00020A000000070581024000000705020286
:10236C004000001201000202000040EB03042400B4
:10237C0001010200010403090464676F6E7A406D69
:10238C0069742E6564750054696E7941726D54726E
:10239C006F6C6C6572000003000000000000000010
:1023AC000000000000000000000000000000000021
:0423BC00000000001D
:00000001FF
