:100000000C94BC000C94D9000C94D9000C94D90029
:100010000C94D9000C94D9000C94D9000C94D900FC
:100020000C94D9000C94D9000C94D9000C94D900EC
:100030000C94D9000C94D9000C9466010C94D9004E
:100040000C94D9000C94D9000C94D9000C94D900CC
:100050000C94D9000C94D9000C94D9000C94D900BC
:100060000C94D9000C94D9000C94D9000C94D900AC
:100070000C94D9000C94D9000C94D9000C94D9009C
:100080000C94D9000C94D9000C94D9000C94D9008C
:100090000C94D9000C94D9000C94D9000C94D9007C
:1000A0000C94D9000C94D9000C94D9000C94D9006C
:1000B0000C94D9000C94D9000C94D9000C94D9005C
:1000C0000C94D9000C94D9000C94D9000C94D9004C
:1000D0000C94D9000C94D9000C94D9000C94D9003C
:1000E0000C94D9000C94D9000C94D9000C94D9002C
:1000F0000C94D9000C94D9000C94D9000C94D9001C
:100100000C94D9000C94D9000C94D9000C94D9000B
:100110000C94D9000C94D9000C94D9000C94D900FB
:100120000C94D9000C94D9000C94D9000C94D900EB
:100130000C94D9000C94D9000C94D9000C94D900DB
:100140000C94D9000C94D9000C94D9000C94D900CB
:100150000C94D9000C94D9000C94D9000C94D900BB
:100160000C94D9000C94D9000C94D9000C94D900AB
:100170000C94D9000C94D90011241FBECFEFD7E204
:10018000DEBFCDBF12E2A0E0B0E2EEEEF1E202C0CF
:1001900005900D92AA31B107D9F712E2AAE1B2E2B5
:1001A00001C01D92AE33B107E1F70E942F0C0C94F1
:1001B000F5100C9400001F93182F8A3019F48DE06D
:1001C0000E94DB008091B10985FFFCCF1093B0093C
:1001D00080E090E01F9108950F93DF93CF930F92EB
:1001E000CDB7DEB72FB72983F8941BBEFC0108ED0D
:1001F00004BF608389818FBF0F90CF91DF910F91F2
:100200000895662311F090E201C090E0842B892BC1
:10021000E0E5F0E0828308956F71682BE0E5F0E09F
:1002200065830895E0E5F0E02081982F9095922372
:100230009083908189230895682B81E490E00E9447
:10024000EC0008951F93CF93DF93182FC0E4D0E004
:100250006881687F682B80E490E00E94EC008881D0
:100260008123DF91CF911F910895E0E4F0E0938125
:10027000917F9160982B9383089530915600282F99
:10028000982F90959323662309F420E0922BE0E5C4
:10029000F0E09683813031F4809168008160809332
:1002A00068000895823029F4809160008160809315
:1002B0006000089583E590E063E00E94EC000895FB
:1002C00082E490E061E00E94EC0008951F920F929A
:1002D0000FB60F9211248F939F93AF93BF9380918A
:1002E000342290913522A0913622B0913722019686
:1002F000A11DB11D8093342290933522A093362204
:10030000B0933722BF91AF919F918F910F900FBE05
:100310000F901F9018958091B10987FFFCCF81E065
:10032000E0E8F6E086838091B00990E00895CF92EE
:10033000DF92EF92FF920F931F93DF93CF93CDB78E
:10034000DEB72E97CDBFDEBF80E090E20E94C010E6
:10035000FE0131968EE0DF011D928A95E9F78F014B
:10036000EFE0CE2ED12CCC0EDD1E37C0EE24EA9469
:10037000FE2C0E948B018C329105E9F08A309105A8
:10038000D1F08D32910591F38033910594F3F8010A
:10039000408151819A01220F331F63E0440F551FA2
:1003A0006A95E1F7240F351F20533040280F391F7D
:1003B00020833183DECFD8012D913C9111972E9D62
:1003C000C0012F9D900D3E9D900D1124F801819349
:1003D00091938F01EC15FD0521F081E0E82EF12CC1
:1003E000C8CFEB81FC816D817E814F815885298545
:1003F0003A858B859C85A981BA81A0931C22B093F4
:100400001D22E0931E22F0931F22609320227093FE
:10041000212240932222509323222093242230939E
:10042000252280932622909327222E96CDBFDEBFD1
:10043000CF91DF911F910F91FF90EF90DF90CF90C0
:100440000895282F392FC90107C0EFE3FFE1319745
:10045000F1F700C0000001970097B9F70895FC017B
:10046000DB01208131818D919C91119728173907EB
:1004700079F52281338112968D919C9113972817DB
:10048000390731F52481358114968D919C9115970A
:1004900028173907E9F42681378116968D919C91AA
:1004A000179728173907A1F42085318518968D9163
:1004B0009C9119972817390759F421E030E04285BB
:1004C00053851A968D919C911B974817590711F0E7
:1004D00020E030E0C901089597FD08C021E030E038
:1004E000181619062CF020E030E002C02FEF3FEF85
:1004F000C901089588ED84BF82E080935000809107
:10050000510081FFFCCF88ED84BF81E080934000E3
:100510000895209134223091352240913622509115
:100520003722B901CA010895FF920F931F93CF9309
:10053000DF93EC0100E816E0FF24F394F801F58264
:100540000E942102F801F682CE010E942102DF9171
:10055000CF911F910F91FF9008950F931F93CF9309
:10056000DF938C01C0E0D0E005C082E390E00E9400
:1005700094022196C017D107C4F3DF91CF911F9148
:100580000F9108958234E9F1833420F4813409F025
:100590009FC007C0833409F450C0843409F098C068
:1005A0007BC06330710509F16430710554F461302A
:1005B0007105B9F062307105B4F46115710579F017
:1005C000089565307105A9F06530710584F06630D5
:1005D000710589F06730710509F07AC00EC081E0BD
:1005E0000DC082E00BC084E009C088E007C080E154
:1005F00005C080E203C080E401C080E88093050666
:1006000008956130710589F06230710524F4611537
:10061000710549F008956230710549F06330710544
:1006200009F056C006C081E005C082E003C084E046
:1006300001C088E08093250608956330710501F1BB
:100640006430710554F461307105B1F062307105A8
:10065000ACF46115710571F0089565307105A1F074
:10066000653071057CF06630710581F06730710589
:1006700079F50EC081E00DC082E00BC084E009C0B6
:1006800088E007C080E105C080E203C080E401C0CB
:1006900080E88093450608956130710581F06230ED
:1006A000710524F46115710541F0089562307105FA
:1006B00041F06330710561F408C081E003C082E05D
:1006C00001C084E080936506089588E08093650604
:1006D00008958234E9F1833420F4813409F09FC015
:1006E00007C0833409F450C0843409F098C07BC03B
:1006F0006330710509F16430710554F4613071059E
:10070000B9F062307105B4F46115710579F008959E
:1007100065307105A9F06530710584F066307105AA
:1007200089F06730710509F07AC00EC081E00DC014
:1007300082E00BC084E009C088E007C080E105C00A
:1007400080E203C080E401C080E88093060608953B
:100750006130710589F06230710524F4611571050D
:1007600049F008956230710549F06330710509F070
:1007700056C006C081E005C082E003C084E001C02D
:1007800088E08093260608956330710501F1643096
:10079000710554F461307105B1F062307105ACF44B
:1007A0006115710571F0089565307105A1F065302E
:1007B00071057CF06630710581F06730710579F55F
:1007C0000EC081E00DC082E00BC084E009C088E06B
:1007D00007C080E105C080E203C080E401C080E87A
:1007E0008093460608956130710581F0623071058D
:1007F00024F46115710541F008956230710541F0EE
:100800006330710561F408C081E003C082E001C07B
:1008100084E080936606089588E0809366060895D4
:10082000EF92FF920F931F93CF93DF93EC017A0126
:100830008B012A853B85442737FD4095542F60E680
:100840007AEE80E090E00E943E10CA01B901A80152
:1008500097010E943E102E833F8348875987DF917E
:10086000CF911F910F91FF90EF9008959F92AF92BB
:10087000BF92CF92DF92EF92FF920F931F93DF937D
:10088000CF93CDB7DEB72AA93BA94A8D5B8D8AA14C
:100890006BA17CA1BDA00EA11FA198A4E9A4FAA4FC
:1008A000ABA4CCA4DDA44230510511F521303105B3
:1008B00091F02230310524F42115310549F057C05B
:1008C0002230310569F02330310509F050C00BC0EA
:1008D0000E94690302C00E94C2028B2DB80145C06C
:1008E0000E94C20202C00E9469038B2DB80127C07A
:1008F00044305105E1F521303105A9F022303105B0
:1009000024F42115310541F032C022303105D1F0F7
:100910002330310561F51DC00E94C2028B2DB80144
:100920000E94690306C00E9469038B2DB8010E94D2
:10093000C202892DB7010E94C2028A2DB6010E940F
:10094000690315C00E9469038B2DB8010E94C20281
:1009500006C00E94C2028B2DB8010E946903892D36
:10096000B7010E9469038A2DB6010E94C202CF918D
:10097000DF911F910F91FF90EF90DF90CF90BF908C
:10098000AF909F900895AF92BF92CF92DF92EF9277
:10099000FF920F931F93CF93DF93EC018B01623093
:1009A00071052CF081E090E08A839B83E0C0109574
:1009B00001951F4F1A821B82DAC0809134229091D8
:1009C0003522A0913622B0913722821B930BA40BC3
:1009D000B50B8C159D05AE05BF0578F380913422CB
:1009E00090913522A0913622B091372288A399A305
:1009F000AAA3BBA32A813B818E859F852130310527
:100A0000C1F49C012F5F3F4F2E873F87E881F9811A
:100A1000EE0FFF1FEA5DFD4D80819181019680837D
:100A200091838A859B8528173907C9F41E861F86FE
:100A300016C0009721F48A859B858E879F878E85B7
:100A40009F8501978E879F87E881F981EE0FFF1FB1
:100A5000EA5DFD4D808191810197808391830150F2
:100A600010408DB79EB786978DBF9EBFCDB6DEB6C0
:100A70000894C11CD11CC601DE0124E20D90FC01CA
:100A80000192CF012150D1F78E859F85B5010E943B
:100A90002B10F60184A395A30E9436048DB79EB750
:100AA00086968DBF9EBF888199818330910509F01C
:100AB00061C08A819B81909581959F4F8093E120B1
:100AC0009093E22081309105A9F48091ED209091DE
:100AD000EE2001968093ED209093EE202091E92066
:100AE0003091EA2082179307E1F41092ED201092E2
:100AF000EE2017C08091ED209091EE20009741F4F8
:100B00008091E9209091EA208093ED209093EE204F
:100B10008091ED209091EE2001978093ED209093AD
:100B2000EE20EDB7FEB7B697EDBFFEBFCDB6DEB691
:100B30000894C11CD11CC601AFEDB0E224E20D90B7
:100B4000FC010192CF012150D1F78091ED209091CD
:100B5000EE20B5010E942B10F60184A395A30E94FC
:100B600036048DB79EB786968DBF9EBF03C0F4E056
:100B7000AF2EB12C101611064CF428A139A14AA1B0
:100B80005BA1CE80DF80E884F98417CFDF91CF911D
:100B90001F910F91FF90EF90DF90CF90BF90AF909B
:100BA00008950F931F93CF93DF93EC016A837B83A8
:100BB00061307105C9F48E859F8501968E879F8768
:100BC000E881F981EE0FFF1FEA5DFD4D2081318143
:100BD0002F5F3F4F208331832A853B858217930700
:100BE000F1F41E861F861BC061157105C1F08E854C
:100BF0009F85009721F48A859B858E879F878E85A8
:100C00009F8501978E879F87E881F981EE0FFF1FEF
:100C1000EA5DFD4D808191810197808391838DB73D
:100C20009EB786978DBF9EBF0DB71EB70F5F1F4F34
:100C3000C801DE0124E20D90FC010192CF01215098
:100C4000D1F78E859F8564E070E00E942B10F8013B
:100C500084A395A30E9436048DB79EB786968DBF58
:100C60009EBF888199818330910509F05BC08A819C
:100C70009B81909581959F4F8093E1209093E220F6
:100C800081309105A9F48091ED209091EE2001969C
:100C90008093ED209093EE202091E9203091EA207E
:100CA0008217930701F51092ED201092EE201BC0E1
:100CB0008A819B810097B9F08091ED209091EE2080
:100CC000009741F48091E9209091EA208093ED20F3
:100CD0009093EE208091ED209091EE2001978093EB
:100CE000ED209093EE20EDB7FEB7B697EDBFFEBFB7
:100CF0003196EF01AFEDB0E284E20D9009928150A0
:100D0000E1F78091ED209091EE2064E070E00E9488
:100D10002B1084A395A30E9436048DB79EB78696A8
:100D20008DBF9EBFDF91CF911F910F910895EF92DC
:100D3000FF920F931F9380931C2290931D22609328
:100D40001E2270931F224093202250932122209331
:100D50002222309323220093242210932522E09212
:100D60002622F09227221F910F91FF90EF90089575
:100D70002F923F924F925F926F927F928F929F92AB
:100D8000AF92BF92CF92DF92EF92FF920F931F9399
:100D9000DF93CF93CDB7DEB76697CDBFDEBFE090D0
:100DA0001C22F0901D228091282290912922E81A7D
:100DB000F90AC0901E22D0901F2280912A22909181
:100DC0002B22C81AD90AA0902022B090212280910B
:100DD0002C2290912D22A81AB90A2091222230911A
:100DE000232280912E2290912F22281B390B298BB0
:100DF0003A8B80912422909125228B8B9C8B809121
:100E0000302290913122AB89BC89A81BB90BAB8BE6
:100E1000BC8B209126223091272280913222909102
:100E20003322281B390B2D8B3E8BE982FA82CB8231
:100E3000DC82AD82BE8289899A898F839887A9874F
:100E4000BA872B873C87FE013396AE01435F5F4F25
:100E500087017081618132969B01832F922F97FFCA
:100E600003C0909581959F4F980117FF04C02227DA
:100E70003327201B310B281739071CF4CB01092F0E
:100E8000162FE417F50729F76091292070912A2081
:100E9000882777FD8095982F0E94E80D6D877E87C3
:100EA0008F87988BB801882777FD8095982F0E94AF
:100EB000E80D3B014C01209135203091362044272C
:100EC00037FD4095542F60E67AEE80E090E00E9476
:100ED0003E1019012A01B701882777FD8095982FC8
:100EE0000E94E80DA40193010E943A0D9B01AC0100
:100EF0006D857E858F8598890E94400C0E94480EE2
:100F0000262F372F37FF03C0309521953F4F4427B9
:100F100037FD4095542FC201B1010E943E101901C6
:100F20002A01209331203093322040933320509374
:100F300034202091592030915A20442737FD409584
:100F4000542F60E67AEE80E090E00E943E10790136
:100F50008A01B601882777FD8095982F0E94E80DB9
:100F6000A40193010E943A0D9B01AC016D857E8521
:100F70008F8598890E94400C0E94480E262F372F9B
:100F800037FF03C0309521953F4F442737FD4095EB
:100F9000542FC801B7010E943E1020935520309372
:100FA0005620409357205093582020917D20309117
:100FB0007E20442737FD4095542F60E67AEE80E08E
:100FC00090E00E943E1079018A01B501882777FDE3
:100FD0008095982F0E94E80DA40193010E943A0D7C
:100FE0009B01AC016D857E858F8598890E94400CA0
:100FF0000E94480E262F372F37FF03C030952195CA
:101000003F4F442737FD4095542FC801B7010E9438
:101010003E102093792030937A2040937B20509388
:101020007C202091A1203091A220442737FD4095BB
:10103000542F60E67AEE80E090E00E943E10790145
:101040008A01A989BA89BD01882777FD8095982FE3
:101050000E94E80DA40193010E943A0D9B01AC018E
:101060006D857E858F8598890E94400C0E94480E70
:10107000262F372F37FF03C0309521953F4F442748
:1010800037FD4095542FC801B7010E943E102093B0
:101090009D2030939E2040939F205093A02020912C
:1010A000C5203091C620442737FD4095542F60E677
:1010B0007AEE80E090E00E943E1079018A012B894F
:1010C0003C89B901882777FD8095982F0E94E80D0B
:1010D000A40193010E943A0D9B01AC016D857E85B0
:1010E0008F8598890E94400C0E94480E262F372F2A
:1010F00037FF03C0309521953F4F442737FD40957A
:10110000542FC801B7010E943E102093C120309394
:10111000C2204093C3205093C4202091E9203091F5
:10112000EA20442737FD4095542F60E67AEE80E0B0
:1011300090E00E943E1079018A01AD89BE89BD010F
:10114000882777FD8095982F0E94E80DA4019301D0
:101150000E943A0D9B01AC016D857E858F85988933
:101160000E94400C0E94480E262F372F37FF03C0E5
:10117000309521953F4F442737FD4095542FC801A6
:10118000B7010E943E102093E5203093E620409363
:10119000E7205093E820ECE1F2E228E232E2DE01BF
:1011A0001196BD0181919191D9014D915D919D0162
:1011B000841B950BDB018D939D93BD01B2E2E83258
:1011C000FB0781F78091342290913522A09136223D
:1011D000B091372220914B2030914C2040914D20EE
:1011E00050914E20821B930BA40BB50B82159305D7
:1011F000A405B50510F18091342290913522A0917B
:101200003622B091372280934B2090934C20A093AC
:101210004D20B0934E2089819A8197FD08C061E0EE
:1012200070E0181619062CF060E070E002C06FEF55
:101230007FEF8BE290E20E94D10580913422909161
:101240003522A0913622B091372220916F20309123
:1012500070204091712050917220821B930BA40B3F
:10126000B50B209155203091562040915720509138
:10127000582082179307A407B50710F180913422F4
:1012800090913522A0913622B091372280936F2021
:1012900090937020A0937120B09372208B819C81D9
:1012A00097FD08C061E070E0181619062CF060E0A8
:1012B00070E002C06FEF7FEF8FE490E20E94D105F3
:1012C0008091342290913522A0913622B09137221C
:1012D0002091932030919420409195205091962018
:1012E000821B930BA40BB50B2091792030917A20AF
:1012F00040917B2050917C2082179307A407B5076B
:1013000010F18091342290913522A0913622B09133
:1013100037228093932090939420A0939520B093AC
:1013200096208D819E8197FD08C061E070E01816BF
:1013300019062CF060E070E002C06FEF7FEF83E7EA
:1013400090E20E94D1058091342290913522A091A3
:101350003622B09137222091B7203091B8204091A9
:10136000B9205091BA20821B930BA40BB50B20918E
:101370009D2030919E2040919F205091A020821767
:101380009307A407B50710F180913422909135227C
:10139000A0913622B09137228093B7209093B82045
:1013A000A093B920B093BA208F81988597FD08C08B
:1013B00061E070E0181619062CF060E070E002C0E1
:1013C0006FEF7FEF87E990E20E94D1058091342290
:1013D00090913522A0913622B09137222091DB20C6
:1013E0003091DC204091DD205091DE20821B930B58
:1013F000A40BB50B2091C1203091C2204091C32095
:101400005091C42082179307A407B50710F180916B
:10141000342290913522A0913622B09137228093C8
:10142000DB209093DC20A093DD20B093DE20898523
:101430009A8597FD08C061E070E0181619062CF037
:1014400060E070E002C06FEF7FEF8BEB90E20E94F4
:10145000D1058091342290913522A0913622B0910D
:1014600037222091FF20309100214091012150919D
:101470000221821B930BA40BB50B2091E520309128
:10148000E6204091E7205091E82082179307A407B7
:10149000B50710F18091342290913522A091362227
:1014A000B09137228093FF2090930021A0930121D7
:1014B000B09302218B859C8597FD08C061E070E0A8
:1014C000181619062CF060E070E002C06FEF7FEF95
:1014D0008FED90E20E94D1056696CDBFDEBFCF9121
:1014E000DF911F910F91FF90EF90DF90CF90BF9011
:1014F000AF909F908F907F906F905F904F903F90B4
:101500002F9008956F927F928F929F92AF92BF9289
:10151000CF92DF92EF92FF920F931F93CF93DF93BF
:1015200022E0822E912C93E0692E712C80E6A82E69
:101530008AEEB82EC12CD12C8091272090912820A2
:10154000009709F449C18130910509F016C18091D5
:10155000292090912A20B4010E942B107B010027A2
:10156000F7FC0095102F209135203091362044272C
:1015700037FD4095542FC601B5010E943E10CA01A7
:10158000B901A80197010E943E10209331203093A9
:1015900032204093332050933420209159203091B1
:1015A0005A20442737FD4095542FC601B5010E94AB
:1015B0003E10CA01B901A80197010E943E10209374
:1015C0005520309356204093572050935820209117
:1015D0007D2030917E20442737FD4095542FC60151
:1015E000B5010E943E10CA01B901A80197010E94ED
:1015F0003E102093792030937A2040937B205093A3
:101600007C202091A1203091A220442737FD4095D5
:10161000542FC601B5010E943E10CA01B901A801AC
:1016200097010E943E1020939D2030939E2040936E
:101630009F205093A0202091C5203091C6204427A0
:1016400037FD4095542FC601B5010E943E10CA01D6
:10165000B901A80197010E943E102093C120309348
:10166000C2204093C3205093C4202091E9203091A0
:10167000EA20442737FD4095542FC601B5010E944A
:101680003E10CA01B901A80197010E943E102093A3
:10169000E5203093E6204093E7205093E8208091A6
:1016A00068061092282210922922809168061092D2
:1016B0002A2210922B228091880610922C221092BE
:1016C0002D228091342290913522A0913622B09122
:1016D00037222091FF20309100214091012150912B
:1016E0000221821B930BA40BB50B2091E5203091B6
:1016F000E6204091E7205091E82082179307A40745
:10170000B507B0F08091342290913522A091362215
:10171000B09137228093FF2090930021A093012164
:10172000B09302218FED90E261E070E00E94D1055C
:101730008091680684FDC5CFCFE0D0E08091E520A0
:101740009091E6200E9421028FED90E261E070E02E
:101750000E94D105219791F71092322210923322E4
:101760008091880610922E2210922F221092302201
:101770001092312286E090E228C082309105A1F4D7
:101780000E94970188E292E26CE172E20E942F02CD
:10179000009709F0D1CE60922720709228208CE02B
:1017A00090E20E94C010C8CE8330910509F0C4CEEB
:1017B00088E292E26CE172E20E942F02009719F433
:1017C0000E94B806B9CE83E190E20E94C0108092D8
:1017D000272090922820B0CEFFCF0E947A02E0E02E
:1017E000F8E080EA9FE086A397A38081807F8460F1
:1017F0008083868183608683E0EAF0E08281846072
:1018000082837894E0E0F6E081818FEF8183E0E2EB
:10181000F6E091818183E0E4F6E091818183E0E666
:10182000F6E081818F60818388E1848B858BA0E8DD
:10183000B6E051968C93519752968C93529753964B
:101840008C93539790E895839183E0EBF9E01782AE
:1018500093E39683138293E09583848308950E9493
:10186000ED0B83E091E280933A2290933B228CE14E
:1018700090E20E94C0100E94820A80E090E00895E9
:10188000A0E2B0E0E6E4FCE00C948F1069837A8378
:101890008B839C832D833E834F835887CE01019693
:1018A000BE01675F7F4F0E94C20FCE010596BE0149
:1018B0006F5E7F4F0E94C20F9985923078F08989C0
:1018C0008230C0F0943019F4823041F4CBC08430BF
:1018D00019F4923079F4C6C0923051F481E02A852F
:1018E0009A89291709F480E08A87CE010996BCC03D
:1018F000823051F481E02A859A89291709F480E021
:101900008A8BCE014196B0C06D847E848F84988886
:10191000ED88FE880F89188DE0E2F0E080E090E02D
:10192000DC01AA24BB24650120E030E0A901B30159
:101930006170707061157105D1F02E0D3F1D401F53
:10194000511F15012601280E391E4A1E5B1E81E01B
:1019500090E0A0E0B0E02E153F054007510718F0D9
:1019600080E090E0DC01820D931DA41DB51DAA0C42
:10197000BB1CCC1CDD1C17FF09C061E0262E312CDE
:10198000412C512CA228B328C428D528319749F0DE
:10199000EE0CFF1C001F111F969487947794679498
:1019A000C6CF6B897C89EB85FC856E0F7F1F6E5FD0
:1019B0007F4F6B8F7C8F61E0EA857A89E71709F4A6
:1019C00060E06A8F6B8D7C8D10C0FC01E170F0705F
:1019D000309729F056954795379527955068B695D5
:1019E000A795979587956F5F7F4FB7FDEECF0CC09A
:1019F000880F991FAA1FBB1F57FD8160220F331F3D
:101A0000441F551F615070408030E0E09E07E0E0C9
:101A1000AE07E0E4BE0760F36B8F7C8F6FE7E62EC6
:101A2000F12C012D112DE822F9220A231B2360E459
:101A3000E616F1040105110561F487FD0AC02115C0
:101A400031054105510529F0805C9F4FAF4FBF4FD5
:101A500080788D8F9E8FAF8FB8A383E0898FCE0162
:101A6000499602C081E191E20E94F40EA096E2E163
:101A70000C94A810A8E1B0E0E0E4FDE00C9497100D
:101A800069837A838B839C832D833E834F8358871E
:101A90008E01075F1F4FCE010196B8010E94C20F51
:101AA00081E1E82EF12CEC0EFD1ECE010596B7016A
:101AB0000E94C20F9985923008F483C089898230D0
:101AC00008F47BC02A853A8923272A87943011F0AD
:101AD000923021F4981709F06CC071C0843039F449
:101AE0001D861E861F86188A1B861C866AC0823049
:101AF00019F484E0898765C08B859C852B893C8996
:101B0000821B930B8B879C872D853E854F8558893B
:101B1000ED88FE880F89188D2E153F054007510767
:101B200038F4220F331F441F551F01978B879C8762
:101B30006FE170E0A12CB12CC12CA0E4DA2E80E082
:101B400090E0DC012E153F054007510740F08A293F
:101B50009B29AC29BD292E193F09400B510BD69466
:101B6000C794B794A794220F331F441F551F615089
:101B7000704041F76FE7E62EF12C012D112DE82280
:101B8000F9220A231B2360E4E616F104010511057E
:101B900061F487FD0AC0211531054105510529F081
:101BA000805C9F4FAF4FBF4F80788D879E87AF87F8
:101BB000B88B8E01075F1F4F04C0870102C001E18F
:101BC00011E2C8010E94F40E6896EAE00C94B0108D
:101BD000A8E0B0E0EEEEFDE00C949B107B018C01E0
:101BE00083E08983D801C7018827B7FD83959927AA
:101BF000AA27BB27282F8A83E114F10401051105C8
:101C000019F482E0898337C08EE190E08B839C8356
:101C1000222389F080E0E81680E0F80680E00807DB
:101C200080E8180769F110950095F094E094E11CA4
:101C3000F11C011D111DED82FE820F831887C80162
:101C4000B7010E949A0E9C012150304012161306D3
:101C500094F4022E04C0EE0CFF1C001F111F0A9406
:101C6000D2F7ED82FE820F8318878EE190E0821B0F
:101C7000930B8B839C83CE0101960E94F40E04C0CB
:101C800060E070E080E09FEC2896E6E00C94B410F1
:101C9000ACE0B0E0EEE4FEE00C949F1069837A8340
:101CA0008B839C83CE010196BE016B5F7F4F0E94A8
:101CB000C20F8D81823081F1823070F1843021F445
:101CC0008E81882369F10AC02F81388537FD24C0B1
:101CD0006E812F3131053CF0662311F120E030E0B8
:101CE00040E050E821C08EE190E0821B930B2985F3
:101CF0003A854B855C8504C0569547953795279561
:101D00008A95D2F7662381F05095409530952195BC
:101D10003F4F4F4F5F4F08C020E030E0A90104C0A3
:101D20002FEF3FEF4FEF5FE7B901CA012C96E2E0DA
:101D30000C94B810AF92BF92CF92DF92EF92FF92C5
:101D40000F931F937B018C0180E0E81680E0F8067A
:101D500081E0080780E0180758F4EFEFEE16F10471
:101D60000105110509F090F480E090E0DC0117C056
:101D7000F0E0EF16F0E0FF06F0E00F07F1E01F07DC
:101D800050F480E190E0A0E0B0E009C088E090E08D
:101D9000A0E0B0E004C088E190E0A0E0B0E020E284
:101DA00030E040E050E0281B390B4A0B5B0B570139
:101DB000680104C0D694C794B794A7948A95D2F7C3
:101DC000D601C501875E9E4DFC018081281B31092B
:101DD00041095109C9011F910F91FF90EF90DF90C8
:101DE000CF90BF90AF900895EF92FF920F931F9303
:101DF000CF93DF93FC012481358146815781618136
:101E00008081823020F44061EFEFF0E0A3C08430A5
:101E100009F49BC0823009F492C0211531054105B7
:101E2000510509F48FC00280F381E02D8FEFE23875
:101E3000F8070CF05AC0C2E8DFEFCE1BDF0BCA3147
:101E4000D1056CF579018A010C2E04C01695079511
:101E5000F794E7940A94D2F781E090E0A0E0B0E034
:101E60000C2E04C0880F991FAA1FBB1F0A94D2F71B
:101E70000197A109B10982239323A423B52321E06B
:101E800030E040E050E00097A105B10519F420E0F2
:101E900030E0A9012E293F29402B512B03C020E01F
:101EA00030E0A901DA01C9018F779070A070B0709D
:101EB00080349105A105B10539F427FF09C0205CE4
:101EC0003F4F4F4F5F4F04C0215C3F4F4F4F5F4F1D
:101ED000E1E0F0E0203080E0380780E0480780E46F
:101EE000580728F5E0E0F0E022C0E038F1056CF595
:101EF000E158FF4FDA01C9018F779070A070B07080
:101F000080349105A105B10539F427FF09C0205C93
:101F10003F4F4F4F5F4F04C0215C3F4F4F4F5F4FCC
:101F200057FF05C05695479537952795319687E019
:101F300056954795379527958A95D1F70BC0E0E0E0
:101F4000F0E005C0E0E0F0E005C0EFEFF0E020E0F9
:101F500030E0A9018E2F879588278795942F9F774A
:101F6000679566276795E695E22EA92FA82BFE2F89
:101F7000F62B622F732F8A2F9F2FCDB7DEB7E6E0A7
:101F80000C94B410DC01FB012C9111963C9111973B
:101F900012968C911297482F4F7750E0982F991FE7
:101FA0009927991F13966C911397862F880F892B69
:101FB00090E0661F6627661F6183009739F521153B
:101FC00031054105510511F482E029C082E89FEFF7
:101FD0008283938367E0220F331F441F551F6A9546
:101FE000D1F783E0808309C0220F331F441F551FA0
:101FF00082819381019782839383203080E0380728
:1020000080E0480780E4580778F320C08F3F9105AF
:1020100079F4211531054105510519F484E08083D7
:10202000089544FF03C081E0808310C010820EC079
:102030008F5790408283938383E0808387E0220FD1
:10204000331F441F551F8A95D1F75064248335836D
:1020500046835783089597FB092E07260AD077FDFC
:1020600004D027D006D000201AF4709561957F4FD8
:102070000895F6F7909581959F4F089597FB092E47
:1020800005260ED057FD04D028D00AD0001C38F405
:1020900050954095309521953F4F4F4F5F4F089594
:1020A000F6F790958095709561957F4F8F4F9F4F74
:1020B0000895AA1BBB1B51E107C0AA1FBB1FA6178F
:1020C000B70710F0A61BB70B881F991F5A95A9F7E1
:1020D00080959095BC01CD010895A1E21A2EAA1B0E
:1020E000BB1BFD010DC0AA1FBB1FEE1FFF1FA217C8
:1020F000B307E407F50720F0A21BB30BE40BF50BC5
:10210000661F771F881F991F1A9469F7609570954D
:10211000809590959B01AC01BD01CF0108952F9250
:102120003F924F925F926F927F928F929F92AF9267
:10213000BF92CF92DF92EF92FF920F931F93CF93B4
:10214000DF93CDB7DEB7CA1BDB0BCDBFDEBF099473
:102150002A88398848885F846E847D848C849B8437
:10216000AA84B984C884DF80EE80FD800C811B8145
:10217000AA81B981CE0FD11DCDBFDEBFED0108957B
:10218000EF92FF920F931F93CF93DF938C01E09117
:102190003A22F0913B22838181FF1FC0C0E0D0E052
:1021A0000AC0DB011896ED91FC91199709950097EB
:1021B00011F0CFEFDFEFF80181918F0160913A22AA
:1021C00070913B22882369F7DB011896ED91FC9111
:1021D00019978AE00995009711F0CFEFDFEFCE0154
:0E21E000CDB7DEB7E6E00C94B410F894FFCF54
:1021EE0067696D6D65007265616479006D6F766902
:1021FE006E6700676F745468657265004C45545382
:10220E00444F544849530001004100010001002889
:10221E00000A0000006400040000007CFC840341FE
:10222E0000004101004102004103000000000002D5
:10223E0000010028000A00000064000400000000F5
:10224E00005CF94104004105004106004107000011
:10225E000000000300010028000A000000640004D2
:10226E000000000000AA05420000420100420200E8
:10227E00420300000000000400010028000A0000D4
:10228E0000640004000000C80038FF430000430152
:10229E000043020043030000000000050001002877
:1022AE00000A00000064000400000038FFC800436C
:1022BE00040043050043060043070000000000062B
:1022CE0000010028000A0000006400040000000065
:1022DE0000200344000044010044020044030000B7
:1022EE000000000000000200000000DB0000000003
:1022FE0000000000000000000000010202030303C2
:10230E000304040404040404040505050505050579
:10231E000505050505050505050606060606060658
:10232E00060606060606060606060606060606063F
:10233E000606060606060606060707070707070728
:10234E00070707070707070707070707070707070F
:10235E0007070707070707070707070707070707FF
:10236E0007070707070707070707070707070707EF
:10237E0007070707070707070708080808080808D8
:10238E0008080808080808080808080808080808BF
:10239E0008080808080808080808080808080808AF
:1023AE00080808080808080808080808080808089F
:1023BE00080808080808080808080808080808088F
:1023CE00080808080808080808080808080808087F
:1023DE00080808080808080808080808080808086F
:1023EE00080808080808080808080808080808085F
:0A23FE00080808080808080808008D
:00000001FF
