:100000000C94BC000C94D9000C94D9000C94D90029
:100010000C94D9000C94D9000C94D9000C94D900FC
:100020000C94D9000C94D9000C94D9000C94D900EC
:100030000C94D9000C94D9000C9450010C94D90064
:100040000C94D9000C94D9000C94D9000C94D900CC
:100050000C94D9000C94D9000C94D9000C94D900BC
:100060000C94D9000C94D9000C94D9000C94D900AC
:100070000C94D9000C94D9000C94D9000C94D9009C
:100080000C94D9000C94D9000C94D9000C94D9008C
:100090000C94D9000C94D9000C94D9000C94D9007C
:1000A0000C94D9000C94D9000C94D9000C94D9006C
:1000B0000C94D9000C94D9000C94D9000C94D9005C
:1000C0000C94D9000C94D9000C94D9000C94D9004C
:1000D0000C94D9000C94D9000C94D9000C94D9003C
:1000E0000C94D9000C94D9000C94D9000C94D9002C
:1000F0000C94D9000C94D9000C94D9000C94D9001C
:100100000C94D9000C94D9000C94D9000C94D9000B
:100110000C94D9000C94D9000C94D9000C94D900FB
:100120000C94D9000C94D9000C94D9000C94D900EB
:100130000C94D9000C94D9000C94D9000C94D900DB
:100140000C94D9000C94D9000C94D9000C94D900CB
:100150000C94D9000C94D9000C94D9000C94D900BB
:100160000C94D9000C94D9000C94D9000C94D900AB
:100170000C94D9000C94D90011241FBECFEFD7E204
:10018000DEBFCDBF10E2A0E0B0E2E2EDFCE102C0D4
:1001900005900D92A23EB107D9F711E2A2EEB0E2AE
:1001A00001C01D92A030B107E1F70E94690D0C94C7
:1001B000670E0C9400000F93CF93DF931F92CDB77F
:1001C000DEB72FB72983F8941BBEFC0108ED04BFEE
:1001D000608389818FBF0F90DF91CF910F91089538
:1001E000662311F090E201C090E0842B892B80936C
:1001F000520008956F71682BE0E5F0E06583089583
:10020000E0E5F0E02081982F9095922390839081F3
:1002100089230895682B81E490E00C94DB001F9300
:10022000CF93DF93182FC0E4D0E06881687F682BFC
:1002300080E490E00E94DB0088818123DF91CF91F0
:100240001F910895E0E4F0E09381917F9160982BF5
:100250009383089530915600282F982F90959323DB
:10026000611101C020E0922B90935600813031F44F
:10027000809168008160809368000895823029F43D
:1002800080916000816080936000089563E083E561
:1002900090E00C94DB0061E082E490E00C94DB00E1
:1002A0001F920F920FB60F9211248F939F93AF93CB
:1002B000BF938091E2209091E320A091E420B0913F
:1002C000E5200196A11DB11D8093E2209093E320CB
:1002D000A093E420B093E520BF91AF919F918F91BF
:1002E0000F900FBE0F901F9018959C0108C08FE3D0
:1002F0009FE10197F1F700C000002150310921155D
:100300003105A9F70895FC01DB01208131818D9130
:100310009C9111972817390779F52281338112961C
:100320008D919C9113972817390731F524813581D8
:1003300014968D919C91159728173907E9F4268119
:10034000378116968D919C91179728173907A1F43C
:100350002085318518968D919C911997281739071A
:1003600059F421E030E0428553851A968D919C9195
:100370001B974817590711F020E030E0C901089594
:1003800097FD08C021E030E0181619062CF020E097
:1003900030E002C02FEF3FEFC901089588ED84BF20
:1003A00082E0809350008091510081FFFCCF88ED66
:1003B00084BF81E08093400008950F931F930091C4
:1003C000E2201091E3202091E4203091E520B80153
:1003D000C9011F910F910895FF920F931F93CF931F
:1003E000DF938C01C0E8D6E0FF24F394FD820E94E5
:1003F0007501FE82C801DF91CF911F910F91FF908F
:100400000C9475018234A9F120F4813409F089C07B
:1004100007C0833409F446C0843409F082C06AC03E
:1004200063307105E1F03CF46130710591F0ACF49A
:10043000672B69F0089565307105A9F094F0663076
:10044000710599F06730710509F06BC010C081E04B
:1004500001C082E080930506089584E0FBCF88E028
:10046000F9CF80E1F7CF80E2F5CF80E4F3CF80E8E9
:10047000F1CF6130710571F01CF4672B49F00895DC
:100480006230710549F06330710509F04AC006C059
:1004900081E005C082E003C084E001C088E0809371
:1004A0002506089563307105C9F03CF4613071058B
:1004B00089F094F4672B61F008956530710591F02F
:1004C0007CF06630710581F06730710551F50EC022
:1004D00081E00DC082E00BC084E009C088E007C065
:1004E00080E105C080E203C080E401C080E8809321
:1004F000450608956130710569F01CF4672B41F0E1
:1005000008956230710541F06330710551F406C001
:1005100081E005C082E003C084E001C088E08093F0
:10052000650608958234A9F120F4813409F089C068
:1005300007C0833409F446C0843409F082C06AC01D
:1005400063307105E1F03CF46130710591F0ACF479
:10055000672B69F0089565307105A9F094F0663055
:10056000710599F06730710509F06BC010C081E02A
:1005700001C082E080930606089584E0FBCF88E006
:10058000F9CF80E1F7CF80E2F5CF80E4F3CF80E8C8
:10059000F1CF6130710571F01CF4672B49F00895BB
:1005A0006230710549F06330710509F04AC006C038
:1005B00081E005C082E003C084E001C088E0809350
:1005C0002606089563307105C9F03CF46130710569
:1005D00089F094F4672B61F008956530710591F00E
:1005E0007CF06630710581F06730710551F50EC001
:1005F00081E00DC082E00BC084E009C088E007C044
:1006000080E105C080E203C080E401C080E88093FF
:10061000460608956130710569F01CF4672B41F0BE
:1006200008956230710541F06330710551F406C0E0
:1006300081E005C082E003C084E001C088E08093CF
:1006400066060895CF92DF92EF92FF92CF93DF93E9
:10065000EC016A017B012A853B85442737FD4095E3
:10066000542F60E67AEE80E090E00E94C90DCA0146
:10067000B901A70196010E94C90D2E833F834887C7
:100680005987DF91CF91FF90EF90DF90CF90089541
:100690009F92AF92BF92CF92DF92EF92FF920F9311
:1006A0001F93CF93DF93CDB7DEB72AA93BA94A8D1D
:1006B0005B8D8AA16BA17CA1BDA00EA11FA198A4F6
:1006C000C9A4DAA4ABA4ECA4FDA442305105F9F40A
:1006D0002130310579F01CF4232B49F06BC0223016
:1006E000310569F02330310509F064C00BC00E9468
:1006F000920202C00E940202B8018B2D4EC00E94DD
:10070000020202C00E949202B8018B2D26C0443022
:10071000510509F04FC02130310599F01CF4232B0D
:1007200049F048C02230310529F12330310509F064
:1007300041C027C00E940202B8018B2D0E94920284
:1007400006C00E949202B8018B2D0E940202B601DF
:10075000892D0E940202B7018A2DDF91CF911F914E
:100760000F91FF90EF90DF90CF90BF90AF909F9050
:100770000C9492020E949202B8018B2D0E940202F8
:1007800006C00E940202B8018B2D0E949202B6019F
:10079000892D0E949202B7018A2DDF91CF911F917E
:1007A0000F91FF90EF90DF90CF90BF90AF909F9010
:1007B0000C940202DF91CF911F910F91FF90EF9067
:1007C000DF90CF90BF90AF909F9008957F928F92CF
:1007D0009F92AF92BF92CF92DF92EF92FF920F93D0
:1007E0001F93CF93DF93EC016230710534F081E009
:1007F00090E08A839B835B01D6C0AA24BB24A61AFF
:10080000B70A1A821B82CFC0C8A0D9A0EAA0FBA059
:100810000E811F81288539854091E2205091E32087
:100820006091E4207091E5204C195D096E097F0903
:10083000401751076207730778F34091E220509107
:10084000E3206091E4207091E52048A359A36AA3B6
:100850007BA32A813B818E859F85E881F9812130A8
:100860003105A9F401968E879F87EE0FFF1FEC518B
:10087000FF4D208131812F5F3F4F208331832A85B7
:100880003B8582179307B9F41E861F8614C0892BF7
:1008900021F48A859B858E879F878E859F8501970A
:1008A0008E879F87EE0FFF1FEC51FF4D8081918156
:1008B00001978083918381E0A81AB1088E859F8576
:1008C000B4010E94B50D9F938F938DB79EB7849707
:1008D0008DBF9EBFADB7BEB71196FE01872D0190AB
:1008E0000D928A95E1F70E9448038DB79EB78696D0
:1008F0008DBF9EBF88819981039709F059C02A81D5
:100900003B813195219531092093022030930320BA
:1009100080910E2090910F202130310589F40196AD
:1009200080930E2090930F2020910A2030910B206D
:1009300082179307C1F410920E2010920F2013C05B
:10094000892B41F480910A2090910B2080930E20F6
:1009500090930F2080910E2090910F20019780930B
:100960000E2090930F2080910E2090910F20B401C3
:100970000E94B50D9F938F938DB79EB784978DBFBF
:100980009EBFADB7BEB71196E0E0F0E2872D0190B3
:100990000D928A95E1F70E9448038DB79EB786961F
:1009A0008DBF9EBF05C084E0882E912C94E2792EE5
:1009B0001A141B040CF428CFDF91CF911F910F91D3
:1009C000FF90EF90DF90CF90BF90AF909F908F906F
:1009D0007F900895CF93DF93EC016A837B838E85AC
:1009E0009F8561307105B9F401968E879F87E881F4
:1009F000F981EE0FFF1FEC51FF4D208131812F5FF8
:100A00003F4F208331832A853B8582179307D9F492
:100A10001E861F8618C0672BB1F0892B21F48A85AA
:100A20009B858E879F878E859F8501978E879F8761
:100A3000E881F981EE0FFF1FEC51FF4D808191811C
:100A40000197808391838E859F8564E070E00E948A
:100A5000B50D9F938F938DB79EB784978DBF9EBF23
:100A6000ADB7BEB7119684E2FE0101900D928A9552
:100A7000E1F70E9448038DB79EB786968DBF9EBF53
:100A800088819981039709F058C02A813B8131956B
:100A900021953109209302203093032080910E206C
:100AA00090910F202130310589F4019680930E201A
:100AB00090930F2020910A2030910B2082179307EA
:100AC000E1F410920E2010920F2017C02A813B8172
:100AD000232B99F0892B41F480910A2090910B20CF
:100AE00080930E2090930F2080910E2090910F20E4
:100AF000019780930E2090930F2080910E2090916B
:100B00000F2064E070E00E94B50D9F938F938DB726
:100B10009EB784978DBF9EBFADB7BEB7119684E2D6
:100B2000E0E0F0E201900D928A95E1F70E9448031F
:100B30008DB79EB786968DBF9EBFDF91CF910895EA
:100B4000EF92FF920F931F938093F2209093F320E4
:100B50006093F4207093F5204093F6205093F72093
:100B60002093F8203093F9200093FA201093FB2073
:100B7000E092FC20F092FD201F910F91FF90EF90EA
:100B800008952F923F924F925F926F927F928F9231
:100B90009F92AF92BF92CF92DF92EF92FF920F930C
:100BA0001F93CF93DF93CDB7DEB76697CDBFDEBF80
:100BB0006090F2207090F3208091E6209091E720E1
:100BC000681A790A69827A822091F4203091F5209E
:100BD0008091E8209091E920281B390B2D873E87D2
:100BE0002B833C838091F6209091F7208F87988B00
:100BF0008091EA209091EB20AF85B889A81BB90BB2
:100C0000AF87B88BAD83BE832091F8203091F92057
:100C10008091EC209091ED20281B390B298B3A8B89
:100C20002F8338872090FA203090FB208091EE208F
:100C30009091EF20281A390A29863A860091FC20E3
:100C40001091FD208091F0209091F120081B190B4C
:100C50000B871C87FE013396BE01635F7F4FC30184
:100C6000B081A18132962B2F3A2F37FF03C03195E7
:100C700021953109AC0197FF04C044275527481B33
:100C8000590B4217530714F48B2F9A2FE617F707C7
:100C900039F7BC01882777FD8095982F0E948E0B2D
:100CA0006B017C012091BE203091BF20442737FD8D
:100CB0004095542F60E6862E6AEE962EA12CB12C1C
:100CC000C501B4010E94C90D2B8B3C8B4D8B5E8BF3
:100CD000B301882777FD8095982F0E948E0BA7017E
:100CE00096010E94EB0A20E030E04CE052E40E94C2
:100CF000060A0E94EA0B9B01442737FD4095542FBA
:100D00006B897C898D899E890E94C90D2093BA20A8
:100D10003093BB204093BC205093BD2020919A205B
:100D200030919B20442737FD4095542FC501B401D5
:100D30000E94C90D29013A01AD85BE85BD018827F4
:100D400077FD8095982F0E948E0BA70196010E9437
:100D5000EB0A20E030E04CE052E40E94060A0E94D8
:100D6000EA0B9B01442737FD4095542FC301B20184
:100D70000E94C90D2093962030939720409398208D
:100D8000509399202091762030917720442737FD89
:100D90004095542FC501B4010E94C90D29013A01A3
:100DA0002F853889B901882777FD8095982F0E9473
:100DB0008E0BA70196010E94EB0A20E030E04CE088
:100DC00052E40E94060A0E94EA0B9B01442737FD69
:100DD0004095542FC301B2010E94C90D2093722087
:100DE00030937320409374205093752020912E20CF
:100DF00030912F20442737FD4095542FC501B40171
:100E00000E94C90D29013A01A989BA89BD01882723
:100E100077FD8095982F0E948E0BA70196010E9466
:100E2000EB0A20E030E04CE052E40E94060A0E9407
:100E3000EA0B9B01442737FD4095542FC301B201B3
:100E40000E94C90D20932A2030932B2040932C2000
:100E500050932D202091522030915320442737FD6C
:100E60004095542FC501B4010E94C90D29013A01D2
:100E7000B101882777FD8095982F0E948E0BA701DE
:100E800096010E94EB0A20E030E04CE052E40E9420
:100E9000060A0E94EA0B9B01442737FD4095542F18
:100EA000C301B2010E94C90D20934E2030934F2000
:100EB000409350205093512020910A2030910B20D4
:100EC000442737FD4095542FC501B4010E94C90D38
:100ED00049015A01B801882777FD8095982F0E9413
:100EE0008E0BA70196010E94EB0A20E030E04CE057
:100EF00052E40E94060A0E94EA0B9B01442737FD38
:100F00004095542FC501B4010E94C90D20930620BD
:100F1000309307204093082050930920A2C181916B
:100F20009191D9014D915D919D01841B950BDB0140
:100F30008D939D93BD01B0E2EE3FFB0781F7809159
:100F4000E2209091E320A091E420B091E52040912F
:100F5000D4205091D5206091D6207091D720841B49
:100F6000950BA60BB70B4091BA205091BB20609116
:100F7000BC207091BD2084179507A607B70710F114
:100F80008091E2209091E320A091E420B091E520AF
:100F90008093D4209093D520A093D620B093D720CF
:100FA00089819A8197FD08C061E070E018161906E2
:100FB0002CF060E070E002C06FEF7FEF84EB90E216
:100FC0000E94EA048091E2209091E320A091E42025
:100FD000B091E5204091B0205091B1206091B220B5
:100FE0007091B320841B950BA60BB70B40919620F4
:100FF00050919720609198207091992084179507BF
:10100000A607B70710F18091E2209091E320A0910C
:10101000E420B091E5208093B0209093B120A0937C
:10102000B220B093B3208B819C8197FD08C061E012
:1010300070E0181619062CF060E070E002C06FEF47
:101040007FEF80E990E20E94EA048091E220909193
:10105000E320A091E420B091E52040918C205091B4
:101060008D2060918E2070918F20841B950BA60B94
:10107000B70B409172205091732060917420709151
:10108000752084179507A607B70710F18091E22015
:101090009091E320A091E420B091E52080938C20F2
:1010A00090938D20A0938E20B0938F208D819E8170
:1010B00097FD08C061E070E0181619062CF060E09A
:1010C00070E002C06FEF7FEF8CE690E20E94EA04CE
:1010D0008091E2209091E320A091E420B091E5205E
:1010E00040914420509145206091462070914720C6
:1010F000841B950BA60BB70B40912A2050912B20F7
:1011000060912C2070912D2084179507A607B707B2
:1011100010F18091E2209091E320A091E420B09121
:10112000E5208093442090934520A0934620B093DF
:1011300047208F81988597FD08C061E070E0181600
:1011400019062CF060E070E002C06FEF7FEF84E2E0
:1011500090E20E94EA048091E2209091E320A09125
:10116000E420B091E5204091682050916920609181
:101170006A2070916B20841B950BA60BB70B4091D6
:101180004E2050914F206091502070915120841733
:101190009507A607B70710F18091E2209091E32010
:1011A000A091E420B091E52080936820909369207D
:1011B000A0936A20B0936B2089859A8597FD08C01B
:1011C00061E070E0181619062CF060E070E002C0D3
:1011D0006FEF7FEF88E490E20E94EA048091E220C2
:1011E0009091E320A091E420B091E520409120204F
:1011F000509121206091222070912320841B950B17
:10120000A60BB70B40910620509107206091082053
:101210007091092084179507A607B70710F18091F0
:10122000E2209091E320A091E420B091E52080930A
:10123000202090932120A0932220B09323208B85FF
:101240009C8597FD08C061E070E0181619062CF027
:1012500060E070E002C06FEF7FEF80E090E20E94FC
:10126000EA0462EF70E286EE90E20E948301892B2D
:1012700041F4E2EFF0E226EE30E2BE016F5F7F4F15
:101280004ECE6696CDBFDEBFDF91CF911F910F91FD
:10129000FF90EF90DF90CF90BF90AF909F908F9096
:1012A0007F906F905F904F903F902F900895809126
:1012B000FE209091FF20049724F01092FE201092BF
:1012C000FF208091FE209091FF20009709F40FC02D
:1012D0008130910549F48CE599EF8093F220909349
:1012E000F32080E79EEF0BC082309105C9F48EEAAF
:1012F0009CEF8093F2209093F32088E39FEF8093FC
:10130000F4209093F5208093F6209093F72080931B
:10131000F8209093F9208093FA209093FB2016C038
:101320000397C1F41092F2201092F3201092F4204F
:101330001092F5201092F6201092F7201092F820CB
:101340001092F9201092FA201092FB201092FC20AB
:101350001092FD200895C2E0D0E003E010E08091FB
:10136000D8209091D920009709F44FC08130910581
:1013700039F5809168061092E6201092E72080915E
:1013800068061092E8201092E9201092EA2010924C
:10139000EB20809188061092EC201092ED20809135
:1013A00088061092EE201092EF208091880610920D
:1013B000F0201092F120C093D820D093D920CFCF25
:1013C0008230910539F40E9457090093D820109378
:1013D000D920C5CF039719F662EF70E286EE90E24E
:1013E0000E948301892B19F40E94C105B8CFC093D4
:1013F000D820D093D9208091FE209091FF20019693
:101400008093FE209093FF20AACFFFCFA0E2B0E010
:10141000ECE0FAE00C941D0E6D8F7E8F8F8F98A3F9
:10142000298F3A8F4B8F5C8FBE016F5E7F4FCE014D
:101430004D960E94FA0CBE01675F7F4FCE01499620
:101440000E94FA0C9989923008F412C08985823082
:1014500008F41AC0943021F4823009F4B4C008C0F2
:10146000843021F4923009F4AEC00EC0923051F4B1
:1014700081E02A899A85291301C080E08A8BCE01F8
:101480004196A3C0823051F481E02A899A852913BC
:1014900001C080E08A87CE01099697C08D889E881A
:1014A000AF88B88C0D851E852F853889E0E2F0E085
:1014B00080E090E0DC01C12CD12C760140E050E0CE
:1014C000BA0180FE18C0400F511F621F731F8C0DA0
:1014D0009D1DAE1DBF1D412C512C32014394401760
:1014E00051076207730718F0412C512C3201840D0B
:1014F000951DA61DB71DCC0CDD1CEE1CFF1C37FF77
:1015000002C06894C0F8000F111F221F331FB69449
:10151000A794979487943197A1F62B893C89EB8502
:10152000FC852E0F3F1F2E5F3F4F2B833C8321E016
:10153000EA893A85E31301C020E02A83EB81FC812C
:101540000CC080FF05C076956795579547957068E4
:10155000B695A795979587953196B7FDF2CF9F01E0
:101560000CC0880F991FAA1FBB1F77FD8160440F15
:10157000551F661F771F215031090097A105E0E430
:10158000BE0778F32B833C838C019D010F771127D5
:1015900022273327003411052105310559F487FD31
:1015A00009C0452B462B472B29F0805C9F4FAF4F3E
:1015B000BF4F80788D839E83AF83B88783E0898314
:1015C000CE01019602C08AED90E20E94390CA096ED
:1015D000E0E10C94360EA8E1B0E0E1EFFAE00C9403
:1015E000250E6D8B7E8B8F8B988F298B3A8B4B8B37
:1015F0005C8BBE01675F7F4FCE0145960E94FA0C5F
:10160000BE016F5F7F4FCE0141960E94FA0C998513
:10161000923008F475C08981823008F474C02A853C
:101620003A8123272A87943011F0923019F49813C5
:1016300067C06CC0843039F41D861E861F86188AE8
:101640001B861C8604C0823029F484E08987CE0181
:1016500009965EC08B859C852B813C81821B930BF8
:101660008B879C874D855E856F857889CD80DE80F0
:10167000EF80F8844C155D056E057F0538F4440F46
:10168000551F661F771F01978B879C87EFE1F0E05E
:1016900000E010E020E030E480E090E0DC014C1558
:1016A0005D056E057F0540F0802B912BA22BB32B9F
:1016B0004C195D096E097F09369527951795079591
:1016C000440F551F661F771F319749F78C019D0105
:1016D0000F77112722273327003411052105310503
:1016E00059F487FD09C0452B462B472B29F0805C18
:1016F0009F4FAF4FBF4F80788D879E87AF87B88B46
:10170000CE01099605C0CE01019602C08AED90E295
:101710000E94390C6896E8E00C943E0EA8E0B0E018
:10172000E4E9FBE00C94290E23E029838B019C0162
:10173000002737FD0395112722273327402F0A83DF
:10174000611571058105910519F482E0898335C021
:101750002EE130E02B833C83442371F06115710549
:10176000810520E8920771F1002711279801061BD7
:10177000170B280B390B02C08B019C01C901B80162
:101780000E944C0E0197181619062CF00D831E832B
:101790002F83388712C0082E04C0000F111F221F8C
:1017A000331F0A94D2F70D831E832F8338872EE1CF
:1017B00030E0281B390B2B833C83CE0101960E941D
:1017C000390C04C060E070E080E09FEC2896E4E013
:1017D0000C94420EACE0B0E0E0EFFBE00C94290E7C
:1017E00069877A878B879C87BE016F5F7F4FCE01A9
:1017F00009960E94FA0C8981823091F1823080F141
:10180000843041F48A81882331F100E010E020E047
:1018100030E829C02B813C8137FD22C02F313105B2
:101820008CF78EE190E0821B930B0D811E812F813E
:10183000388504C036952795179507958A95D2F770
:101840008A81882381F030952095109501951F4F4E
:101850002F4F3F4F08C00FEF1FEF2FEF3FE703C0A1
:1018600000E010E09801B801C9012C96E4E00C9466
:10187000420E0F931F93CF93FC01448155816681E3
:101880007781C1818081823020F460618FEF90E0A8
:10189000A3C0843009F49BC0823009F492C0411582
:1018A00051056105710509F48FC022813381223809
:1018B0008FEF38070CF057C0E2E8FFEFE21BF30BA5
:1018C000EA31F10564F58A019B010E2E04C03695BC
:1018D0002795179507950A94D2F781E090E0A0E04C
:1018E000B0E004C0880F991FAA1FBB1FEA95D2F76A
:1018F0000197A109B10984239523A623B72341E0C9
:1019000050E060E070E0892B8A2B8B2B19F440E0CB
:1019100050E0BA01402B512B622B732B03C040E0E7
:1019200050E0BA01DB01CA018F779927AA27BB27AC
:1019300080349105A105B10539F447FF09C0405C29
:101940005F4F6F4F7F4F04C0415C5F4F6F4F7F4FC2
:1019500081E090E041155105610520E4720748F5EA
:1019600080E090E026C0203831058CF5DB01CA010B
:101970008F779927AA27BB2780349105A105B10548
:1019800039F447FF09C0405C5F4F6F4F7F4F04C081
:10199000415C5F4F6F4F7F4F77FD04C0C901815895
:1019A0009F4F07C07695679557954795C901805811
:1019B0009F4F97E076956795579547959A95D1F7FC
:1019C0000BC080E090E005C080E090E005C08FEFA4
:1019D00090E040E050E0BA01982F9695C0FB97F94F
:1019E000362F80FB37F9642F752F832FCF911F91EE
:1019F0000F910895CF92DF92EF92DC01FB01CC9022
:101A00001196DC90119712968C9112973FE7E32E76
:101A1000E8226E2DA60170E0982F991F9927991F33
:101A200013962C91822F880F892B90E027FB222779
:101A300020F92183009729F54115510561057105AC
:101A400011F482E027C082E89FEF8283938327E02E
:101A5000440F551F661F771F2A95D1F783E08083B7
:101A600009C0440F551F661F771F8281938101971C
:101A70008283938341155105610580E4780788F3DB
:101A800020C08F3F910579F441155105610571051D
:101A900019F484E0808319C0E4FE03C081E08083F0
:101AA00010C010820EC08F5791098283938383E008
:101AB000808387E0440F551F661F771F8A95D1F7F3
:101AC00070644483558366837783EF90DF90CF9073
:101AD00008950E94CE01E0E8F6E081818160818373
:101AE000A0E0B8E080EA9FE096968D939C9397974C
:101AF0008C91807F84608C9316968C91169783606E
:101B000016968C93A0EAB0E012968C91129784609E
:101B100012968C937894A0E0B6E011968C91119770
:101B20008FEF11968C93A0E2B6E011969C911197DD
:101B300011968C93A0E4B6E011969C9111971196A2
:101B40008C93A0E6B6E011968C9111978F60119658
:101B50008C93119788E154968C93549755968C9357
:101B6000818B828B838B0E94AB0997FB072E16F427
:101B7000009407D077FD09D00E94E50D07FC05D041
:101B80003EF4909581959F4F0895709561957F4F94
:101B90000895052E97FB16F4009407D057FD0DD03D
:101BA0000E94F90D07FC09D07EF490958095709500
:101BB00061957F4F8F4F9F4F089550954095309579
:101BC00021953F4F4F4F5F4F0895AA1BBB1B51E11B
:101BD00007C0AA1FBB1FA617B70710F0A61BB70B9D
:101BE000881F991F5A95A9F780959095BC01CD0142
:101BF0000895A1E21A2EAA1BBB1BFD010DC0AA1F4E
:101C0000BB1FEE1FFF1FA217B307E407F50720F065
:101C1000A21BB30BE40BF50B661F771F881F991FE0
:101C20001A9469F760957095809590959B01AC0129
:101C3000BD01CF0108952F923F924F925F926F9214
:101C40007F928F929F92AF92BF92CF92DF92EF924C
:101C5000FF920F931F93CF93DF93CDB7DEB7CA1BCD
:101C6000DB0BCDBFDEBF09942A88398848885F84A2
:101C70006E847D848C849B84AA84B984C884DF802C
:101C8000EE80FD800C811B81AA81B981CE0FD11D10
:101C9000CDBFDEBFED0108950E94550E84FF08956B
:101CA000CB010E94550E805F0895AA27992329F43D
:101CB000A85F982B11F480E10895903118F4AD5F7E
:101CC0009295A395990FE8F78A2F99270895F8948C
:021CD000FFCF44
:101CD2000600010028000A000000C80004000000FD
:101CE20000002003440000440100440200440300B9
:101CF200000000000400010028000A000000C800E3
:101D020004000000C80038FF430000430100430202
:101D120000430300000000000500010028000A0043
:101D22000000C8000400000038FFC800430400435C
:101D32000500430600430700000000000300010005
:101D420028000A000000C800040000000000AA05E4
:101D52004200004201004202004203000000000073
:101D62000200010028000A000000C8000400000070
:101D7200000056FA410400410500410600410700F7
:101D8200000000000100010028000A000000C80055
:101D920004000000AEFC5203410000410100410278
:101DA20000410300000000000100000000000000EC
:021DB20000002F
:00000001FF
