:100000000C94BC000C94DD000C94DD000C94DD001D
:100010000C94DD000C94DD000C94DD000C94DD00EC
:100020000C94DD000C94DD000C94DD000C94DD00DC
:100030000C94DD000C94DD000C94DD000C94DD00CC
:100040000C94DD000C94DD000C94DD000C94DD00BC
:100050000C94DD000C94DD000C94DD000C94DD00AC
:100060000C94DD000C94DD000C94DD000C94DD009C
:100070000C94DD000C94DD000C94DD000C94DD008C
:100080000C94DD000C94DD000C94DD000C94DD007C
:100090000C94DD000C94DD000C94DD000C94DD006C
:1000A0000C94DD000C94DD000C94DD000C94DD005C
:1000B0000C94DD000C94DD000C94DD000C94DD004C
:1000C0000C94DD000C94DD000C94DD000C94DD003C
:1000D0000C94DD000C94DD000C94DD000C94DD002C
:1000E0000C94DD000C94DD000C94DD000C94DD001C
:1000F0000C94DD000C94DD000C94DD000C94DD000C
:100100000C94DD000C94DD000C94DD000C94DD00FB
:100110000C94DD000C94DD000C94DD000C94DD00EB
:100120000C94DD000C94DD000C94DD000C94DD00DB
:100130000C94DD000C94DD000C94DD000C94DD00CB
:100140000C94DD000C94DD000C94DD000C94DD00BB
:100150000C94DD000C94DD000C94DD000C94DD00AB
:100160000C94DD000C94DD000C94DD000C94DD009B
:100170000C94DD000C94DD0011241FBECFEFDFE2F4
:10018000DEBFCDBF18BE19BE1ABE1BBE10E2A0E076
:10019000B0E2E4E6F2E002C005900D92A030B107B3
:1001A000D9F710E2A0E0B0E201C01D92A030B10783
:1001B000E1F70E9427010C9430010C94000020E02C
:1001C00030E0E0E6F6E0A0E17A2F60E240E553ECB3
:1001D00075836683CA010197F1F776836583CA0147
:1001E0000197F1F72F5F3F4F2A30310589F70895C6
:1001F000FF920F931F93CF93DF93A0E0B0E0E0E670
:10020000F6E000E1F02E10E2C0E1D7E242E350E078
:10021000CA01742F692FF58216839E01CA010197C6
:10022000F1F721503040D1F7F68215839E01CA01C3
:100230000197F1F721503040D1F71196AA30B1055E
:1002400051F7DF91CF911F910F91FF900895E0E654
:10025000F6E080E1818380E281830E94F800FFCF95
:04026000F894FFCF40
:00000001FF
