:100000000C94BC000C94DD000C94DD000C94DD001D
:100010000C94DD000C94DD000C94DD000C94DD00EC
:100020000C94DD000C94DD000C94DD000C94DD00DC
:100030000C94DD000C94DD000C94DD000C94DD00CC
:100040000C94DD000C94DD000C94DD000C94DD00BC
:100050000C94DD000C94DD000C94DD000C94DD00AC
:100060000C94DD000C94DD000C94DD000C94DD009C
:100070000C94DD000C94DD000C94DD000C94DD008C
:100080000C94DD000C94DD000C94DD000C94DD007C
:100090000C94DD000C94DD000C94DD000C94DD006C
:1000A0000C94DD000C94DD000C94DD000C94DD005C
:1000B0000C94DD000C94DD000C94DD000C94DD004C
:1000C0000C94DD000C94DD000C94DD000C94DD003C
:1000D0000C94DD000C94DD000C94DD000C94DD002C
:1000E0000C94DD000C94DD000C94DD000C94DD001C
:1000F0000C94DD000C94DD000C94DD000C94DD000C
:100100000C94DD000C94DD000C94DD000C94DD00FB
:100110000C94DD000C94DD000C94DD000C94DD00EB
:100120000C94DD000C94DD000C94DD000C94DD00DB
:100130000C94DD000C94DD000C94DD000C94DD00CB
:100140000C94DD000C94DD000C94DD000C94DD00BB
:100150000C94DD000C94DD000C94DD000C94DD00AB
:100160000C94DD000C94DD000C94DD000C94DD009B
:100170000C94DD000C94DD0011241FBECFEFDFE2F4
:10018000DEBFCDBF18BE19BE1ABE1BBE10E2A0E076
:10019000B0E2EEE3F2E002C005900D92A030B107AC
:1001A000D9F710E2A0E0B0E201C01D92A030B10783
:1001B000E1F70E9410010C941D010C940000E0E690
:1001C000F6E030E1358320E2268380E593ECDC0124
:1001D0001197F1F7368325830197F1F70895E0E64B
:1001E000F6E080E1858380E2868320E137E242E326
:1001F00050E0CA010197F1F721503040D1F7E0E615
:10020000F6E080E1868380E2858320E137E242E305
:1002100050E0CA010197F1F721503040D1F708951D
:10022000E0E6F6E080E1818380E281830E94DF00E6
:0E0230000E94EF000E94DF00FDCFF894FFCF88
:00000001FF
