:100000000C94DC000C94F9000C94F9000C94F900A9
:100010000C94F9000C94F9000C94F9000C94F9007C
:100020000C94F9000C94F9000C94F9000C94F9006C
:100030000C94F9000C94F9000C9482010C94F900D2
:100040000C94F9000C94F9000C94F9000C94F9004C
:100050000C94F9000C94F9000C94F9000C94F9003C
:100060000C94F9000C94F9000C94F9000C94F9002C
:100070000C94F9000C94F9000C94F9000C94F9001C
:100080000C94F9000C94F9000C94F9000C94F9000C
:100090000C94F9000C94F9000C94F9000C94F900FC
:1000A0000C94F9000C94F9000C94F9000C94F900EC
:1000B0000C94F9000C94F9000C94F9000C94F900DC
:1000C0000C94F9000C94F9000C94F9000C94F900CC
:1000D0000C94F9000C94F9000C94F9000C94F900BC
:1000E0000C94F9000C94F9000C94F9000C94F900AC
:1000F0000C94F9000C94F9000C94F9000C94F9009C
:100100000C94F9000C94F9000C94F9000C94F9008B
:100110000C94F9000C94F9000C94F9000C94F9007B
:100120000C94F9000C94F9000C94F9000C94F9006B
:100130000C94F9000C94F9000C94F9000C94F9005B
:100140000C94F9000C94F9000C94F9000C94F9004B
:100150000C94F9000C94F9000C94F9000C94F9003B
:100160000C94F9000C94F9000C94F9000C94F9002B
:100170000C94F9000C94F900640266026A026C02A5
:100180006E02700272027402960298029A029C0237
:100190009E02A002A202A402D502D702DB02DD0267
:1001A000DF02E102E302E502070309030B030D038B
:1001B0000F0311031303150311241FBECFEFCDBF8F
:1001C000D7E2DEBF11E2A0E0B0E2E4EDFCE102C064
:1001D00005900D92A231B107D9F721E2A2E1B1E277
:1001E00001C01D92AA33B207E1F70E94080C0C94DB
:1001F000680E0C940000CF93C82F8A3019F48DE05C
:100200000E94FB008091B10985FFFCCFC093B0092B
:1002100080E090E0CF9108950F93CF93DF931F92EA
:10022000CDB7DEB72FB72983F8941BBEFC0108EDCC
:1002300004BF608389818FBF0F90DF91CF910F91B1
:100240000895611102C090E001C090E2842B982BC8
:100250009093520008956F71862B809355000895F6
:10026000E0E5F0E09081282F209592239083908103
:1002700089230895682B81E490E00C940C010F937E
:100280001F93CF93C82F00E410E0F8016081687FCE
:10029000682B80E490E00E940C01F80180818C239F
:1002A000CF911F910F910895E0E4F0E09381917F49
:1002B0009160892B8383089520915600382F982FC1
:1002C00090959223611101C030E0932B90935600DA
:1002D000813031F4809168008160809368000895D6
:1002E000823029F4809160008160809360000895DD
:1002F00063E083E590E00C940C0161E082E490E01F
:100300000C940C011F920F920FB60F9211248F9331
:100310009F93AF93BF938091162190911721A09145
:100320001821B09119210196A11DB11D80931621AC
:1003300090931721A0931821B0931921BF91AF91E9
:100340009F918F910F900FBE0F901F9018958091E5
:10035000B10987FFFCCF81E0809386068091B009C8
:1003600090E00895009741F0EFE3FFE13197F1F756
:1003700000C000000197F6CF0895DC01FB012D912C
:100380003C911197808191812817390791F5129638
:100390002D913C911397828193812817390749F554
:1003A00014962D913C9115978481958128173907D2
:1003B00001F516962D913C91179786819781281704
:1003C0003907B9F418962D913C911997808591853C
:1003D0002817390771F421E090E01A966D917C910D
:1003E0001B97428553856417750709F020E0822F1B
:1003F000089580E090E00895AC0197FD08C021E0E9
:1004000090E0141615060CF020E0822F08958FEF6F
:100410009FEF089588ED84BF82E080935000809123
:10042000510081FFFCCF88ED84BF81E080934000C4
:100430000895609116217091172180911821909153
:1004400019210895FF920F931F93CF93DF93EC012F
:1004500000E816E0FF24F394F801F5820E94B2014F
:10046000F801F682CE01DF91CF911F910F91FF909D
:100470000C94B2010F931F93CF93DF938C01C0E0D4
:10048000D0E0C017D10734F482E390E00E9422024A
:100490002196F7CFDF91CF911F910F91089582346C
:1004A00029F118F4813439F008958334B9F1843492
:1004B00009F44EC008956830710508F060C0FB0172
:1004C000E454FF4F0C94590C81E001C082E080930A
:1004D0000506089584E0FBCF88E0F9CF80E1F7CFEF
:1004E00080E2F5CF80E4F3CF80E8F1CF6130710591
:1004F00069F01CF4672B41F008956230710541F0FA
:100500006330710539F0089581E005C082E003C0D1
:1005100084E001C088E08093250608956830710565
:1005200070F5FB01EC53FF4F0C94590C81E00DC0AA
:1005300082E00BC084E009C088E007C080E105C00C
:1005400080E203C080E401C080E8809345060895FE
:100550006130710569F01CF4672B41F00895623039
:10056000710541F06330710539F0089581E005C0EF
:1005700082E003C084E001C088E0809365060895AE
:10058000823429F118F4813439F008958334B9F1B3
:10059000843409F44EC008956830710508F060C0D5
:1005A000FB01E453FF4F0C94590C81E001C082E041
:1005B00080930606089584E0FBCF88E0F9CF80E1C0
:1005C000F7CF80E2F5CF80E4F3CF80E8F1CF613060
:1005D000710569F01CF4672B41F0089562307105D4
:1005E00041F06330710539F0089581E005C082E083
:1005F00003C084E001C088E0809326060895683037
:10060000710570F5FB01EC52FF4F0C94590C81E021
:100610000DC082E00BC084E009C088E007C080E123
:1006200005C080E203C080E401C080E880934606F4
:1006300008956130710569F01CF4672B41F008954D
:100640006230710541F06330710539F0089581E041
:1006500005C082E003C084E001C088E080936606A4
:100660000895CF92DF92EF92FF92CF93DF93EC0148
:100670006A017B012A853B85032E000C440B550B38
:1006800060E67AEE80E090E00E943A0CCA01B9017F
:10069000A70196010E943A0C2E833F834887598711
:1006A000DF91CF91FF90EF90DF90CF9008959F92D0
:1006B000AF92BF92CF92DF92EF92FF920F931F9370
:1006C000CF93DF93CDB7DEB72AA93BA94A8D5B8DC7
:1006D0008AA16BA17CA11DA1EEA0FFA04230510513
:1006E000F1F42130310589F034F4232B09F06EC088
:1006F0000E94C0020CC02230310561F02330310568
:1007000009F064C00E94C00207C00E944F02B701F6
:10071000812F4FC00E944F02B701812F31C044305A
:10072000510509F053C098A4A9A4BAA40BA5CCA460
:10073000DDA421303105C1F054F4232B09F046C06B
:100740000E944F02B701812F0E94C00213C02230C5
:10075000310519F123303105C9F50E944F02B70167
:10076000812F0E94C0021FC00E94C002B701812FCA
:100770000E944F02B501892D0E944F02B601802FC1
:10078000DF91CF911F910F91FF90EF90DF90CF906D
:10079000BF90AF909F900C94C0020E94C002B7011E
:1007A000812F0E944F02B501892D0E94C002B6011F
:1007B000802FDF91CF911F910F91FF90EF90DF90ED
:1007C000CF90BF90AF909F900C944F02DF91CF914C
:1007D0001F910F91FF90EF90DF90CF90BF90AF905F
:1007E0009F900895EF92FF920F931F93CF93DF9303
:1007F000EC018B016230710544F081E090E08A8366
:100800009B8334E0E32EF12C1FC011950195110953
:100810001A821B82F6CF8091162190911721A09108
:100820001821B091192148A159A16AA17BA1841B6B
:10083000950BA60BB70B4E815F8168857985841770
:100840009507A607B70720F41016110624F3B5C0C4
:100850008091162190911721A0911821B091192112
:1008600088A399A3AAA3BBA32A813B818E859F85D8
:10087000E881F98121303105A9F401968E879F879F
:10088000EE0FFF1FE85EFE4D208131812F5F3F4F4D
:10089000208331832A853B8582179307B9F41E860E
:1008A0001F8614C0892B21F48A859B858E879F879C
:1008B0008E859F8501978E879F87EE0FFF1FE85ECD
:1008C000FE4D8081918101978083918301501109B0
:1008D0008E859F85B7010E94260C9F938F938DB7BD
:1008E0009EB784978DBF9EBFADB7BEB7119684E209
:1008F000FE0101900D928A95E1F70E9457038DB792
:100900009EB786968DBF9EBF88819981039709F017
:100910009BCF2A813B81319521953109209302207B
:100920003093032080910E2090910F2021303105CB
:1009300089F4019680930E2090930F2020910A2035
:1009400030910B2082179307C1F410920E20109261
:100950000F2013C0892B41F480910A2090910B2025
:1009600080930E2090930F2080910E2090910F2065
:10097000019780930E2090930F2080910E209091EC
:100980000F20B7010E94260C9F938F938DB79EB7BF
:1009900084978DBF9EBFADB7BEB7119684E2E0E0ED
:1009A000F0E201900D928A95E1F70E9457038DB70E
:1009B0009EB786968DBF9EBF47CFDF91CF911F9187
:1009C0000F91FF90EF900895CF93DF93EC016A832E
:1009D0007B838E859F8561307105B9F401968E8782
:1009E0009F87E881F981EE0FFF1FE85EFE4D2081B1
:1009F00031812F5F3F4F208331832A853B858217CA
:100A00009307D9F41E861F8618C0672BB1F0892B77
:100A100021F48A859B858E879F878E859F85019788
:100A20008E879F87E881F981EE0FFF1FE85EFE4DFC
:100A3000808191810197808391838E859F8564E079
:100A400070E00E94260C9F938F938DB79EB784977A
:100A50008DBF9EBFADB7BEB7119684E2FE01019077
:100A60000D928A95E1F70E9457038DB79EB786963F
:100A70008DBF9EBF88819981039709F058C02A8154
:100A80003B81319521953109209302203093032039
:100A900080910E2090910F202130310589F401962C
:100AA00080930E2090930F2020910A2030910B20EC
:100AB00082179307E1F410920E2010920F2017C0B6
:100AC0002A813B81232B99F0892B41F480910A20C4
:100AD00090910B2080930E2090930F2080910E20F8
:100AE00090910F20019780930E2090930F2080917A
:100AF0000E2090910F2064E070E00E94260C9F93DE
:100B00008F938DB79EB784978DBF9EBFADB7BEB78D
:100B1000119684E2E0E0F0E201900D928A95E1F70F
:100B20000E9457038DB79EB786968DBF9EBFDF91FB
:100B3000CF910895EF92FF920F931F93E6E2F1E2B7
:100B400080839183628373834483558326833783B1
:100B500000871187E286F3861F910F91FF90EF9037
:100B600008952F923F924F925F926F927F928F9251
:100B70009F92AF92BF92CF92DF92EF92FF920F932C
:100B80001F93CF93DF93CDB7DEB76897CDBFDEBF9E
:100B9000009126211091272180911A2190911B21EB
:100BA000081B190B09831A832090282130902921D2
:100BB00080911C2190911D21281A390A2B823C8298
:100BC00060912A2170912B2180911E2190911F21EB
:100BD0009B01281B390B2D873E872D833E83609117
:100BE0002C2170912D218091202190912121AB0108
:100BF000481B590B4F87588B4F83588760912E2184
:100C000070912F218091222190912321DB01A81B3B
:100C1000B90BA98BBA8BA987BA87609130217091E3
:100C2000312180912421909125219B01281B390B92
:100C30002B8B3C8B2B873C87FE013396BE01635F79
:100C40007F4F580181919191AC0197FF04C04427D7
:100C50005527481B590B9501B7FE04C0222733279F
:100C60002A193B09241735070CF45C016E177F071E
:100C700049F76091E6207091E720072E000C880B61
:100C8000990B0E943F0D6B017C01B501BB0C880BD9
:100C9000990B0E943F0D4B015C012091BE203091C9
:100CA000BF20032E000C440B550B60E67AEE80E06B
:100CB00090E00E943A0C29013A01B801110F880B0B
:100CC000990B0E943F0DA50194010E94950CA7016C
:100CD00096010E94CB0D0E94070D9B0177FF04C077
:100CE00022273327261B370B032E000C440B550BF2
:100CF000C301B2010E943A0C2D8B3E8B4F8B588F53
:100D00002093BA203093BB204093BC205093BD2049
:100D100020919A2030919B20032E000C440B550B00
:100D200060E67AEE80E090E00E943A0C29013A01F8
:100D3000B101330C880B990B0E943F0DA501940162
:100D40000E94950CA70196010E94CB0D0E94070DF1
:100D50009B0177FF04C022273327261B370B032E66
:100D6000000C440B550BC301B2010E943A0C2093B6
:100D7000962030939720409398205093992020916B
:100D8000762030917720032E000C440B550B60E643
:100D90007AEE80E090E00E943A0C29013A014D85FC
:100DA0005E85BA01550F880B990B0E943F0DA50176
:100DB00094010E94950CA70196010E94CB0D0E9400
:100DC000070D9B0177FF04C022273327261B370B13
:100DD000032E000C440B550BC301B2010E943A0CC8
:100DE0002093722030937320409374205093752089
:100DF00020912E2030912F20032E000C440B550BF8
:100E000060E67AEE80E090E00E943A0C29013A0117
:100E1000AF85B889BD01BB0F880B990B0E943F0DB0
:100E2000A50194010E94950CA70196010E94CB0D8B
:100E30000E94070D9B0177FF04C022273327261B42
:100E4000370B032E000C440B550BC301B2010E945B
:100E50003A0C20932A2030932B2040932C2050933F
:100E60002D202091522030915320032E000C440B52
:100E7000550B60E67AEE80E090E00E943A0C290182
:100E80003A0129893A89B901330F880B990B0E94DD
:100E90003F0DA50194010E94950CA70196010E94A7
:100EA000CB0D0E94070D9B0177FF04C0222733273B
:100EB000261B370B032E000C440B550BC301B2014C
:100EC0000E943A0C20934E2030934F2040935020A4
:100ED0005093512020910A2030910B20032E000CBA
:100EE000440B550B60E67AEE80E090E00E943A0CED
:100EF00029013A014B895C89BA01550F880B990B7E
:100F00000E943F0DA50194010E94950CA701960136
:100F10000E94CB0D0E94070D9B0177FF04C0222782
:100F20003327261B370B032E000C440B550BC30134
:100F3000B2010E943A0C2093062030930720409380
:100F4000082050930920E6E2F1E22AE131E28E0125
:100F50000F5F1F4F42E351E281919191D9016D9151
:100F60007D919D01861B970BD8018D939D938D01DB
:100F70004E175F0789F78091162190911721A09154
:100F80001821B09119214091D4205091D520609121
:100F9000D6207091D720841B950BA60BB70B2D89FB
:100FA0003E894F89588D82179307A407B50708F12A
:100FB0008091162190911721A0911821B0911921AB
:100FC0008093D4209093D520A093D620B093D7209F
:100FD00089819A8197FD07C061E070E018161906B3
:100FE00024F060E002C06FEF7FEF84EB90E20E949C
:100FF000E4048091162190911721A0911821B091BD
:1010000019214091B0205091B1206091B22070918F
:10101000B320841B950BA60BB70B409196205091E3
:101020009720609198207091992084179507A607C2
:10103000B70708F18091162190911721A0911821EE
:10104000B09119218093B0209093B120A093B22049
:10105000B093B3208B819C8197FD07C061E070E065
:101060001816190624F060E002C06FEF7FEF80E9E8
:1010700090E20E94E4048091162190911721A091A2
:101080001821B091192140918C2050918D206091B0
:101090008E2070918F20841B950BA60BB70B40916F
:1010A0007220509173206091742070917520841784
:1010B0009507A607B70708F180911621909117218F
:1010C000A0911821B091192180938C2090938D20AC
:1010D000A0938E20B0938F208D819E8197FD07C0B5
:1010E00061E070E01816190624F060E002C06FEFAE
:1010F0007FEF8CE690E20E94E404809116219091AB
:101100001721A0911821B0911921409144205091AC
:1011100045206091462070914720841B950BA60BBB
:10112000B70B40912A2050912B2060912C20709178
:101130002D2084179507A607B70708F1809116217F
:1011400090911721A0911821B091192180934420EA
:1011500090934520A0934620B09347208F81988597
:1011600097FD07C061E070E01816190624F060E0F2
:1011700002C06FEF7FEF84E290E20E94E40480916E
:10118000162190911721A0911821B0911921409119
:1011900068205091692060916A2070916B20841BB7
:1011A000950BA60BB70B40914E2050914F206091AC
:1011B00050207091512084179507A607B70708F1B2
:1011C0008091162190911721A0911821B091192199
:1011D0008093682090936920A0936A20B0936B203D
:1011E00089859A8597FD07C061E070E01816190699
:1011F00024F060E002C06FEF7FEF88E490E20E948D
:10120000E4048091162190911721A0911821B091AA
:10121000192140912020509121206091222070912D
:101220002320841B950BA60BB70B409106205091F1
:101230000720609108207091092084179507A60760
:10124000B707B0F18091162190911721A091182134
:10125000B09119218093202090932120A0932220E7
:10126000B09323208B859C8597FD07C061E070E0DB
:101270001816190624F060E002C06FEF7FEF80E0DF
:1012800090E26896CDBFDEBFDF91CF911F910F91A5
:10129000FF90EF90DF90CF90BF90AF909F908F9096
:1012A0007F906F905F904F903F902F900C94E4044C
:1012B0006896CDBFDEBFDF91CF911F910F91FF9058
:1012C000EF90DF90CF90BF90AF909F908F907F90E6
:1012D0006F905F904F903F902F90089580913221B2
:1012E00090913321049724F01092322110923321EF
:1012F0008091322190913321009779F081309105CE
:1013000049F48CE599EF809326219093272180E77B
:101310009EEF0BC082309105C9F48EEA9CEF80935A
:1013200026219093272188E39FEF80932821909393
:10133000292180932A2190932B2180932C21909313
:101340002D2180932E2190932F2116C00397C1F455
:1013500010922621109227211092282110922921E3
:1013600010922A2110922B2110922C2110922D21C3
:1013700010922E2110922F211092302110923121A3
:101380000895C2E0D0E003E010E020E6822E2AEECD
:10139000922EA12CB12C8091E8209091E920009709
:1013A000F1F38130910509F039C1C090E620D09069
:1013B000E720D7FE03C08FEFC81AD80AD594C79488
:1013C0000D2C000CEE08FF082091BE203091BF20AC
:1013D000032E000C440B550BC501B4010E943A0CBE
:1013E000CA01B901A70196010E943A0C2093BA20C4
:1013F0003093BB204093BC205093BD2020919A2075
:1014000030919B20032E000C440B550BC501B401F9
:101410000E943A0CCA01B901A70196010E943A0C38
:1014200020939620309397204093982050939920B2
:101430002091762030917720032E000C440B550B21
:10144000C501B4010E943A0CCA01B901A701960175
:101450000E943A0C209372203093732040937420A2
:101460005093752020912E2030912F20032E000CB8
:10147000440B550BC501B4010E943A0CCA01B901D5
:10148000A70196010E943A0C20932A2030932B202A
:1014900040932C2050932D202091522030915320A6
:1014A000032E000C440B550BC501B4010E943A0CED
:1014B000CA01B901A70196010E943A0C20934E205F
:1014C00030934F20409350205093512020910A2078
:1014D00030910B20032E000C440B550BC501B401B9
:1014E0000E943A0CCA01B901A70196010E943A0C68
:1014F0002093062030930720409308205093092022
:101500008091680610921A2110921B218091680622
:1015100010921C2110921D218091880610921E218C
:1015200010921F212091680681E090E0322F3071E7
:1015300024FF02C080E090E0809314219093152155
:1015400031111BC08091122190911321892B09F038
:1015500054C08FE0E82EF12C809106209091072056
:101560000E94B20161E070E080E090E20E94E40439
:1015700081E0E81AF10881F740C08091162190912E
:101580001721A0911821B09119214091202050914C
:1015900021206091222070912320841B950BA60BA3
:1015A000B70B409106205091072060910820709160
:1015B000092084179507A607B707B0F08091162178
:1015C00090911721A0911821B0911921809320208A
:1015D00090932120A0932220B093232061E070E01B
:1015E00080E090E20E94E404809114219091152102
:1015F000809312219093132195CF10922421109261
:10160000252180918806109220211092212110928C
:101610002221109223218AEE90E227C08230910588
:10162000A1F40E946E0966E271E28AE191E20E94F1
:10163000BD01892B09F0AFCE0093E8201093E9207B
:1016400080EF90E20E94380EA6CE039709F0A3CE59
:1016500066E271E28AE191E20E94BD01892B19F4F0
:101660000E94B10598CE87EF90E20E94380EC09399
:10167000E820D093E9208FCEBF92CF92DF92EF92F5
:10168000FF920F931F93CF93DF93CDB7DEB72E97C3
:10169000CDBFDEBF80E091E20E94380EFE013196A0
:1016A0008EE0DF011D928A95E9F78F016E01BFE0A0
:1016B000CB0ED11C2AE0B22EEE24E394F12C0E9432
:1016C000A7018C329105D9F08A309105C1F08D3295
:1016D000910521F4EE24EA94FE2CF1CF803391059C
:1016E00074F3F80140815181B49E9001B59E300D94
:1016F0001124C097820F931F80839183E0CFD8017C
:101700002D913C912E9DC0012F9D900D3E9D900DE1
:101710001124F801819391938F01EC15FD0561F679
:101720008B859C8529853A854F8158856D817E8181
:10173000EB81FC81A981BA81A0932621B093272156
:10174000E0932821F093292160932A2170932B2183
:1017500040932C2150932D2120932E2130932F2123
:1017600080933021909331218D859E858093E62052
:101770009093E7202E96CDBFDEBFDF91CF911F91D2
:101780000F91FF90EF90DF90CF90BF9008950E944F
:101790000A02E0E0F8E080EA9FE086A397A3808158
:1017A000807F84608083868183608683E0EAF0E0C6
:1017B0008281846082837894E0E0F6E081818FEF1B
:1017C0008183E0E2F6E091818183E0E4F6E09181BB
:1017D0008183E0E6F6E081818F60818388E1848BFC
:1017E000858BA0E8B6E051968C93519752968C93D6
:1017F000529753968C9390E895839183E0EBF9E0B0
:10180000178293E39683138293E0958384830895EC
:101810000E94C70B88ED90E2809336219093372188
:1018200086E091E20E94380E8091680682958F7062
:1018300091E08927817090E0809314219093152185
:1018400080931221909313210E94C10997FB072EC8
:1018500016F4009407D077FD09D00E945F0C07FCB6
:1018600005D03EF4909581959F4F089570956195B0
:101870007F4F0895052E97FB1EF400940E94510C93
:1018800057FD07D00E94730C07FC03D04EF40C9454
:10189000510C50954095309521953F4F4F4F5F4FDC
:1018A000089590958095709561957F4F8F4F9F4FCC
:1018B0000895EE0FFF1F0590F491E02D0994AA1BE7
:1018C000BB1B51E107C0AA1FBB1FA617B70710F02B
:1018D000A61BB70B881F991F5A95A9F7809590955D
:1018E000BC01CD010895A1E21A2EAA1BBB1BFD016C
:1018F0000DC0AA1FBB1FEE1FFF1FA217B307E407EF
:10190000F50720F0A21BB30BE40BF50B661F771F46
:10191000881F991F1A9469F7609570958095909526
:101920009B01AC01BD01CF0108950E94A90C0C944C
:10193000910D0E948A0D58F00E94830D40F029F409
:101940005F3F29F00C947A0D51110C94C50D0C9445
:10195000800D0E94A20D68F39923B1F3552391F3F2
:10196000951B550BBB27AA2762177307840738F00E
:101970009F5F5F4F220F331F441FAA1FA9F335D06B
:101980000E2E3AF0E0E832D091505040E695001C1F
:10199000CAF72BD0FE2F29D0660F771F881FBB1FD9
:1019A000261737074807AB07B0E809F0BB0B802DB7
:1019B000BF01FF2793585F4F3AF09E3F510578F0E3
:1019C0000C947A0D0C94C50D5F3FE4F3983ED4F36C
:1019D000869577956795B795F7959F5FC9F7880FB7
:1019E000911D9695879597F90895E1E0660F771F09
:1019F000881FBB1F621773078407BA0720F0621B9A
:101A0000730B840BBA0BEE1F88F7E09508950E94C4
:101A10000E0D6894B1110C94C50D08950E94AA0D85
:101A200088F09F5798F0B92F9927B751B0F0E1F09F
:101A3000660F771F881F991F1AF0BA95C9F714C04F
:101A4000B13091F00E94C40DB1E008950C94C40D22
:101A5000672F782F8827B85F39F0B93FCCF3869588
:101A600077956795B395D9F73EF4909580957095E5
:101A700061957F4F8F4F9F4F0895E89409C097FB62
:101A80003EF490958095709561957F4F8F4F9F4F55
:101A90009923A9F0F92F96E9BB279395F695879599
:101AA00077956795B795F111F8CFFAF4BB0F11F45C
:101AB00060FF1BC06F5F7F4F8F4F9F4F16C0882303
:101AC00011F096E911C0772321F09EE8872F762F39
:101AD00005C0662371F096E8862F70E060E02AF07A
:101AE0009A95660F771F881FDAF7880F9695879566
:101AF00097F9089597F99F6780E870E060E008958E
:101B00009FEF80EC089500240A9416161706180615
:101B10000906089500240A941216130614060506F1
:101B20000895092E0394000C11F4882352F0BB0F82
:101B300040F4BF2B11F460FF04C06F5F7F4F8F4FE5
:101B40009F4F089557FD9058440F551F59F05F3F20
:101B500071F04795880F97FB991F61F09F3F79F0CF
:101B600087950895121613061406551FF2CF469551
:101B7000F1DF08C0161617061806991FF1CF8695D3
:101B80007105610508940895E894BB2766277727B7
:101B9000CB0197F908950E94DE0D0C94910D0E94DF
:101BA000830D38F00E948A0D20F0952311F00C94DB
:101BB0007A0D0C94800D11240C94C50D0E94A20D79
:101BC00070F3959FC1F3950F50E0551F629FF00190
:101BD000729FBB27F00DB11D639FAA27F00DB11DA9
:101BE000AA1F649F6627B00DA11D661F829F222732
:101BF000B00DA11D621F739FB00DA11D621F839FB9
:101C0000A00D611D221F749F3327A00D611D231F8E
:101C1000849F600D211D822F762F6A2F11249F57DC
:101C200050409AF0F1F088234AF0EE0FFF1FBB1FDF
:101C3000661F771F881F91505040A9F79E3F51059E
:101C400080F00C947A0D0C94C50D5F3FE4F3983E40
:101C5000D4F3869577956795B795F795E7959F5F48
:101C6000C1F7FE2B880F911D9695879597F90895DA
:101C70000F931F93CF93DF93E0913621F09137219B
:101C8000238121FF1BC08C01D0E0C0E0F8018191CD
:101C90008F016091362170913721DB011896ED910B
:101CA000FC911997882331F00995892B79F3DFEF9F
:101CB000CFEFECCF8AE00995892B19F08FEF9FEFDA
:101CC00002C08D2F9C2FDF91CF911F910F9108950E
:041CD000F894FFCFB6
:101CD4000600010028000A0000006400040000005F
:101CE40000002003440000440100440200440300B7
:101CF400000000000400010028000A000000640045
:101D040004000000C80038FF430000430100430200
:101D140000430300000000000500010028000A0041
:101D2400000064000400000038FFC80043040043BE
:101D34000500430600430700000000000300010003
:101D440028000A0000006400040000000000AA0546
:101D54004200004201004202004203000000000071
:101D64000200010028000A000000640004000000D2
:101D740000005CF9410400410500410600410700F0
:101D8400000000000100010028000A0000006400B7
:101D9400040000007CFC8403410000410100410276
:101DA40000410300000000000000000200000000E9
:101DB400FB000000000032000100726561647900DC
:101DC4006D6F76696E6700676F745468657265003D
:101DD40067696D6D65004C455453444F54484953ED
:021DE4000000FD
:00000001FF
