:1000000043C100005DC100005BC1000059C1000098
:1000100057C1000055C1000053C1000051C100008C
:100020004FC100004DC100004BC1000049C100009C
:1000300047C1000045C1000043C1000041C10000AC
:100040003FC100003DC100003BC1000039C10000BC
:1000500037C1000035C1000033C1000031C10000CC
:100060002FC100002DC100002BC1000029C10000DC
:1000700027C1000025C1000023C1000021C10000EC
:100080001FC100001DC100001BC1000019C10000FC
:1000900017C1000015C1000013C1000011C100000C
:1000A0000FC100000DC100000BC1000009C100001C
:1000B00007C1000005C1000003C1000001C100002C
:1000C000FFC00000FDC00000FBC00000F9C0000040
:1000D000F7C00000F5C00000F3C00000F1C0000050
:1000E000EFC00000EDC00000EBC00000E9C0000060
:1000F000E7C00000E5C00000E3C00000E1C0000070
:10010000DFC00000DDC00000DBC00000D9C000007F
:10011000D7C00000D5C00000D3C00000D1C000008F
:10012000CFC00000CDC00000CBC00000C9C000009F
:10013000C7C00000C5C00000C3C00000C1C00000AF
:10014000BFC00000BDC00000BBC00000B9C00000BF
:10015000B7C00000B5C00000B3C00000B1C00000CF
:10016000AFC00000ADC00000ABC00000A9C00000DF
:10017000A7C00000A5C00000A3C00000A1C00000EF
:100180009FC000009DC000009BC0000099C00000FF
:1001900097C0000095C0000093C0000091C000000F
:1001A0008FC000008DC000008BC0000089C000001F
:1001B00087C0000085C0000083C0000081C000002F
:1001C0007FC000007DC000007BC0000079C000003F
:1001D00077C0000075C0000073C0000071C000004F
:1001E0006FC000006DC000006BC0000069C000005F
:1001F00067C000004CC3000063C000001C034C003B
:100200005500460041002000430044004300200008
:10021000440065006D006F00000018034400650095
:1002200061006E002000430061006D0065007200F7
:10023000610000000403090409023E00020100C03D
:10024000320904000001020201000524001001042B
:100250002402060524060001070582030800FF09A1
:10026000040100020A000000070504021000010753
:100270000583021000011201100102000008EB03C7
:10028000442001000102DC0111241FBECFEFD7E2A0
:10029000DEBFCDBF10E2A0E0B0E2E2E8FDE102C0C7
:1002A00005900D92AC32B107D9F719E2ACE2B0E299
:1002B00001C01D92A339B107E1F7A4D00C94BF0E81
:1002C0009FCE0895089580E090E20C94DD0A9C0191
:1002D00008C08FE39FE10197F1F700C000002150B3
:1002E000304021153105A9F70895FF920F931F9310
:1002F000CF93DF938C01C0E8D6E0FF24F394FD8216
:10030000E6DFFE82C801E3DFDF91CF911F910F91FD
:10031000FF90089582E390E0E8DF80E090E20C94A3
:10032000220DCF93DF9380E1E0E5F0E085838091BB
:1003300050008061809350008091510084FFFCCF79
:100340002FB7F89434E088ED90E0A0E4B0E01BBE55
:10035000FD0184BF30832FBF8FE39FE10197F1F749
:1003600000C0000080914000809150008260809326
:1003700050008091510081FFFCCF80915600846035
:10038000E0E5F0E08683A0E6B0E080E815968C9387
:1003900015978BEB16968C931697C0ECD1E082E004
:1003A0008A87EDE1F0E0E4911296EC931297ECE18C
:1003B000F0E0E4911396EC931A8681E0809360005C
:1003C00087E0E0EAF0E082832AD2DF91CF910895BE
:1003D000E0E8F6E08181816081830895E0E0F8E063
:1003E00080E797E186A397A38081807F84608083E4
:1003F000868183608683E0EAF0E082818460828384
:10040000789408958EDFE4DFE9DF80E090E260E336
:1004100070E20E94AB0E789480E090E20E94350E6C
:1004200080E090E20E94140E0E947A0AF5CF92308A
:1004300029F0933041F09130E9F417C08EE390E059
:10044000E8E3F2E01BC0813041F0813018F08230E7
:1004500089F406C0E4E3F2E005C0EAE1F2E002C09C
:10046000ECEFF1E0849190E009C082E190E0E6E7F2
:10047000F2E004C080E090E0E0E0F0E0DA01ED932B
:10048000FC9311970895282F2F708093422030E01D
:1004900044E850E087FF19C0249FC001259F900DBC
:1004A000349F900D11248B579F4D80933E20909345
:1004B0003F208091C6049091C70474E0220F331F3F
:1004C0007A95E1F7285F3F4F16C0249FC001259F12
:1004D000900D349F900D11248D5B9F4D80933E2095
:1004E00090933F208091C6049091C70464E0220F4E
:1004F000331F6A95E1F7820F931F809340209093FA
:10050000412008951F93CF93DF9300D0CDB7DEB77E
:10051000182F4A836983B7DFE0914020F091412092
:100520001182E0914020F0914120812F881F88277F
:10053000881F880F8083E0914020F09141206981DD
:100540006183E0914020F09141201282138220913A
:100550003E2030913F2024833583110F110B4A81B7
:100560001423F901E05CFF4F10832F5B3F4FD9014B
:100570001C9281E00F900F90DF91CF911F91089511
:10058000AF92BF92DF92EF92FF920F931F93CF93A0
:10059000DF930F92CDB7DEB7F62E5C01EE243AC0A2
:1005A000F501D080DD2089F1838101811281948160
:1005B000923010F048E101C048E028E030E090E0DF
:1005C00003C09F5F220F331F20173107D0F3013480
:1005D000110520F5942B9F7E882319F0813029F492
:1005E00002C0906405C0906C0AC09068882339F4FA
:1005F0008D2D8058692F402F998384DF99818D2D0F
:10060000692F402F7FDF882349F0E39485E090E055
:10061000A80EB91EEF1421F681E001C080E00F9012
:10062000DF91CF911F910F91FF90EF90DF90BF90DE
:10063000AF90089580E090E0E091C604F091C70487
:100640009C01A4E0220F331FAA95E1F7E20FF31FEC
:100650001186E091C604F091C704E20FF31F1182E6
:1006600001968031910541F7089580918B2987FF8C
:1006700028C0809142208F7706DFE0914020F091E2
:100680004120808185FF14C0A0913E20B0913F2081
:1006900082819381A05CBF4F8C9380818D79808310
:1006A000E0913E20F0913F20EF5BFF4F10820895D4
:1006B00080918A298823E9F6089580918A298823E0
:1006C000F9F0809142208068DEDEE0914020F091D8
:1006D0004120808181FFF1CFA0913E20B0913F2049
:1006E000AF5BBF4F8C9190E08283938380818D7943
:1006F0008083E0913E20F0913F20EF5BFF4F10821E
:1007000008951F93CF93DF93E091C604F091C7043F
:10071000E050FF4FC081D18114E680914220807863
:10072000803861F4809142208068ADDEE091402005
:10073000F0914120808181FF18C035C08091422016
:100740008F77A1DEA0914020B09141208C9185FF50
:100750000CC0E0913E20F0913F2012968D919C912B
:100760001397E05CFF4F80831EC080918A29882305
:10077000E1F08530E1F0E0914020F091412081816D
:1007800082FD17C0E091C604F091C704E050FF4F0E
:10079000808191818C179D0709F4BFCF112359F0F7
:1007A0001150EC01BACF80E007C082E005C083E0C1
:1007B00003C081E001C084E0DF91CF911F910895D3
:1007C000CF93DF93E0E4F0E014828481836084833C
:1007D000C0ECD4E01B824ED054D088818F778883C0
:1007E00088818068888310928A29109286291092C5
:1007F00088291092872988818064888380E868E44A
:1008000048E080DE80E068E448E07CDE8885806443
:100810008887898181608983DF91CF910895CF9303
:10082000DF932FB7F894C0ECD1E082E08A87EAE149
:10083000F0E0E491A0ECB4E0DA96EC93DA97EBE127
:10084000F0E0E491DB96EC93DB971A8684E898E27B
:100850008E7F16968D939C9317978FE18C9383E0F0
:1008600018968C932FBF81E080938929A9DFDF91AF
:10087000CF910895E0ECF4E0808583708087118645
:100880000895E0ECF4E08FEF8287848708951F924B
:100890000F920FB60F9211242F933F934F935F93B4
:1008A0006F937F938F939F93AF93BF93EF93FF9338
:1008B0008091CA0487FF09C08091C80487FF05C0E2
:1008C00080E8E0ECF4E08287D5D58091CA0486FF09
:1008D00007C080E4E0ECF4E0828710928A29F2DC21
:1008E0008091CA0485FF12C080E2E0ECF4E08287C8
:1008F00080918629882321F48091C304882311F0F4
:1009000084E001C081E080938A29DBDCE0ECF4E044
:100910008091CA0484FF12C080E1828782E08093C4
:100920008A2910928629138285DE80E868E448E0EF
:10093000E9DD80E068E448E0E5DD9CD5FF91EF91DA
:10094000BF91AF919F918F917F916F915F914F91E7
:100950003F912F910F900FBE0F901F901895282F49
:100960002F708093422030E044E850E087FF19C0A8
:10097000249FC001259F900D349F900D11248B570B
:100980009F4D80933E2090933F208091C60490918C
:10099000C70474E0220F331F7A95E1F7285F3F4FB9
:1009A00016C0249FC001259F900D349F900D1124E7
:1009B0008D5B9F4D80933E2090933F208091C60495
:1009C0009091C70464E0220F331F6A95E1F7820F0C
:1009D000931F80934020909341200895EF92FF92BF
:1009E0000F931F93CF93DF93D82FC92F8B01809143
:1009F00042208068B4DF80919129909192298017DC
:100A0000910728F48C01ED2EFC2EC0E0A8C0011542
:100A10001105C9F7E0914020F0914120A0913E20BE
:100A2000B0913F20AF5BBF4F8C9190E08283938366
:100A300080818D798083E0913E20F0913F20EF5BB3
:100A4000FF4F1082E0CF80918A29882309F4ADC03E
:100A5000853009F4ACC0809142208F7780DFE0912F
:100A60004020F0914120808184FF0BC0A0913E2066
:100A7000B0913F2082819381A05CBF4F8C9381E035
:100A800097C0809142208F776ADFE0914020F091FB
:100A90004120808185FF0AC0A0913E20B0913F2077
:100AA00082819381A05CBF4F8C9363C08091422070
:100AB000806855DFE0914020F0914120808181FFE6
:100AC0004EC08091422020913E2030913F2087FFF0
:100AD00006C02F5B3F4FD9018C9190E01BC0F901FC
:100AE000E05CFF4F80812F5B3F4FF901208190E058
:100AF000821B91090FC0D7013D917D01DF01AF5BE2
:100B0000BF4F2C91E20FF11D30832F5F2C930150CA
:100B100010400196E0913E20F0913F200115110513
:100B200019F08830910538F3C1E08830910509F05B
:100B3000C0E0A0914020B0914120EF5BFF4F808149
:100B400090E012968D939C9313978C918D798C9352
:100B5000E0913E20F0913F20EF5BFF4F10820115A6
:100B6000110509F070CFCC2309F06DCF02C085309C
:100B7000F1F0809142208F77F2DEA0914020B09179
:100B800041208C9185FF0DC0E0913E20F0913F20E7
:100B900012968D919C911397E05CFF4F808380E0CB
:100BA00007C080918A29882311F782E001C083E081
:100BB000DF91CF911F910F91FF90EF900895EF92E9
:100BC000FF920F931F93CF93DF93D82FC92F8B01E1
:100BD000809142208068C3DE809191299091922972
:100BE0008017910728F48C01ED2EFC2EC0E0ACC0DC
:100BF00001151105C9F7E0914020F0914120A09125
:100C00003E20B0913F20AF5BBF4F8C9190E082833C
:100C1000938380818D798083E0913E20F0913F2005
:100C2000EF5BFF4F1082E0CF80918A29882309F47F
:100C3000B1C0853009F4B0C0809142208F778FDE3B
:100C4000E0914020F0914120808184FF0BC0A09171
:100C50003E20B0913F2082819381A05CBF4F8C9356
:100C600081E09BC0809142208F7779DEE091402027
:100C7000F0914120808185FF0AC0A0913E20B09173
:100C80003F2082819381A05CBF4F8C9367C080918D
:100C90004220806864DEE0914020F0914120808114
:100CA00081FF52C08091422020913E2030913F2010
:100CB00087FF06C02F5B3F4FF901808190E01EC087
:100CC000F901E05CFF4F80812F5B3F4FF9012081EC
:100CD00090E0821B910912C0F7015491D901AF5BDA
:100CE000BF4F4C91F901E40FF11D50834F5F4C93BE
:100CF0000894E11CF11C01501040019620913E2007
:100D000030913F200115110519F08830910520F32D
:100D1000C1E08830910509F0C0E0A0914020B09179
:100D20004120F901EF5BFF4F808190E012968D9397
:100D30009C9313978C918D798C93E0913E20F09148
:100D40003F20EF5BFF4F10820115110509F06CCFBA
:100D5000CC2309F069CF02C08530F1F080914220A8
:100D60008F77FDDDA0914020B09141208C9185FFCF
:100D70000DC0E0913E20F0913F2012968D919C9104
:100D80001397E05CFF4F808380E007C080918A2941
:100D9000882311F782E001C083E0DF91CF911F919A
:100DA0000F91FF90EF900895282F2F70809342208D
:100DB00030E044E850E087FF19C0249FC001259F20
:100DC000900D349F900D11248B579F4D80933E20A2
:100DD00090933F208091C6049091C70474E0220F45
:100DE000331F7A95E1F7285F3F4F16C0249FC0015B
:100DF000259F900D349F900D11248D5B9F4D809306
:100E00003E2090933F208091C6049091C70464E0F7
:100E1000220F331F6A95E1F7820F931F80934020C2
:100E20009093412008950F931F93CF93DF93CDB7F5
:100E3000DEB7EC97CDBFDEBF28E04BE859E28091EA
:100E40003E2090913F20DC01AF5BBF4F3C91830F70
:100E5000911DFC0180813F5F3C93DA018D93AD01D0
:100E6000215069F730DA809142208F779DDFA09181
:100E70004020B09141208C9184FF9FC2E0913E20A0
:100E8000F0913F2012968D919C911397E05CFF4F5B
:100E9000808380918B2920918C29253009F4F4C01E
:100EA000263048F4213009F46CC0213070F0233032
:100EB00009F083C266C0283009F4E6C1293009F47C
:100EC00035C2263009F079C22AC1803821F0823833
:100ED00009F073C208C0109187298091882988235E
:100EE00081F012600EC080918F298F705DDFE091DC
:100EF0004020F0914120818111E082FF10E080E0EC
:100F000053DF809142208F774FDFE0914020F091B6
:100F1000412080818D788083E0914020F0914120B4
:100F2000808181608083E0913E20F0913F20EF5BE3
:100F3000FF4F108280914220806836DFE091402090
:100F4000F091412080818160808380913E2090914A
:100F50003F20FC01EF5BFF4F10822081820F911D2B
:100F6000DC011C932F5F208380913E2090913F20D5
:100F7000FC01EF5BFF4F2081820F911DDC011C9271
:100F8000B9C1882319F0823009F017C290E08F713F
:100F90009070009729F08230910509F00EC20BC0C5
:100FA00080918D29813009F008C2233009F080E05A
:100FB0008093882943C080918D29882309F03EC001
:100FC00010918F291F7009F4F8C1812FEDDE8091F7
:100FD0008C29E0914020F09141208330B9F4818147
:100FE00084608183E0914020F09141208181807C68
:100FF000803421F5809142208058D6DEE091402057
:10100000F091412081818460818318C081818B7F30
:101010008183812F90E024E830E0829FF001839F5C
:10102000F00D929FF00D1124EC57FF4D1082E091CE
:101030004020F091412080818E7F808380E0B4DE6B
:10104000809142208F77B0DEE0914020F0914120E6
:1010500080818D788083E0914020F09141208081D3
:1010600081608083E0913E20F0913F20EF5BFF4F55
:10107000108280914220806897DEE0914020F091BC
:1010800041208081816048C1882309F096C1009188
:101090008D290F771FB7F894809142208F7784DED7
:1010A000E0914020F091412080818D788083E09113
:1010B0004020F0914120808181608083E0913E203A
:1010C000F0913F20EF5BFF4F1082809142208068BB
:1010D0006BDEE0914020F09141208081816080832F
:1010E000E0913E20F0913F20EF5BFF4F1082BDDA90
:1010F00080914220806858DEE0914020F0914120AC
:10110000808181FFF5CFE0ECF4E00383002311F050
:1011100083E001C082E080938A291FBF4EC18058BE
:10112000823008F04AC180918D2990918E29B3E0D8
:101130008C3D9B0709F060C083E08C838AE38B833E
:101140000FB7F894DE01139680E090E048E060EC81
:1011500071E052E0FB015287E42FF0E02491FB01A3
:10116000128680FF03C022952F704F5FE22FEF7031
:101170002E2F30E0EA3018F0295C3F4F02C0205D8E
:101180003F4F12962D933C931397019612968C31F4
:10119000910501F70FBF809142208F7705DEE09126
:1011A0004020F091412080818D788083E091402023
:1011B000F0914120808181608083E0913E20F09118
:1011C0003F20EF5BFF4F1082809142208068ECDD72
:1011D000E0914020F0914120808181608083E09106
:1011E0003E20F0913F20EF5BFF4F1082CE0103962F
:1011F0006AE370E0F3DB39C060918F29AE014F5F85
:101200005F4F15D98C01009709F4D7C08091422017
:101210008F77CADDE0914020F091412080818D7868
:101220008083E0914020F091412080818160808323
:10123000E0913E20F0913F20EF5BFF4F10828091C4
:1012400042208068B1DDE0914020F0914120808112
:1012500081608083E0913E20F0913F20EF5BFF4F63
:10126000108289819A81B801AADCE0914020F09136
:10127000412080818D798083E0913E20F0913F2054
:10128000EF5BFF4F108299C0803809F096C08091C3
:1012900042208F7789DDE0914020F09141208081CC
:1012A0008D788083E0914020F091412080818160A1
:1012B0008083E0913E20F0913F20EF5BFF4F108252
:1012C00080914220806870DDE0914020F0914120C3
:1012D00080818160808380913E2090913F20FC013D
:1012E000EF5BFF4F1082309186292081820F911D84
:1012F000DC013C932F5F2083E0914020F09141205E
:10130000A0913E20B0913F20AF5BBF4F8C9190E009
:101310008283938380818D798083E0913E20F09158
:101320003F20EF5BFF4F1082A0D947C0882309F010
:1013300044C080918D29823008F03FC080914220C6
:101340008F7732DDE0914020F091412080818D78CF
:101350008083E0914020F0914120808181608083F2
:10136000E0913E20F0913F20EF5BFF4F1082809193
:101370004220806819DDE0914020F0914120808179
:1013800081608083E0913E20F0913F20EF5BFF4F32
:10139000108280918D298093862967D98091862932
:1013A000882321F48091C304882311F084E001C0D4
:1013B00081E080938A290E948A01809142208F7760
:1013C000F3DCE0914020F0914120808184FF4AC00D
:1013D000A0913E20B0913F2082819381A05CBF4FBD
:1013E0008C93818184608183E0914020F091412041
:1013F0008181807C803459F4809142208058D4DCF3
:10140000E0914020F091412081818460818380912E
:1014100042208F77C9DCE0914020F091412080810B
:101420008D788083E0914020F0914120808181601F
:101430008083E0913E20F0913F20EF5BFF4F1082D0
:10144000809142208068B0DCE0914020F091412002
:10145000808181608083E0913E20F0913F20EF5BAE
:10146000FF4F1082EC96CDBFDEBFDF91CF911F9171
:101470000F9108950895282F2F708093422030E017
:1014800044E850E087FF19C0249FC001259F900DBC
:10149000349F900D11248B579F4D80933E20909345
:1014A0003F208091C6049091C70474E0220F331F3F
:1014B0007A95E1F7285F3F4F16C0249FC001259F12
:1014C000900D349F900D11248D5B9F4D80933E2095
:1014D00090933F208091C6049091C70464E0220F4E
:1014E000331F6A95E1F7820F931F809340209093FA
:1014F00041200895CF9380918A298823E9F0C091F3
:10150000422080E0B8DF809142208F77B4DFA09145
:101510004020B09141208C9184FF0CC0E0913E208E
:10152000F0913F2012962D913C911397E05CFF4F74
:10153000208379DC8C2F9FDFCF910895282F2F7087
:101540008093422030E044E850E087FF19C0249F98
:10155000C001259F900D349F900D11248B579F4DF6
:1015600080933E2090933F208091C6049091C704C1
:1015700074E0220F331F7A95E1F7285F3F4F16C0C2
:10158000249FC001259F900D349F900D11248D5BE9
:101590009F4D80933E2090933F208091C604909170
:1015A000C70464E0220F331F6A95E1F7820F931F8F
:1015B00080934020909341200895CF92DF92EF9244
:1015C000FF920F931F93CF93DF937C018091422072
:1015D0008F77B4DFA0914020B09141208C9184FF9F
:1015E00028C2E0913E20F0913F2012968D919C916F
:1015F0001397E05CFF4F8083D7018C9190E020919E
:101600008F29309190292817390709F012C280914B
:101610008C29813269F0823220F4803209F009C2CB
:10162000D4C0823209F494C1833209F002C2CCC121
:1016300080918B29813A09F0FCC1809142208F77FB
:101640007DDFE0914020F091412080818D78808382
:10165000E0914020F0914120808181608083E09181
:101660003E20F0913F20EF5BFF4F1082809142209F
:10167000806864DFE0914020F091412080818160AA
:101680008083E0913E20F0913F20EF5BFF4F10827E
:1016900080914220806852DFE0914020F09141200B
:1016A000808181FFF5CFE7014C895D896E897F8953
:1016B00080913E2090913F20FC01EF5BFF4F208105
:1016C000820F911DDC014C932F5F2083052F162F75
:1016D000272F332780913E2090913F20FC01EF5B24
:1016E000FF4FA0818A0F911DEC010883AF5FA0839B
:1016F0008B012227332780913E2090913F20FC01CF
:10170000EF5BFF4FA0818A0F911DEC010883AF5F53
:10171000A083472F55276627772780913E209091F9
:101720003F20FC01EF5BFF4F2081820F911DDC0108
:101730004C932F5F2083E701388D80913E2090915C
:101740003F20FC01EF5BFF4F2081820F911DDC01E8
:101750003C932F5F2083398D80913E2090913F20D4
:10176000FC01EF5BFF4F2081820F911DEC0138835C
:101770002F5F2083F701328D80913E2090913F2092
:10178000FC01EF5BFF4F2081820F911DDC013C9338
:101790002F5F2083E0914020F0914120A0913E20D6
:1017A000B0913F20AF5BBF4F8C9190E082839383D9
:1017B00080818D798083E0913E20F0913F20EF5B26
:1017C000FF4F10820E94350334C180918B298132F2
:1017D00009F02FC1809142208F77B0DEE091402048
:1017E000F091412080818D788083E0914020F091BC
:1017F0004120808181608083E0913E20F0913F20F4
:10180000EF5BFF4F108280914220806897DEE0916D
:101810004020F0914120808181608083E0913E20D2
:10182000F0913F20EF5BFF4F1082809142208F7735
:1018300085DEC0904020D0904120E601888185FF60
:1018400081C020913E2030913F208A819B81F90107
:10185000E05CFF4F8083E901CF5BDF4F8881F901B6
:10186000E80FF11D00818F5F88838881F901E80FFF
:10187000F11D10818F5F88839881F901E90FF11DB7
:1018800080819F5F98839881F901E90FF11D408164
:101890009F5F988350E060E070E0742F66275527C3
:1018A000442790E0A0E0B0E0DC0199278827482B8E
:1018B000592B6A2B7B2B802F90E0A0E0B0E0482BC7
:1018C000592B6A2B7B2B812F90E0A0E0B0E0BA2F40
:1018D000A92F982F8827482B592B6A2B7B2BF70190
:1018E000448B558B668B778B8881F901E80FF11D4E
:1018F00090818F5F8883D70158969C9358978881F1
:10190000F901E80FF11D90818F5F888359969C93B0
:1019100059978881280F311DF90190818F5F888345
:101920005A969C93D6018C918D798C93E0913E20B0
:10193000F0913F20EF5BFF4F10820E943503C701FB
:101940001DD277C080918A29882309F06ECF71C09B
:1019500080918B29813209F06CC0809142208F7771
:10196000EDDDE0914020F091412080818D788083F1
:10197000E0914020F0914120808181608083E0915E
:101980003E20F0913F20EF5BFF4F1082809142207C
:101990008068D4DDE0914020F09141208081816019
:1019A0008083E0913E20F0913F20EF5BFF4F10825B
:1019B0000E94350380918D2990918E29E701888BB3
:1019C000998BC701DBD135C080918B29813289F594
:1019D000809142208F77B2DDE0914020F09141204C
:1019E00080818D788083E0914020F091412080813A
:1019F00081608083E0913E20F0913F20EF5BFF4FBC
:101A0000108280914220806899DDE0914020F09121
:101A10004120808181608083E0913E20F0913F20D1
:101A2000EF5BFF4F10820E943503C70160918D2943
:101A3000A5D1DF91CF911F910F91FF90EF90DF9093
:101A4000CF900895CF93DF93EC014096FC018BE09B
:101A5000DF011D928A95E9F782E08C83898783E014
:101A60008E87CE01019661E00E94C002882369F052
:101A7000CE01069661E00E94C002882331F0CE01BB
:101A80000B9661E00E94C00201C080E0DF91CF911F
:101A90000895CF93FC01C62F80918A29843009F0E4
:101AA00041C0448955896689778941155105610589
:101AB0007105C1F1818142DD80913E2090913F20EE
:101AC000FC01EF5BFF4F2081805C9F4FDC018C911C
:101AD0002817C0F0A0914020B0914120808190E073
:101AE00012968D939C9313978C918D798C93E091A2
:101AF0003E20F0913F20EF5BFF4F10820E94810358
:101B0000882389F480913E2090913F20FC01EF5B77
:101B1000FF4F2081820F911DDC01CC932F5F20832A
:101B200080E001C082E0CF910895282FFB018485D9
:101B30009585622FAEDF882319F08FEF9FEF089510
:101B400080E090E00895FC0180918A29843009F0BA
:101B500065C04489558966897789411551056105B4
:101B6000710509F45BC08181E9DC809142202091FC
:101B70003E2030913F2087FF06C02F5B3F4FF90189
:101B8000808190E00BC0F901E05CFF4F80812F5B0A
:101B90003F4FF901208190E0821B9109009709F4E1
:101BA0003FC080913E2090913F20DC01AF5BBF4F52
:101BB0003C91805C9F4FFC012081E0914020F0919E
:101BC00041208C9190E08283938380818D79808302
:101BD000E0913E20F0913F20EF5BFF4F10823217E3
:101BE00008F10E9481038823F1F4E0914020F091F4
:101BF0004120A0913E20B0913F20AF5BBF4F2C9180
:101C000030E02283338390819D799083E0913E2060
:101C1000F0913F20EF5BFF4F1082089582E008951E
:101C200080E0089580E00895CF93DF93EC018091E8
:101C30008A298430B9F48C899D89AE89BF8900973F
:101C4000A105B10579F0898179DC80914220806815
:101C500075DCE0914020F0914120808181FF02C03D
:101C6000CE0171DFDF91CF910895CF93DF93FC0117
:101C700080918A29843009F060C044895589668939
:101C80007789411551056105710509F456C08681B2
:101C900055DC809142208F7751DCC0914020D0915B
:101CA0004120888185FF49C020913E2030913F200E
:101CB0008A819B81F901E05CFF4F80838091422003
:101CC000D901AF5BBF4F87FF03C08C9190E005C087
:101CD00080814C9190E0841B9109009761F0F9019B
:101CE000EF5BFF4F9081D901A90FB11D8C919F5FD0
:101CF000908390E002C08FEF9FEF40914220F90166
:101D0000EF5BFF4F47FF03C0208130E008C0205C3D
:101D10003F4FD9012C91408130E0241B310921151E
:101D2000310569F428812D792883E0913E20F091D6
:101D30003F20EF5BFF4F108202C08FEF9FEFDF91DC
:101D4000CF910895FC01848595858FDF97FF02C0B0
:101D50008EEF9FEF0895FB012EE0DB011D922A9587
:101D6000E9F723E0238325E93DE02087318722EA54
:101D70003EE0228733878487958708950895F894F5
:021D8000FFCF93
:101D8200008310000001041000000182080000011D
:101D92000000000000000000000000A12000000080
:0C1DA200000200A1010000000000000091
:00000001FF
