:100000000C94BC000C94DD000C94DD000C94DD001D
:100010000C94DD000C94DD000C94DD000C94DD00EC
:100020000C94DD000C94DD000C94DD000C94DD00DC
:100030000C94DD000C94DD000C94DD000C94DD00CC
:100040000C94DD000C94DD000C94DD000C94DD00BC
:100050000C94DD000C94DD000C94DD000C94DD00AC
:100060000C94DD000C94DD000C94DD000C94DD009C
:100070000C94DD000C94DD000C94DD000C94DD008C
:100080000C94DD000C94DD000C94DD000C94DD007C
:100090000C94DD000C94DD000C94DD000C94DD006C
:1000A0000C94DD000C94DD000C94DD000C94DD005C
:1000B0000C94DD000C94DD000C94DD000C94DD004C
:1000C0000C94DD000C94DD000C94DD000C94DD003C
:1000D0000C94DD000C94DD000C94DD000C94DD002C
:1000E0000C94DD000C94DD000C94DD000C94DD001C
:1000F0000C94DD000C94DD000C94DD000C94DD000C
:100100000C94DD000C94DD000C94DD000C94DD00FB
:100110000C94DD000C94DD000C94DD000C94DD00EB
:100120000C94DD000C94DD000C94DD000C94DD00DB
:100130000C94DD000C94DD000C94DD000C94DD00CB
:100140000C94DD000C94DD000C94DD000C94DD00BB
:100150000C94DD000C94DD000C94DD000C94DD00AB
:100160000C94DD000C94DD000C94DD000C94DD009B
:100170000C94DD000C94DD0011241FBECFEFDFE2F4
:10018000DEBFCDBF18BE19BE1ABE1BBE10E2A0E076
:10019000B0E2E2E3F5E002C005900D92A030B107B5
:1001A000D9F710E2A0E0B0E201C01D92A030B10783
:1001B000E1F70E946C020C9497020C9400000F93DC
:1001C000DF93CF930F92CDB7DEB72FB72983F89483
:1001D0001BBEFC0108ED04BF608389818FBF0F90B7
:1001E000CF91DF910F910895662311F490E001C043
:1001F00090E2482B942BE0E5F0E0928308956F7134
:10020000682BE0E5F0E065830895E0E5F0E020810B
:10021000982F9095922390839081892308950F932E
:10022000DF93CF930F92CDB7DEB79FB79983F89442
:100230001BBE682B81E490E0FC0108ED04BF6083E5
:1002400089818FBF0F90CF91DF910F9108950F9308
:10025000DF93CF930F92CDB7DEB7209140009FB7C9
:100260009983F8941BBEA0E4B0E0287F282BFD0101
:1002700008ED04BF208399819FBF9C9189230F9033
:10028000CF91DF910F910895E0E4F0E09381917FA9
:100290009160982B93830895282F30915600662300
:1002A00011F0982F01C090E0822F80958323982B26
:1002B000E0E5F0E09683213031F4809168008160C0
:1002C000809368000895223029F480916000816055
:1002D0008093600008950F93DF93CF930F92CDB773
:1002E000DEB78FB78983F8941BBE23E083E590E0E7
:1002F000FC0108ED04BF208389818FBF0F90CF914F
:10030000DF910F9108950F93DF93CF930F92CDB7A5
:10031000DEB78FB78983F8941BBE21E082E490E0BA
:10032000FC0108ED04BF208389818FBF0F90CF911E
:10033000DF910F91089520E43FE103C0F901319767
:10034000F1F701974FEF8F3F9407C1F7089588EDBC
:1003500084BF82E0809350008091510081FFFCCFE8
:1003600088ED84BF81E0809340000895AC0181E076
:10037000E0E8F6E085839A0180E49FE103C0FC0198
:100380003197F1F7215030406FEF2F3F3607B9F723
:1003900081E0E0E8F6E0868380E49FE103C0FC01B1
:1003A0003197F1F7415050402FEF4F3F5207B9F7C7
:1003B000089581E0E0E8F6E0858324EF31E040E451
:1003C0005FE103C0CA010197F1F7215030408FEF80
:1003D0002F3F3807B9F781E0E0E8F6E0868324EFA5
:1003E00031E040E45FE103C0CA010197F1F7215019
:1003F00030408FEF2F3F3807B9F7089520E030E005
:10040000A0E8B6E061E040E45FE115966C931597D3
:1004100082E390E003C0FA013197F1F701977FEF93
:100420008F3F9707C1F716966C93169782E390E07B
:1004300003C0FA013197F1F701977FEF8F3F9707DC
:10044000C1F72F5F3F4F2A303105F9F60895FF922B
:100450000F931F93CF93DF9300E816E0FF24F394EC
:10046000C0E4DFE18091480683FDFCCFF801F5820E
:1004700084EF91E003C0FE013197F1F70197FFEFA0
:100480008F3F9F07C1F7F801F68284EF91E003C028
:10049000FE013197F1F70197FFEF8F3F9F07C1F7FB
:1004A0000E94FE01DFCF88ED84BF82E08093500080
:1004B0008091510081FFFCCF88ED84BF81E0809363
:1004C0004000809181068160E0E8F6E0818388E168
:1004D000E0E4F6E0838B089588ED84BF82E08093AA
:1004E00050008091510081FFFCCF88ED84BF81E0F6
:1004F00080934000809181068160E0E8F6E081838E
:1005000088E1E0E4F6E0838B28EE33E040E45FE14D
:1005100003C0CA010197F1F7215030408FEF2F3F00
:100520003807B9F70E94270280E090E00895F89418
:02053000FFCFFB
:00000001FF
