:100000000C94BC000C94DD000C94DD000C94DD001D
:100010000C94DD000C94DD000C94DD000C94DD00EC
:100020000C94DD000C94DD000C94DD000C94DD00DC
:100030000C94DD000C94DD000C94DD000C94DD00CC
:100040000C94DD000C94DD000C94DD000C94DD00BC
:100050000C94DD000C94DD000C94DD000C94DD00AC
:100060000C94DD000C94DD000C94DD000C94DD009C
:100070000C94DD000C94DD000C94DD000C94DD008C
:100080000C94DD000C94DD000C94DD000C94DD007C
:100090000C94DD000C94DD000C94DD000C94DD006C
:1000A0000C94DD000C94DD000C94DD000C94DD005C
:1000B0000C94DD000C94DD000C94DD000C94DD004C
:1000C0000C94DD000C94DD000C94DD000C94DD003C
:1000D0000C94DD000C94DD000C94DD000C94DD002C
:1000E0000C94DD000C94DD000C94DD000C94DD001C
:1000F0000C94DD000C94DD000C94DD000C94DD000C
:100100000C94DD000C94DD000C94DD000C94DD00FB
:100110000C94DD000C94DD000C94DD000C94DD00EB
:100120000C94DD000C94DD000C94DD000C94DD00DB
:100130000C94DD000C94DD000C94DD000C94DD00CB
:100140000C94DD000C94DD000C94DD000C94DD00BB
:100150000C94DD000C94DD000C94DD000C94DD00AB
:100160000C94DD000C94DD000C94DD000C94DD009B
:100170000C94DD000C94DD0011241FBECFEFDFE2F4
:10018000DEBFCDBF18BE19BE1ABE1BBE10E2A0E076
:10019000B0E2E8EBF6E002C005900D92A030B107A6
:1001A000D9F710E2A0E0B0E201C01D92A030B10783
:1001B000E1F70E9420030C945A030C9400000F9363
:1001C000DF93CF930F92CDB7DEB72FB72983F89483
:1001D0001BBEFC0108ED04BF608389818FBF0F90B7
:1001E000CF91DF910F910895662311F490E001C043
:1001F00090E2482B942BE0E5F0E0928308956F7134
:10020000682BE0E5F0E065830895E0E5F0E020810B
:10021000982F9095922390839081892308950F932E
:10022000DF93CF930F92CDB7DEB79FB79983F89442
:100230001BBE682B81E490E0FC0108ED04BF6083E5
:1002400089818FBF0F90CF91DF910F9108950F9308
:10025000DF93CF930F92CDB7DEB7209140009FB7C9
:100260009983F8941BBEA0E4B0E0287F282BFD0101
:1002700008ED04BF208399819FBF9C9189230F9033
:10028000CF91DF910F910895E0E4F0E09381917FA9
:100290009160982B93830895282F30915600662300
:1002A00011F0982F01C090E0822F80958323982B26
:1002B000E0E5F0E09683213031F4809168008160C0
:1002C000809368000895223029F480916000816055
:1002D0008093600008950F93DF93CF930F92CDB773
:1002E000DEB78FB78983F8941BBE23E083E590E0E7
:1002F000FC0108ED04BF208389818FBF0F90CF914F
:10030000DF910F9108950F93DF93CF930F92CDB7A5
:10031000DEB78FB78983F8941BBE21E082E490E0BA
:10032000FC0108ED04BF208389818FBF0F90CF911E
:10033000DF910F91089520E43FE103C0F901319767
:10034000F1F701974FEF8F3F9407C1F708950F938F
:10035000DF93CF930F92CDB7DEB7E0E5F0E0808179
:1003600082608083909140008FB78983F8941BBE90
:10037000A0E4B0E0987F9160FD0108ED04BF908398
:1003800089818FBFAC910F90CF91DF910F9108952C
:10039000AC01E0E6F6E080E1858380E286839A01A5
:1003A00080E49FE103C0FC013197F1F72150304018
:1003B0006FEF2F3F3607B9F7E0E6F6E080E186837E
:1003C00080E2858380E49FE103C0FC013197F1F76F
:1003D000415050402FEF4F3F5207B9F70895E0E6E4
:1003E000F6E080E1858380E2868320ED37E040E41B
:1003F0005FE103C0CA010197F1F7215030408FEF50
:100400002F3F3807B9F7E0E6F6E080E1868380E227
:10041000858320ED37E040E45FE103C0CA01019726
:10042000F1F7215030408FEF2F3F3807B9F708958B
:10043000E0E6F6E080E1858380E2868324E630E032
:1004400040E45FE103C0CA010197F1F72150304059
:100450008FEF2F3F3807B9F7E0E6F6E080E18683BB
:1004600080E2858324E630E040E45FE103C0CA0116
:100470000197F1F7215030408FEF2F3F3807B9F740
:100480000895E0E6F6E080E1858380E2868324EF4C
:1004900031E040E45FE103C0CA010197F1F7215068
:1004A00030408FEF2F3F3807B9F7E0E6F6E080E104
:1004B000868380E2858324EF31E040E45FE103C07E
:1004C000CA010197F1F7215030408FEF2F3F3807D5
:1004D000B9F7089520E030E0A0E6B6E070E160E210
:1004E00040E45FE115967C93159716966C931697EA
:1004F00082E390E003C0FA013197F1F70197EFEF43
:100500008F3F9E07C1F716967C93169715966C93AE
:10051000159782E390E003C0FA013197F1F7019754
:10052000EFEF8F3F9E07C1F72F5F3F4F2A30310516
:10053000C9F60895EF92FF920F931F93CF93DF9325
:10054000C0E6D6E090E1E92E80E2F82E00E41FE15B
:10055000ED82FE8284EF91E003C0F8013197F1F75C
:1005600001972FEF8F3F9207C1F7EE82FD8284EF54
:1005700091E003C0F8013197F1F701972FEF8F3F1A
:100580009207C1F7ED82FE8284E690E003C0F80195
:100590003197F1F701972FEF8F3F9207C1F7EE8266
:1005A000FD8284E690E003C0F8013197F1F70197EE
:1005B0002FEF8F3F9207C1F7ED82FE8280ED97E02B
:1005C00003C0F8013197F1F701972FEF8F3F9207A2
:1005D000C1F7EE82FD8280ED97E003C0F80131970C
:1005E000F1F701972FEF8F3F9207C1F70E946A0240
:1005F000AFCF0F93DF93CF930F92CDB7DEB7E0E588
:10060000F0E0808182608083909140008FB7898381
:10061000F8941BBEA0E4B0E0987F9160FD0108ED66
:1006200004BF908389818FBFAC91E0E6F6E080E162
:10063000818380E281830F90CF91DF910F910895A4
:100640000F93DF93CF930F92CDB7DEB78091500019
:10065000826080935000209140008FB78983F89486
:100660001BBE287F216080E490E0FC0108ED04BF00
:10067000208389818FBF80914000E0E6F6E080E131
:10068000818380E2818328EE33E040E45FE103C0B0
:10069000CA010197F1F7215030408FEF2F3F380703
:1006A000B9F70E949A0280E090E00F90CF91DF911D
:0806B0000F910895F894FFCFAB
:00000001FF
