:100000000C94BC000C94DD000C94DD000C94DD001D
:100010000C94DD000C94DD000C94DD000C94DD00EC
:100020000C94DD000C94DD000C94DD000C94DD00DC
:100030000C94DD000C94DD000C94DD000C94DD00CC
:100040000C94DD000C94DD000C94DD000C94DD00BC
:100050000C94DD000C94DD000C94DD000C94DD00AC
:100060000C94DD000C94DD000C94DD000C94DD009C
:100070000C94DD000C94DD000C94DD000C94DD008C
:100080000C94DD000C94DD000C94DD000C94DD007C
:100090000C94DD000C94DD000C94DD000C94DD006C
:1000A0000C94DD000C94DD000C94DD000C94DD005C
:1000B0000C94DD000C94DD000C94DD000C94DD004C
:1000C0000C94DD000C94DD000C94DD000C94DD003C
:1000D0000C94DD000C94DD000C94DD000C94DD002C
:1000E0000C94DD000C94DD000C94DD000C94DD001C
:1000F0000C94DD000C94DD000C94DD000C94DD000C
:100100000C94DD000C94DD000C94DD000C94DD00FB
:100110000C94DD000C94DD000C94DD000C94DD00EB
:100120000C94DD000C94DD000C94DD000C94DD00DB
:100130000C94DD000C94DD000C94DD000C94DD00CB
:100140000C94DD000C94DD000C94DD000C94DD00BB
:100150000C94DD000C94DD000C94DD000C94DD00AB
:100160000C94DD000C94DD000C94DD000C94DD009B
:100170000C94DD000C94DD0011241FBECFEFDFE2F4
:10018000DEBFCDBF18BE19BE1ABE1BBE10E2A0E076
:10019000B0E2E8ECF2E002C005900D92A030B107A9
:1001A000D9F710E2A0E0B0E201C01D92A030B10783
:1001B000E1F70E9457010C9462010C94000020E0CA
:1001C00030E0E0E6F6E070E160E240E553EC758394
:1001D0006683CA010197F1F776836583CA010197A7
:1001E000F1F72F5F3F4F2A30310589F70895E0E698
:1001F000F6E080E1858380E2868380E197E222E376
:1002000030E0F9013197F1F70197D9F7E0E6F6E030
:1002100080E1868380E2858380E197E222E330E01B
:10022000F9013197F1F70197D9F70895CF93DF934B
:1002300020E030E0A0E6B6E050E140E2C0E5D3ECDB
:1002400062E370E014C015965C93159716964C9374
:100250001697CE010197F1F716965C9316971596AF
:100260004C931597CE010197F1F72F5F3F4F2A303E
:1002700031054CF315965C93159716964C9316978B
:1002800080E197E2FB013197F1F70197D9F71696D4
:100290005C93169715964C93159780E197E2FB01B6
:1002A0003197F1F70197D9F720E030E0E0CFE0E6B1
:1002B000F6E080E1818380E281830E94160180E084
:0802C00090E00895F894FFCFCF
:00000001FF
