:100000000C94BC000C94D9000C94D9000C94D90029
:100010000C94D9000C94D9000C94D9000C94D900FC
:100020000C94D9000C94D9000C94D9000C94D900EC
:100030000C94D9000C94D9000C9450010C94D90064
:100040000C94D9000C94D9000C94D9000C94D900CC
:100050000C94D9000C94D9000C94D9000C94D900BC
:100060000C94D9000C94D9000C94D9000C94D900AC
:100070000C94D9000C94D9000C94D9000C94D9009C
:100080000C94D9000C94D9000C94D9000C94D9008C
:100090000C94D9000C94D9000C94D9000C94D9007C
:1000A0000C94D9000C94D9000C94D9000C94D9006C
:1000B0000C94D9000C94D9000C94D9000C94D9005C
:1000C0000C94D9000C94D9000C94D9000C94D9004C
:1000D0000C94D9000C94D9000C94D9000C94D9003C
:1000E0000C94D9000C94D9000C94D9000C94D9002C
:1000F0000C94D9000C94D9000C94D9000C94D9001C
:100100000C94D9000C94D9000C94D9000C94D9000B
:100110000C94D9000C94D9000C94D9000C94D900FB
:100120000C94D9000C94D9000C94D9000C94D900EB
:100130000C94D9000C94D9000C94D9000C94D900DB
:100140000C94D9000C94D9000C94D9000C94D900CB
:100150000C94D9000C94D9000C94D9000C94D900BB
:100160000C94D9000C94D9000C94D9000C94D900AB
:100170000C94D9000C94D90011241FBECFEFD7E204
:10018000DEBFCDBF11E2A0E0B0E2E8EAFDE102C0CF
:1001900005900D92A23EB107D9F712E2A2EEB1E2AC
:1001A00001C01D92A030B107E1F70E94F10D0C943F
:1001B000D20E0C9400000F93CF93DF931F92CDB714
:1001C000DEB72FB72983F8941BBEFC0108ED04BFEE
:1001D000608389818FBF0F90DF91CF910F91089538
:1001E000662311F090E201C090E0842B892B80936C
:1001F000520008956F71682BE0E5F0E06583089583
:10020000E0E5F0E02081982F9095922390839081F3
:1002100089230895682B81E490E00C94DB001F9300
:10022000CF93DF93182FC0E4D0E06881687F682BFC
:1002300080E490E00E94DB0088818123DF91CF91F0
:100240001F910895E0E4F0E09381917F9160982BF5
:100250009383089530915600282F982F90959323DB
:10026000611101C020E0922B90935600813031F44F
:10027000809168008160809368000895823029F43D
:1002800080916000816080936000089563E083E561
:1002900090E00C94DB0061E082E490E00C94DB00E1
:1002A0001F920F920FB60F9211248F939F93AF93CB
:1002B000BF938091E2219091E321A091E421B0913C
:1002C000E5210196A11DB11D8093E2219093E321C8
:1002D000A093E421B093E521BF91AF919F918F91BD
:1002E0000F900FBE0F901F9018959C0108C08FE3D0
:1002F0009FE10197F1F700C000002150310921155D
:100300003105A9F70895FC01DB01208131818D9130
:100310009C9111972817390779F52281338112961C
:100320008D919C9113972817390731F524813581D8
:1003300014968D919C91159728173907E9F4268119
:10034000378116968D919C91179728173907A1F43C
:100350002085318518968D919C911997281739071A
:1003600059F421E030E0428553851A968D919C9195
:100370001B974817590711F020E030E0C901089594
:1003800097FD08C021E030E0181619062CF020E097
:1003900030E002C02FEF3FEFC901089588ED84BF20
:1003A00082E0809350008091510081FFFCCF88ED66
:1003B00084BF81E08093400008950F931F930091C4
:1003C000E2211091E3212091E4213091E521B8014F
:1003D000C9011F910F910895FF920F931F93CF931F
:1003E000DF938C01C0E8D6E0FF24F394FD820E94E5
:1003F0007501FE82C801DF91CF911F910F91FF908F
:100400000C9475018234A9F120F4813409F089C07B
:1004100007C0833409F446C0843409F082C06AC03E
:1004200063307105E1F03CF46130710591F0ACF49A
:10043000672B69F0089565307105A9F094F0663076
:10044000710599F06730710509F06BC010C081E04B
:1004500001C082E080930506089584E0FBCF88E028
:10046000F9CF80E1F7CF80E2F5CF80E4F3CF80E8E9
:10047000F1CF6130710571F01CF4672B49F00895DC
:100480006230710549F06330710509F04AC006C059
:1004900081E005C082E003C084E001C088E0809371
:1004A0002506089563307105C9F03CF4613071058B
:1004B00089F094F4672B61F008956530710591F02F
:1004C0007CF06630710581F06730710551F50EC022
:1004D00081E00DC082E00BC084E009C088E007C065
:1004E00080E105C080E203C080E401C080E8809321
:1004F000450608956130710569F01CF4672B41F0E1
:1005000008956230710541F06330710551F406C001
:1005100081E005C082E003C084E001C088E08093F0
:10052000650608958234A9F120F4813409F089C068
:1005300007C0833409F446C0843409F082C06AC01D
:1005400063307105E1F03CF46130710591F0ACF479
:10055000672B69F0089565307105A9F094F0663055
:10056000710599F06730710509F06BC010C081E02A
:1005700001C082E080930606089584E0FBCF88E006
:10058000F9CF80E1F7CF80E2F5CF80E4F3CF80E8C8
:10059000F1CF6130710571F01CF4672B49F00895BB
:1005A0006230710549F06330710509F04AC006C038
:1005B00081E005C082E003C084E001C088E0809350
:1005C0002606089563307105C9F03CF46130710569
:1005D00089F094F4672B61F008956530710591F00E
:1005E0007CF06630710581F06730710551F50EC001
:1005F00081E00DC082E00BC084E009C088E007C044
:1006000080E105C080E203C080E401C080E88093FF
:10061000460608956130710569F01CF4672B41F0BE
:1006200008956230710541F06330710551F406C0E0
:1006300081E005C082E003C084E001C088E08093CF
:1006400066060895CF92DF92EF92FF92CF93DF93E9
:10065000EC016A017B012A853B85442737FD4095E3
:10066000542F60E67AEE80E090E00E94500ECA01BE
:10067000B901A70196010E94500E2E833F8348873F
:100680005987DF91CF91FF90EF90DF90CF90089541
:100690009F92AF92BF92CF92DF92EF92FF920F9311
:1006A0001F93CF93DF93CDB7DEB72AA93BA94A8D1D
:1006B0005B8D8AA16BA17CA1BDA00EA11FA198A4F6
:1006C000C9A4DAA4ABA4ECA4FDA442305105F9F40A
:1006D0002130310579F01CF4232B49F06BC0223016
:1006E000310569F02330310509F064C00BC00E9468
:1006F000920202C00E940202B8018B2D4EC00E94DD
:10070000020202C00E949202B8018B2D26C0443022
:10071000510509F04FC02130310599F01CF4232B0D
:1007200049F048C02230310529F12330310509F064
:1007300041C027C00E940202B8018B2D0E94920284
:1007400006C00E949202B8018B2D0E940202B601DF
:10075000892D0E940202B7018A2DDF91CF911F914E
:100760000F91FF90EF90DF90CF90BF90AF909F9050
:100770000C9492020E949202B8018B2D0E940202F8
:1007800006C00E940202B8018B2D0E949202B6019F
:10079000892D0E949202B7018A2DDF91CF911F917E
:1007A0000F91FF90EF90DF90CF90BF90AF909F9010
:1007B0000C940202DF91CF911F910F91FF90EF9067
:1007C000DF90CF90BF90AF909F9008957F928F92CF
:1007D0009F92AF92BF92CF92DF92EF92FF920F93D0
:1007E0001F93CF93DF93EC016230710534F081E009
:1007F00090E08A839B835B01D6C0AA24BB24A61AFF
:10080000B70A1A821B82CFC0C8A0D9A0EAA0FBA059
:100810000E811F81288539854091E2215091E32185
:100820006091E4217091E5214C195D096E097F0901
:10083000401751076207730778F34091E221509106
:10084000E3216091E4217091E52148A359A36AA3B3
:100850007BA32A813B818E859F85E881F9812130A8
:100860003105A9F401968E879F87EE0FFF1FEC518B
:10087000FE4D208131812F5F3F4F208331832A85B8
:100880003B8582179307B9F41E861F8614C0892BF7
:1008900021F48A859B858E879F878E859F8501970A
:1008A0008E879F87EE0FFF1FEC51FE4D8081918157
:1008B00001978083918381E0A81AB1088E859F8576
:1008C000B4010E943D0E9F938F938DB79EB784977E
:1008D0008DBF9EBFADB7BEB71196FE01872D0190AB
:1008E0000D928A95E1F70E9448038DB79EB78696D0
:1008F0008DBF9EBF88819981039709F059C02A81D5
:100900003B813195219531092093022030930320BA
:1009100080910E2090910F202130310589F40196AD
:1009200080930E2090930F2020910A2030910B206D
:1009300082179307C1F410920E2010920F2013C05B
:10094000892B41F480910A2090910B2080930E20F6
:1009500090930F2080910E2090910F20019780930B
:100960000E2090930F2080910E2090910F20B401C3
:100970000E943D0E9F938F938DB79EB784978DBF36
:100980009EBFADB7BEB71196E0E0F0E2872D0190B3
:100990000D928A95E1F70E9448038DB79EB786961F
:1009A0008DBF9EBF05C084E0882E912C94E2792EE5
:1009B0001A141B040CF428CFDF91CF911F910F91D3
:1009C000FF90EF90DF90CF90BF90AF909F908F906F
:1009D0007F900895CF93DF93EC016A837B838E85AC
:1009E0009F8561307105B9F401968E879F87E881F4
:1009F000F981EE0FFF1FEC51FE4D208131812F5FF9
:100A00003F4F208331832A853B8582179307D9F492
:100A10001E861F8618C0672BB1F0892B21F48A85AA
:100A20009B858E879F878E859F8501978E879F8761
:100A3000E881F981EE0FFF1FEC51FE4D808191811D
:100A40000197808391838E859F8564E070E00E948A
:100A50003D0E9F938F938DB79EB784978DBF9EBF9A
:100A6000ADB7BEB7119684E2FE0101900D928A9552
:100A7000E1F70E9448038DB79EB786968DBF9EBF53
:100A800088819981039709F058C02A813B8131956B
:100A900021953109209302203093032080910E206C
:100AA00090910F202130310589F4019680930E201A
:100AB00090930F2020910A2030910B2082179307EA
:100AC000E1F410920E2010920F2017C02A813B8172
:100AD000232B99F0892B41F480910A2090910B20CF
:100AE00080930E2090930F2080910E2090910F20E4
:100AF000019780930E2090930F2080910E2090916B
:100B00000F2064E070E00E943D0E9F938F938DB79D
:100B10009EB784978DBF9EBFADB7BEB7119684E2D6
:100B2000E0E0F0E201900D928A95E1F70E9448031F
:100B30008DB79EB786968DBF9EBFDF91CF910895EA
:100B4000EF92FF920F931F938093F2219093F321E2
:100B50006093F4217093F5214093F6215093F7218F
:100B60002093F8213093F9210093FA211093FB216F
:100B7000E092FC21F092FD211F910F91FF90EF90E8
:100B800008952F923F924F925F926F927F928F9231
:100B90009F92AF92BF92CF92DF92EF92FF920F930C
:100BA0001F93CF93DF93CDB7DEB76697CDBFDEBF80
:100BB0006090F2217090F3218091E6219091E721DD
:100BC000681A790A69827A822091F4213091F5219C
:100BD0008091E8219091E921281B390B2D873E87D0
:100BE0002B833C838091F6219091F7218F87988BFE
:100BF0008091EA219091EB21AF85B889A81BB90BB0
:100C0000AF87B88BAD83BE832091F8213091F92155
:100C10008091EC219091ED21281B390B298B3A8B87
:100C20002F8338872090FA213090FB218091EE218C
:100C30009091EF21281A390A29863A860091FC21E1
:100C40001091FD218091F0219091F121081B190B49
:100C50000B871C87FE013396BE01635F7F4FC30184
:100C6000B081A18132962B2F3A2F37FF03C03195E7
:100C700021953109AC0197FF04C044275527481B33
:100C8000590B4217530714F48B2F9A2FE617F707C7
:100C900039F7BC01882777FD8095982F0E94AE0B0D
:100CA0006B017C012091BE203091BF20442737FD8D
:100CB0004095542F60E6862E6AEE962EA12CB12C1C
:100CC000C501B4010E94500E2B8B3C8B4D8B5E8B6B
:100CD000B301882777FD8095982F0E94AE0BA7015E
:100CE00096010E94000B20E030E04CE052E40E94AC
:100CF000060A0E940E0C9B01442737FD4095542F95
:100D00006B897C898D899E890E94500E2093BA2020
:100D10003093BB204093BC205093BD2020919A205B
:100D200030919B20442737FD4095542FC501B401D5
:100D30000E94500E29013A01AD85BE85BD0188276C
:100D400077FD8095982F0E94AE0BA70196010E9417
:100D5000000B20E030E04CE052E40E94060A0E94C2
:100D60000E0C9B01442737FD4095542FC301B2015F
:100D70000E94500E20939620309397204093982005
:100D8000509399202091762030917720442737FD89
:100D90004095542FC501B4010E94500E29013A011B
:100DA0002F853889B901882777FD8095982F0E9473
:100DB000AE0BA70196010E94000B20E030E04CE052
:100DC00052E40E94060A0E940E0C9B01442737FD44
:100DD0004095542FC301B2010E94500E20937220FF
:100DE00030937320409374205093752020912E20CF
:100DF00030912F20442737FD4095542FC501B40171
:100E00000E94500E29013A01A989BA89BD0188279B
:100E100077FD8095982F0E94AE0BA70196010E9446
:100E2000000B20E030E04CE052E40E94060A0E94F1
:100E30000E0C9B01442737FD4095542FC301B2018E
:100E40000E94500E20932A2030932B2040932C2078
:100E500050932D202091522030915320442737FD6C
:100E60004095542FC501B4010E94500E29013A014A
:100E7000B101882777FD8095982F0E94AE0BA701BE
:100E800096010E94000B20E030E04CE052E40E940A
:100E9000060A0E940E0C9B01442737FD4095542FF3
:100EA000C301B2010E94500E20934E2030934F2078
:100EB000409350205093512020910A2030910B20D4
:100EC000442737FD4095542FC501B4010E94500EB0
:100ED00049015A01B801882777FD8095982F0E9413
:100EE000AE0BA70196010E94000B20E030E04CE021
:100EF00052E40E94060A0E940E0C9B01442737FD13
:100F00004095542FC501B4010E94500E2093062035
:100F1000309307204093082050930920A2C181916B
:100F20009191D9014D915D919D01841B950BDB0140
:100F30008D939D93BD01B1E2EE3FFB0781F7809158
:100F4000E2219091E321A091E421B091E52140912B
:100F5000D4205091D5206091D6207091D720841B49
:100F6000950BA60BB70B4091BA205091BB20609116
:100F7000BC207091BD2084179507A607B70710F114
:100F80008091E2219091E321A091E421B091E521AB
:100F90008093D4209093D520A093D620B093D720CF
:100FA00089819A8197FD08C061E070E018161906E2
:100FB0002CF060E070E002C06FEF7FEF84EB90E216
:100FC0000E94EA048091E2219091E321A091E42122
:100FD000B091E5214091B0205091B1206091B220B4
:100FE0007091B320841B950BA60BB70B40919620F4
:100FF00050919720609198207091992084179507BF
:10100000A607B70710F18091E2219091E321A0910A
:10101000E421B091E5218093B0209093B120A0937A
:10102000B220B093B3208B819C8197FD08C061E012
:1010300070E0181619062CF060E070E002C06FEF47
:101040007FEF80E990E20E94EA048091E221909192
:10105000E321A091E421B091E52140918C205091B1
:101060008D2060918E2070918F20841B950BA60B94
:10107000B70B409172205091732060917420709151
:10108000752084179507A607B70710F18091E22114
:101090009091E321A091E421B091E52180938C20EF
:1010A00090938D20A0938E20B0938F208D819E8170
:1010B00097FD08C061E070E0181619062CF060E09A
:1010C00070E002C06FEF7FEF8CE690E20E94EA04CE
:1010D0008091E2219091E321A091E421B091E5215A
:1010E00040914420509145206091462070914720C6
:1010F000841B950BA60BB70B40912A2050912B20F7
:1011000060912C2070912D2084179507A607B707B2
:1011100010F18091E2219091E321A091E421B0911E
:10112000E5218093442090934520A0934620B093DE
:1011300047208F81988597FD08C061E070E0181600
:1011400019062CF060E070E002C06FEF7FEF84E2E0
:1011500090E20E94EA048091E2219091E321A09123
:10116000E421B091E521409168205091692060917F
:101170006A2070916B20841B950BA60BB70B4091D6
:101180004E2050914F206091502070915120841733
:101190009507A607B70710F18091E2219091E3210E
:1011A000A091E421B091E52180936820909369207B
:1011B000A0936A20B0936B2089859A8597FD08C01B
:1011C00061E070E0181619062CF060E070E002C0D3
:1011D0006FEF7FEF88E490E20E94EA048091E221C1
:1011E0009091E321A091E421B091E521409120204C
:1011F000509121206091222070912320841B950B17
:10120000A60BB70B40910620509107206091082053
:101210007091092084179507A607B70710F18091F0
:10122000E2219091E321A091E421B091E521809306
:10123000202090932120A0932220B09323208B85FF
:101240009C8597FD08C061E070E0181619062CF027
:1012500060E070E002C06FEF7FEF80E090E20E94FC
:10126000EA0462EF71E286EE91E20E948301892B2B
:1012700041F4E2EFF1E226EE31E2BE016F5F7F4F13
:101280004ECE6696CDBFDEBFDF91CF911F910F91FD
:10129000FF90EF90DF90CF90BF90AF909F908F9096
:1012A0007F906F905F904F903F902F900895809126
:1012B000FE219091FF21049724F01092FE211092BC
:1012C000FF218091FE219091FF21009709F40FC02A
:1012D0008130910549F48CE599EF8093F221909348
:1012E000F32180E79EEF0BC082309105C9F48EEAAE
:1012F0009CEF8093F2219093F32188E39FEF8093FA
:10130000F4219093F5218093F6219093F721809317
:10131000F8219093F9218093FA219093FB2116C034
:101320000397C1F41092F2211092F3211092F4214C
:101330001092F5211092F6211092F7211092F821C7
:101340001092F9211092FA211092FB211092FC21A7
:101350001092FD210895C2E0D0E003E010E08091FA
:10136000D8209091D920009709F44FC08130910581
:1013700039F5809168061092E6211092E72180915C
:1013800068061092E8211092E9211092EA21109249
:10139000EB21809188061092EC211092ED21809132
:1013A00088061092EE211092EF218091880610920B
:1013B000F0211092F121C093D820D093D920CFCF23
:1013C0008230910539F40E9457090093D820109378
:1013D000D920C5CF039719F662EF71E286EE91E24C
:1013E0000E948301892B19F40E94C105B8CFC093D4
:1013F000D820D093D9208091FE219091FF21019691
:101400008093FE219093FF21AACFFFCFA0E2B0E00E
:10141000ECE0FAE00C94A10E69837A838B839C83C1
:101420002D833E834F835887CE010196BE01675FAF
:101430007F4F0E94880DCE010596BE016F5E7F4FE3
:101440000E94880D9985923078F089898230C0F0A9
:10145000943019F4823041F4CBC0843019F49230C6
:1014600079F4C6C0923051F481E02A859A8929170F
:1014700009F480E08A87CE010996BCC0823051F41D
:1014800081E02A859A89291709F480E08A8BCE01A8
:101490004196B0C06D847E848F849888ED88FE88E4
:1014A0000F89188DE0E2F0E080E090E0DC01AA24F2
:1014B000BB24650120E030E0A901B30161707070C8
:1014C00061157105D1F02E0D3F1D401F511F1501F3
:1014D0002601280E391E4A1E5B1E81E090E0A0E026
:1014E000B0E02E153F054007510718F080E090E06E
:1014F000DC01820D931DA41DB51DAA0CBB1CCC1CC8
:10150000DD1C17FF09C061E0262E312C412C512C27
:10151000A228B328C428D528319749F0EE0CFF1C27
:10152000001F111F9694879477946794C6CF6B8998
:101530007C89EB85FC856E0F7F1F6E5F7F4F6B8F05
:101540007C8F61E0EA857A89E71709F460E06A8FA9
:101550006B8D7C8D10C0FC01E170F070309729F02C
:1015600056954795379527955068B695A7959795C1
:1015700087956F5F7F4FB7FDEECF0CC0880F991F27
:10158000AA1FBB1F57FD8160220F331F441F551F29
:10159000615070408030E0E09E07E0E0AE07E0E49C
:1015A000BE0760F36B8F7C8F6FE7E62EF12C012D69
:1015B000112DE822F9220A231B2360E4E616F10428
:1015C0000105110561F487FD0AC0211531054105AA
:1015D000510529F0805C9F4FAF4FBF4F80788D8FB2
:1015E0009E8FAF8FB8A383E0898FCE01499602C04A
:1015F0008AED90E20E94BA0CA096E2E10C94BA0E39
:10160000A8E1B0E0E6E0FBE00C94A90E69837A83E0
:101610008B839C832D833E834F8358878E01075F86
:101620001F4FCE010196B8010E94880D81E1E82E7E
:10163000F12CEC0EFD1ECE010596B7010E94880D1F
:101640009985923008F483C08989823008F47BC080
:101650002A853A8923272A87943011F0923021F481
:10166000981709F06CC071C0843039F41D861E864D
:101670001F86188A1B861C866AC0823019F484E093
:10168000898765C08B859C852B893C89821B930B40
:101690008B879C872D853E854F855889ED88FE88F0
:1016A0000F89188D2E153F054007510738F4220F7A
:1016B000331F441F551F01978B879C876FE170E094
:1016C000A12CB12CC12CA0E4DA2E80E090E0DC014A
:1016D0002E153F054007510740F08A299B29AC2968
:1016E000BD292E193F09400B510BD694C794B794CE
:1016F000A794220F331F441F551F6150704041F7BC
:101700006FE7E62EF12C012D112DE822F9220A2394
:101710001B2360E4E616F1040105110561F487FD61
:101720000AC0211531054105510529F0805C9F4F04
:10173000AF4FBF4F80788D879E87AF87B88B8E0164
:10174000075F1F4F04C0870102C00AED10E2C80105
:101750000E94BA0C6896EAE00C94C20EA8E0B0E0D1
:10176000E4EBFBE00C94AD0E7B018C0183E08983FC
:10177000D801C7018827B7FD83959927AA27BB27DA
:10178000282F8A83E114F1040105110519F482E080
:10179000898337C08EE190E08B839C83222389F07C
:1017A00080E0E81680E0F80680E0080780E8180787
:1017B00069F110950095F094E094E11CF11C011D75
:1017C000111DED82FE820F831887C801B7010E94A8
:1017D000600C9C01215030401216130694F4022E26
:1017E00004C0EE0CFF1C001F111F0A94D2F7ED82FB
:1017F000FE820F8318878EE190E0821B930B8B8310
:101800009C83CE0101960E94BA0C04C060E070E097
:1018100080E09FEC2896E6E00C94C60EACE0B0E0C9
:10182000E4E1FCE00C94B10E69837A838B839C83A2
:10183000CE010196BE016B5F7F4F0E94880D8D81A6
:10184000823081F1823070F1843021F48E818823DE
:1018500069F10AC02F81388537FD24C06E812F3190
:1018600031053CF0662311F120E030E040E050E823
:1018700021C08EE190E0821B930B29853A854B8530
:101880005C8504C056954795379527958A95D2F77C
:10189000662381F050954095309521953F4F4F4FED
:1018A0005F4F08C020E030E0A90104C02FEF3FEFF8
:1018B0004FEF5FE7B901CA012C96E2E00C94CA0E23
:1018C000AF92BF92CF92DF92EF92FF920F931F934E
:1018D0007B018C0180E0E81680E0F80681E00807D3
:1018E00080E0180758F4EFEFEE16F104010511053A
:1018F00009F090F480E090E0DC0117C0F0E0EF1612
:10190000F0E0FF06F0E00F07F1E01F0750F480E180
:1019100090E0A0E0B0E009C088E090E0A0E0B0E096
:1019200004C088E190E0A0E0B0E020E230E040E0D8
:1019300050E0281B390B4A0B5B0B5701680104C0B0
:10194000D694C794B794A7948A95D2F7D601C501C7
:101950008E519F4DFC018081281B3109410951099D
:10196000C9011F910F91FF90EF90DF90CF90BF9032
:10197000AF900895EF92FF920F931F93CF93DF9351
:10198000FC012481358146815781618180818230CB
:1019900020F44061EFEFF0E0A3C0843009F49BC075
:1019A000823009F492C0211531054105510509F431
:1019B0008FC00280F381E02D8FEFE238F8070CF042
:1019C0005AC0C2E8DFEFCE1BDF0BCA31D1056CF580
:1019D00079018A010C2E04C016950795F794E794B7
:1019E0000A94D2F781E090E0A0E0B0E00C2E04C0B1
:1019F000880F991FAA1FBB1F0A94D2F70197A1094C
:101A0000B10982239323A423B52321E030E040E0F1
:101A100050E00097A105B10519F420E030E0A901DC
:101A20002E293F29402B512B03C020E030E0A90193
:101A3000DA01C9018F779070A070B0708034910581
:101A4000A105B10539F427FF09C0205C3F4F4F4F76
:101A50005F4F04C0215C3F4F4F4F5F4FE1E0F0E02C
:101A6000203080E0380780E0480780E4580728F5F8
:101A7000E0E0F0E022C0E038F1056CF5E158FF4FFE
:101A8000DA01C9018F779070A070B0708034910531
:101A9000A105B10539F427FF09C0205C3F4F4F4F26
:101AA0005F4F04C0215C3F4F4F4F5F4F57FF05C052
:101AB0005695479537952795319687E056954795E2
:101AC000379527958A95D1F70BC0E0E0F0E005C087
:101AD000E0E0F0E005C0EFEFF0E020E030E0A90149
:101AE0008E2F879588278795942F9F7767956627F0
:101AF0006795E695E22EA92FA82BFE2FF62B622FD5
:101B0000732F8A2F9F2FCDB7DEB7E6E00C94C60E59
:101B1000DC01FB012C9111963C91119712968C914E
:101B20001297482F4F7750E0982F991F9927991FA8
:101B300013966C911397862F880F892B90E0661F60
:101B40006627661F6183009739F521153105410528
:101B5000510511F482E029C082E89FEF82839383CC
:101B600067E0220F331F441F551F6A95D1F783E0AA
:101B7000808309C0220F331F441F551F8281938128
:101B8000019782839383203080E0380780E0480704
:101B900080E4580778F320C08F3F910579F4211530
:101BA00031054105510519F484E08083089544FF0F
:101BB00003C081E0808310C010820EC08F57904018
:101BC0008283938383E0808387E0220F331F441F47
:101BD000551F8A95D1F750642483358346835783F4
:101BE00008950E94CE01E0E8F6E081818160818362
:101BF000A0E0B8E080EA9FE096968D939C9397973B
:101C00008C91807F84608C9316968C91169783605C
:101C100016968C93A0EAB0E012968C91129784608D
:101C200012968C937894A0E0B6E011968C9111975F
:101C30008FEF11968C93A0E2B6E011969C911197CC
:101C400011968C93A0E4B6E011969C911197119691
:101C50008C93A0E6B6E011968C9111978F60119647
:101C60008C93119788E154968C93549755968C9346
:101C7000818B828B838B0E94AB0997FB092E0726F1
:101C80000AD077FD04D027D006D000201AF4709532
:101C900061957F4F0895F6F7909581959F4F089530
:101CA00097FB092E05260ED057FD04D028D00AD068
:101CB000001C38F450954095309521953F4F4F4F7B
:101CC0005F4F0895F6F790958095709561957F4FD9
:101CD0008F4F9F4F0895AA1BBB1B51E107C0AA1F3E
:101CE000BB1FA617B70710F0A61BB70B881F991FBD
:101CF0005A95A9F780959095BC01CD010895A1E270
:101D00001A2EAA1BBB1BFD010DC0AA1FBB1FEE1F75
:101D1000FF1FA217B307E407F50720F0A21BB30BC0
:101D2000E40BF50B661F771F881F991F1A9469F73C
:101D300060957095809590959B01AC01BD01CF0198
:101D400008952F923F924F925F926F927F928F925F
:101D50009F92AF92BF92CF92DF92EF92FF920F933A
:101D60001F93CF93DF93CDB7DEB7CA1BDB0BCDBF7D
:101D7000DEBF09942A88398848885F846E847D8410
:101D80008C849B84AA84B984C884DF80EE80FD8023
:101D90000C811B81AA81B981CE0FD11DCDBFDEBFC1
:081DA000ED010895F894FFCF56
:101DA8000600010028000A000000C8000400000026
:101DB80000002003440000440100440200440300E2
:101DC800000000000400010028000A000000C8000C
:101DD80004000000C80038FF43000043010043022C
:101DE80000430300000000000500010028000A006D
:101DF8000000C8000400000038FFC8004304004386
:101E0800050043060043070000000000030001002E
:101E180028000A000000C800040000000000AA050D
:101E2800420000420100420200420300000000009C
:101E38000200010028000A000000C8000400000099
:101E4800000056FA41040041050041060041070020
:101E5800000000000100010028000A000000C8007E
:101E680004000000AEFC52034100004101004102A1
:101E78000041030000000000010000000000000015
:101E88000000000102020303030304040404040421
:101E980004040505050505050505050505050505EC
:101EA80005050606060606060606060606060606CC
:101EB80006060606060606060606060606060606BA
:101EC800060607070707070707070707070707079C
:101ED800070707070707070707070707070707078A
:101EE800070707070707070707070707070707077A
:101EF800070707070707070707070707070707076A
:101F0800070708080808080808080808080808084B
:101F18000808080808080808080808080808080839
:101F28000808080808080808080808080808080829
:101F38000808080808080808080808080808080819
:101F48000808080808080808080808080808080809
:101F580008080808080808080808080808080808F9
:101F680008080808080808080808080808080808E9
:101F780008080808080808080808080808080808D9
:021F8800080847
:00000001FF
