:100000000C94BC000C94D9000C94D9000C94D90029
:100010000C94D9000C94D9000C94D9000C94D900FC
:100020000C94D9000C94D9000C94D9000C94D900EC
:100030000C94D9000C94D9000C9455010C94D9005F
:100040000C94D9000C94D9000C94D9000C94D900CC
:100050000C94D9000C94D9000C94D9000C94D900BC
:100060000C94D9000C94D9000C94D9000C94D900AC
:100070000C94D9000C94D9000C94D9000C94D9009C
:100080000C94D9000C94D9000C94D9000C94D9008C
:100090000C94D9000C94D9000C94D9000C94D9007C
:1000A0000C94D9000C94D9000C94D9000C94D9006C
:1000B0000C94D9000C94D9000C94D9000C94D9005C
:1000C0000C94D9000C94D9000C94D9000C94D9004C
:1000D0000C94D9000C94D9000C94D9000C94D9003C
:1000E0000C94D9000C94D9000C94D9000C94D9002C
:1000F0000C94D9000C94D9000C94D9000C94D9001C
:100100000C94D9000C94D9000C94D9000C94D9000B
:100110000C94D9000C94D9000C94D9000C94D900FB
:100120000C94D9000C94D9000C94D9000C94D900EB
:100130000C94D9000C94D9000C94D9000C94D900DB
:100140000C94D9000C94D9000C94D9000C94D900CB
:100150000C94D9000C94D9000C94D9000C94D900BB
:100160000C94D9000C94D9000C94D9000C94D900AB
:100170000C94D9000C94D90011241FBECFEFD7E204
:10018000DEBFCDBF11E2A0E0B0E2E4E5FEE102C0D7
:1001900005900D92A23EB107D9F712E2A2EEB1E2AC
:1001A00001C01D92A030B107E1F70E94590A0C94DA
:1001B000280F0C9400000F93DF93CF930F92CDB7CD
:1001C000DEB72FB72983F8941BBEFC0108ED04BFEE
:1001D000608389818FBF0F90CF91DF910F91089538
:1001E000662311F090E201C090E0842B892BE0E5BA
:1001F000F0E0828308956F71682BE0E5F0E065839D
:100200000895E0E5F0E02081982F90959223908367
:10021000908189230895682B81E490E00E94DB009F
:1002200008951F93CF93DF93182FC0E4D0E0688127
:10023000687F682B80E490E00E94DB008881812346
:10024000DF91CF911F910895E0E4F0E09381917FD9
:100250009160982B9383089530915600282F982F02
:1002600090959323662309F420E0922BE0E5F0E0DB
:100270009683813031F480916800816080936800BA
:100280000895823029F4809160008160809360003D
:10029000089583E590E063E00E94DB00089582E426
:1002A00090E061E00E94DB0008951F920F920FB66C
:1002B0000F9211248F939F93AF93BF938091FC2152
:1002C0009091FD21A091FE21B091FF210196A11DE9
:1002D000B11D8093FC219093FD21A093FE21B0934A
:1002E000FF21BF91AF919F918F910F900FBE0F9003
:1002F0001F901895282F392FC90107C0EFE3FFE1A0
:100300003197F1F700C0000001970097B9F7089501
:10031000FC01DB01208131818D919C91119728177F
:10032000390779F52281338112968D919C9113972B
:100330002817390731F52481358114968D919C91C8
:10034000159728173907E9F42681378116968D917C
:100350009C91179728173907A1F4208531851896A5
:100360008D919C9119972817390759F421E030E0B5
:10037000428553851A968D919C911B974817590772
:1003800011F020E030E0C901089597FD08C021E098
:1003900030E0181619062CF020E030E002C02FEFF4
:1003A0003FEFC901089588ED84BF82E0809350003B
:1003B0008091510081FFFCCF88ED84BF81E0809364
:1003C000400008952091FC213091FD214091FE21B3
:1003D0005091FF21B901CA010895FF920F931F9315
:1003E000CF93DF93EC0100E816E0FF24F394F801CB
:1003F000F5820E947A01F801F682CE010E947A010C
:10040000DF91CF911F910F91FF9008958234E9F110
:10041000833420F4813409F09FC007C0833409F489
:1004200050C0843409F098C07BC06330710509F175
:100430006430710554F461307105B9F062307105B2
:10044000B4F46115710579F0089565307105A9F06E
:100450006530710584F06630710589F0673071058B
:1004600009F07AC00EC081E00DC082E00BC084E0CC
:1004700009C088E007C080E105C080E203C080E4D5
:1004800001C080E88093050608956130710589F008
:100490006230710524F46115710549F008956230E8
:1004A000710549F06330710509F056C006C081E05E
:1004B00005C082E003C084E001C088E08093250687
:1004C00008956330710501F16430710554F46130B1
:1004D0007105B1F062307105ACF46115710571F010
:1004E000089565307105A1F0653071057CF06630C6
:1004F000710581F06730710579F50EC081E00DC09E
:1005000082E00BC084E009C088E007C080E105C03C
:1005100080E203C080E401C080E88093450608952E
:100520006130710581F06230710524F46115710547
:1005300041F008956230710541F06330710561F456
:1005400008C081E003C082E001C084E080936506BA
:10055000089588E08093650608958234E9F1833434
:1005600020F4813409F09FC007C0833409F450C0DF
:10057000843409F098C07BC06330710509F16430A0
:10058000710554F461307105B9F062307105B4F44D
:100590006115710579F0089565307105A9F0653030
:1005A000710584F06630710589F06730710509F0D6
:1005B0007AC00EC081E00DC082E00BC084E009C0AB
:1005C00088E007C080E105C080E203C080E401C08C
:1005D00080E88093060608956130710589F06230E5
:1005E000710524F46115710549F0089562307105B3
:1005F00049F06330710509F056C006C081E005C0BE
:1006000082E003C084E001C088E08093260608955C
:100610006330710501F16430710554F46130710586
:10062000B1F062307105ACF46115710571F0089597
:1006300065307105A1F0653071057CF0663071059B
:1006400081F06730710579F50EC081E00DC082E060
:100650000BC084E009C088E007C080E105C080E2EB
:1006600003C080E401C080E88093460608956130AD
:10067000710581F06230710524F46115710541F056
:1006800008956230710541F06330710561F408C06E
:1006900081E003C082E001C084E080936606089593
:1006A00088E0809366060895EF92FF920F931F9360
:1006B000CF93DF93EC017A018B012A853B85442798
:1006C00037FD4095542F60E67AEE80E090E00E947E
:1006D000A60ECA01B901A80197010E94A60E2E8399
:1006E0003F8348875987DF91CF911F910F91FF90EA
:1006F000EF9008959F92AF92BF92CF92DF92EF92C8
:10070000FF920F931F93DF93CF93CDB7DEB72AA944
:100710003BA94A8D5B8D8AA16BA17CA1BDA00EA1D6
:100720001FA198A4E9A4FAA4ABA4CCA4DDA44230F0
:10073000510511F52130310591F02230310524F4B5
:100740002115310549F057C02230310569F02330B9
:10075000310509F050C00BC00E94AD0202C00E94DA
:1007600006028B2DB80145C00E94060202C00E94FD
:10077000AD028B2DB80127C044305105E1F5213081
:100780003105A9F02230310524F42115310541F05D
:1007900032C022303105D1F02330310561F51DC062
:1007A0000E9406028B2DB8010E94AD0206C00E9475
:1007B000AD028B2DB8010E940602892DB7010E945F
:1007C00006028A2DB6010E94AD0215C00E94AD023C
:1007D0008B2DB8010E94060206C00E9406028B2DD6
:1007E000B8010E94AD02892DB7010E94AD028A2D89
:1007F000B6010E940602CF91DF911F910F91FF90E9
:10080000EF90DF90CF90BF90AF909F900895AF9200
:10081000BF92CF92DF92EF92FF920F931F93CF93ED
:10082000DF93EC018B01623071052CF081E090E0E8
:100830008A839B83E0C0109501951F4F1A821B820B
:10084000DAC08091FC219091FD21A091FE21B09110
:10085000FF21821B930BA40BB50B8C159D05AE05D8
:10086000BF0578F38091FC219091FD21A091FE219C
:10087000B091FF2188A399A3AAA3BBA32A813B819E
:100880008E859F8521303105C1F49C012F5F3F4F3C
:100890002E873F87E881F981EE0FFF1FE251FE4D61
:1008A000808191810196808391838A859B85281719
:1008B0003907C9F41E861F8616C0009721F48A8561
:1008C0009B858E879F878E859F8501978E879F87C3
:1008D000E881F981EE0FFF1FE251FE4D8081918189
:1008E000019780839183015010408DB79EB7869702
:1008F0008DBF9EBFCDB6DEB60894C11CD11CC6010B
:10090000DE0124E20D90FC010192CF012150D1F7CC
:100910008E859F85B5010E94930EF60184A395A351
:100920000E947A038DB79EB786968DBF9EBF888141
:1009300099818330910509F061C08A819B819095EE
:1009400081959F4F8093B8209093B9208130910575
:10095000A9F48091C4209091C52001968093C42071
:100960009093C5202091C0203091C1208217930719
:10097000E1F41092C4201092C52017C08091C420C9
:100980009091C520009741F48091C0209091C120A2
:100990008093C4209093C5208091C4209091C5205D
:1009A00001978093C4209093C520EDB7FEB7B6970A
:1009B000EDBFFEBFCDB6DEB60894C11CD11CC6018A
:1009C000A6EBB0E224E20D90FC010192CF01215090
:1009D000D1F78091C4209091C520B5010E94930E5B
:1009E000F60184A395A30E947A038DB79EB78696DD
:1009F0008DBF9EBF03C084E0A82EB12C1016110637
:100A00004CF428A139A14AA15BA1CE80DF80E88403
:100A1000F98417CFDF91CF911F910F91FF90EF9045
:100A2000DF90CF90BF90AF9008950F931F93CF9317
:100A3000DF93EC016A837B8361307105C9F48E8595
:100A40009F8501968E879F87E881F981EE0FFF1FB2
:100A5000E251FE4D208131812F5F3F4F2083318352
:100A60002A853B8582179307F1F41E861F861BC0DB
:100A700061157105C1F08E859F85009721F48A85E7
:100A80009B858E879F878E859F8501978E879F8701
:100A9000E881F981EE0FFF1FE251FE4D80819181C7
:100AA0000197808391838DB79EB786978DBF9EBF38
:100AB0000DB71EB70F5F1F4FC801DE0124E20D9076
:100AC000FC010192CF012150D1F78E859F8564E012
:100AD00070E00E94930EF80184A395A30E947A030C
:100AE0008DB79EB786968DBF9EBF888199818330D2
:100AF000910509F05BC08A819B81909581959F4FFC
:100B00008093B8209093B92081309105A9F4809109
:100B1000C4209091C52001968093C4209093C52055
:100B20002091C0203091C1208217930701F51092C7
:100B3000C4201092C5201BC08A819B810097B9F008
:100B40008091C4209091C520009741F48091C020ED
:100B50009091C1208093C4209093C5208091C4209F
:100B60009091C52001978093C4209093C520EDB744
:100B7000FEB7B697EDBFFEBF3196EF01A6EBB0E230
:100B800084E20D9009928150E1F78091C420909108
:100B9000C52064E070E00E94930E84A395A30E9498
:100BA0007A038DB79EB786968DBF9EBFDF91CF919A
:100BB0001F910F910895EF92FF920F931F938093CF
:100BC000E4219093E5216093E6217093E72140931F
:100BD000E8215093E9212093EA213093EB210093FF
:100BE000EC211093ED21E092EE21F092EF211F9184
:100BF0000F91FF90EF9008952F923F924F925F9246
:100C00006F927F928F929F92AF92BF92CF92DF921C
:100C1000EF92FF920F931F93DF93CF93CDB7DEB781
:100C20006497CDBFDEBF0091E4211091E521809152
:100C3000F0219091F121081B190BE090E621F09032
:100C4000E7218091F2219091F321E81AF90A40906E
:100C5000E8215090E9218091F4219091F521481AE2
:100C6000590A2090EA213090EB218091F621909151
:100C7000F721281A390A2091EC213091ED21809139
:100C8000F8219091F921281B390B298B3A8B8091FF
:100C9000EE219091EF218B8B9C8B8091FA2190918A
:100CA000FB21AB89BC89A81BB90BAB8BBC8B09831F
:100CB0001A83EB82FC824D825E822F8238862987DE
:100CC0003A87AB87BC87FE013396AE01435F5F4F27
:100CD000B801B081A18132969D01832F922F97FF99
:100CE00003C0909581959F4F9B0177FF04C02227F9
:100CF0003327261B370B281739071CF4CD01692F22
:100D00007A2FE417F50729F7882777FD8095982F24
:100D10000E94500C6D877E878F87988B20910C20C6
:100D200030910D20442737FD4095542F70E6672EF3
:100D30007AEE772E812C912CC401B3010E94A60E6D
:100D400059016A01B801882777FD8095982F0E9484
:100D5000500C2D853E854F8558890E94A20B20E0BE
:100D600030E04CE052E40E94A80A0E94B00C9B01C3
:100D7000442737FD4095542FC601B5010E94A60EA9
:100D8000209308203093092040930A2050930B2091
:100D90002091302030913120442737FD4095542F49
:100DA000C401B3010E94A60E59016A01B701882748
:100DB00077FD8095982F0E94500C2D853E854F859C
:100DC00058890E94A20B20E030E04CE052E40E94DF
:100DD000A80A0E94B00C9B01442737FD4095542F70
:100DE000C601B5010E94A60E20932C2030932D2021
:100DF00040932E2050932F20209154203091552045
:100E0000442737FD4095542FC401B3010E94A60E1C
:100E100079018A01B201882777FD8095982F0E9479
:100E2000500C2D853E854F8558890E94A20B20E0ED
:100E300030E04CE052E40E94A80A0E94B00C9B01F2
:100E4000442737FD4095542FC801B7010E94A60ED4
:100E500020935020309351204093522050935320A0
:100E60002091782030917920442737FD4095542FE8
:100E7000C401B3010E94A60E79018A01B10188273D
:100E800077FD8095982F0E94500C2D853E854F85CB
:100E900058890E94A20B20E030E04CE052E40E940E
:100EA000A80A0E94B00C9B01442737FD4095542F9F
:100EB000C801B7010E94A60E2093742030937520BC
:100EC000409376205093772020919C2030919D2054
:100ED000442737FD4095542FC401B3010E94A60E4C
:100EE00079018A0129893A89B901882777FD809596
:100EF000982F0E94500C2D853E854F8558890E9461
:100F0000A20B20E030E04CE052E40E94A80A0E94CC
:100F1000B00C9B01442737FD4095542FC801B70101
:100F20000E94A60E209398203093992040939A20F7
:100F300050939B202091C0203091C120442737FD41
:100F40004095542FC401B3010E94A60E79018A0175
:100F5000AB89BC89BD01882777FD8095982F0E94B9
:100F6000500C2D853E854F8558890E94A20B20E0AC
:100F700030E04CE052E40E94A80A0E94B00C9B01B1
:100F8000442737FD4095542FC801B7010E94A60E93
:100F90002093BC203093BD204093BE205093BF20AF
:100FA0008E010F5F1F4FA2C181919191D9014D9187
:100FB0005D919D01841B950BDB018D939D93BD017C
:100FC000B1E2E03FFB0781F78091FC219091FD2188
:100FD000A091FE21B091FF21209122203091232069
:100FE0004091242050912520821B930BA40BB50B1C
:100FF000209108203091092040910A2050910B2027
:1010000082179307A407B50710F18091FC219091F6
:10101000FD21A091FE21B091FF2180932220909389
:101020002320A0932420B093252089819A8197FDC5
:1010300008C061E070E0181619062CF060E070E05E
:1010400002C06FEF7FEF82E090E20E941505809171
:10105000FC219091FD21A091FE21B091FF212091D2
:101060004620309147204091482050914920821BD2
:10107000930BA40BB50B20912C2030912D20409187
:101080002E2050912F2082179307A407B50710F147
:101090008091FC219091FD21A091FE21B091FF2132
:1010A0008093462090934720A0934820B0934920F6
:1010B0008B819C8197FD08C061E070E018161906CD
:1010C0002CF060E070E002C06FEF7FEF86E290E20C
:1010D0000E9415058091FC219091FD21A091FE2197
:1010E000B091FF2120916A2030916B2040916C20BB
:1010F00050916D20821B930BA40BB50B20915020B7
:1011000030915120409152205091532082179307E3
:10111000A407B50710F18091FC219091FD21A091C9
:10112000FE21B091FF2180936A2090936B20A093C1
:101130006C20B0936D208D819E8197FD08C061E089
:1011400070E0181619062CF060E070E002C06FEF36
:101150007FEF8AE490E20E9415058091FC21909136
:10116000FD21A091FE21B091FF2120918E20309190
:101170008F204091902050919120821B930BA40BC3
:10118000B50B2091742030917520409176205091BC
:10119000772082179307A407B50710F18091FC21EF
:1011A0009091FD21A091FE21B091FF2180938E208E
:1011B00090938F20A0939020B09391208F81988559
:1011C00097FD08C061E070E0181619062CF060E089
:1011D00070E002C06FEF7FEF8EE690E20E9415058F
:1011E0008091FC219091FD21A091FE21B091FF21E1
:1011F0002091B2203091B3204091B4205091B5207D
:10120000821B930BA40BB50B209198203091992051
:1012100040919A2050919B2082179307A407B5070D
:1012200010F18091FC219091FD21A091FE21B091BF
:10123000FF218093B2209093B320A093B420B09369
:10124000B52089859A8597FD08C061E070E0181681
:1012500019062CF060E070E002C06FEF7FEF82E9CA
:1012600090E20E9415058091FC219091FD21A091B2
:10127000FE21B091FF212091D6203091D7204091BE
:10128000D8205091D920821B930BA40BB50B209131
:10129000BC203091BD204091BE205091BF208217CC
:1012A0009307A407B50710F18091FC219091FD21CF
:1012B000A091FE21B091FF218093D6209093D7205A
:1012C000A093D820B093D9208B859C8597FD08C02A
:1012D00061E070E0181619062CF060E070E002C0C2
:1012E0006FEF7FEF86EB90E20E94150580EF91E2B1
:1012F00064EE71E20E948801009731F4E4EEF1E2BD
:1013000020EF31E2B80150CE6496CDBFDEBFCF9161
:10131000DF911F910F91FF90EF90DF90CF90BF90E2
:10132000AF909F908F907F906F905F904F903F9085
:101330002F9008958091E2219091E32184309105CE
:1013400024F01092E2211092E3218091E221909109
:10135000E321009779F08130910549F48CE599EF0C
:101360008093E4219093E52180E79EEF0BC08230CB
:101370009105E9F48EEA9CEF8093E4219093E521B6
:1013800088E39FEF8093E6219093E7218093E82103
:101390009093E9218093EA219093EB218093EC21B3
:1013A0009093ED211092EE211092EF210895833059
:1013B0009105C1F41092E4211092E5211092E621EA
:1013C0001092E7211092E8211092E9211092EA216F
:1013D0001092EB211092EC211092ED211092EE214F
:1013E0001092EF210895EF92FF920F931F93CF93E6
:1013F000DF93C2E0D0E003E010E0EEEAEE2EECEF87
:10140000FE2E8091002090910120009709F450C099
:101410008130910539F580916806E092F021F092D3
:10142000F121809168061092F2211092F32110921E
:10143000F4211092F521809188061092F6211092E5
:10144000F721809188061092F8211092F92180915D
:1014500088061092FA211092FB21C0930020D093AD
:101460000120CFCF8230910539F40E949A09009370
:10147000002010930120C5CF8330910511F680EF35
:1014800091E264EE71E20E948801009719F40E94D3
:10149000FC05B7CFC0930020D09301208091E221BA
:1014A0009091E32101968093E2219093E321A9CFCB
:1014B000FFCF0E94D301E0E8F6E081818160818363
:1014C000A0E0B8E080EA9FE096968D939C93979772
:1014D0008C91807F84608C9316968C911697836094
:1014E00016968C93A0EAB0E012968C9112978460C5
:1014F00012968C937894A0E0B6E011968C91119797
:101500008FEF11968C93A0E2B6E011969C91119703
:1015100011968C93A0E4B6E011969C9111971196C8
:101520008C93A0E6B6E011968C9111978F6011967E
:101530008C93119788E154968C93549755968C937D
:10154000818B828B838B0E94F30980E090E0089569
:10155000A0E2B0E0EEEAFAE00C94F70E69837A8339
:101560008B839C832D833E834F835887CE010196C6
:10157000BE01675F7F4F0E942A0ECE010596BE0115
:101580006F5E7F4F0E942A0E9985923078F089898C
:101590008230C0F0943019F4823041F4CBC08430F2
:1015A00019F4923079F4C6C0923051F481E02A8562
:1015B0009A89291709F480E08A87CE010996BCC070
:1015C000823051F481E02A859A89291709F480E054
:1015D0008A8BCE014196B0C06D847E848F849888BA
:1015E000ED88FE880F89188DE0E2F0E080E090E061
:1015F000DC01AA24BB24650120E030E0A901B3018D
:101600006170707061157105D1F02E0D3F1D401F86
:10161000511F15012601280E391E4A1E5B1E81E04E
:1016200090E0A0E0B0E02E153F054007510718F00C
:1016300080E090E0DC01820D931DA41DB51DAA0C75
:10164000BB1CCC1CDD1C17FF09C061E0262E312C11
:10165000412C512CA228B328C428D528319749F011
:10166000EE0CFF1C001F111F9694879477946794CB
:10167000C6CF6B897C89EB85FC856E0F7F1F6E5F03
:101680007F4F6B8F7C8F61E0EA857A89E71709F4D9
:1016900060E06A8F6B8D7C8D10C0FC01E170F07092
:1016A000309729F056954795379527955068B69508
:1016B000A795979587956F5F7F4FB7FDEECF0CC0CD
:1016C000880F991FAA1FBB1F57FD8160220F331F70
:1016D000441F551F615070408030E0E09E07E0E0FD
:1016E000AE07E0E4BE0760F36B8F7C8F6FE7E62EFA
:1016F000F12C012D112DE822F9220A231B2360E48D
:10170000E616F1040105110561F487FD0AC02115F3
:1017100031054105510529F0805C9F4FAF4FBF4F08
:1017200080788D8F9E8FAF8FB8A383E0898FCE0195
:10173000499602C08AED90E20E945C0DA096E2E11B
:101740000C94100FA8E1B0E0E8EAFBE00C94FF0E67
:1017500069837A838B839C832D833E834F83588751
:101760008E01075F1F4FCE010196B8010E942A0E1D
:1017700081E1E82EF12CEC0EFD1ECE010596B7019D
:101780000E942A0E9985923008F483C0898982309C
:1017900008F47BC02A853A8923272A87943011F0E0
:1017A000923021F4981709F06CC071C0843039F47C
:1017B0001D861E861F86188A1B861C866AC082307C
:1017C00019F484E0898765C08B859C852B893C89C9
:1017D000821B930B8B879C872D853E854F8558896F
:1017E000ED88FE880F89188D2E153F05400751079B
:1017F00038F4220F331F441F551F01978B879C8796
:101800006FE170E0A12CB12CC12CA0E4DA2E80E0B5
:1018100090E0DC012E153F054007510740F08A2972
:101820009B29AC29BD292E193F09400B510BD69499
:10183000C794B794A794220F331F441F551F6150BC
:10184000704041F76FE7E62EF12C012D112DE822B3
:10185000F9220A231B2360E4E616F10401051105B1
:1018600061F487FD0AC0211531054105510529F0B4
:10187000805C9F4FAF4FBF4F80788D879E87AF872B
:10188000B88B8E01075F1F4F04C0870102C00AEDAD
:1018900010E2C8010E945C0D6896EAE00C94180FF3
:1018A000A8E0B0E0E6E5FCE00C94030F7B018C01BE
:1018B00083E08983D801C7018827B7FD83959927DD
:1018C000AA27BB27282F8A83E114F10401051105FB
:1018D00019F482E0898337C08EE190E08B839C838A
:1018E000222389F080E0E81680E0F80680E008070F
:1018F00080E8180769F110950095F094E094E11CD8
:10190000F11C011D111DED82FE820F831887C80195
:10191000B7010E94020D9C0121503040121613069F
:1019200094F4022E04C0EE0CFF1C001F111F0A9439
:10193000D2F7ED82FE820F8318878EE190E0821B42
:10194000930B8B839C83CE0101960E945C0D04C097
:1019500060E070E080E09FEC2896E6E00C941C0FBD
:10196000ACE0B0E0E6EBFCE00C94070F69837A830F
:101970008B839C83CE010196BE016B5F7F4F0E94DB
:101980002A0E8D81823081F1823070F1843021F411
:101990008E81882369F10AC02F81388537FD24C0E4
:1019A0006E812F3131053CF0662311F120E030E0EB
:1019B00040E050E821C08EE190E0821B930B298526
:1019C0003A854B855C8504C0569547953795279594
:1019D0008A95D2F7662381F05095409530952195F0
:1019E0003F4F4F4F5F4F08C020E030E0A90104C0D7
:1019F0002FEF3FEF4FEF5FE7B901CA012C96E2E00E
:101A00000C94200FAF92BF92CF92DF92EF92FF9291
:101A10000F931F937B018C0180E0E81680E0F806AD
:101A200081E0080780E0180758F4EFEFEE16F104A4
:101A30000105110509F090F480E090E0DC0117C089
:101A4000F0E0EF16F0E0FF06F0E00F07F1E01F070F
:101A500050F480E190E0A0E0B0E009C088E090E0C0
:101A6000A0E0B0E004C088E190E0A0E0B0E020E2B7
:101A700030E040E050E0281B390B4A0B5B0B57016C
:101A8000680104C0D694C794B794A7948A95D2F7F6
:101A9000D601C5018E519F4DFC018081281B310963
:101AA00041095109C9011F910F91FF90EF90DF90FB
:101AB000CF90BF90AF900895EF92FF920F931F9336
:101AC000CF93DF93FC012481358146815781618169
:101AD0008081823020F44061EFEFF0E0A3C08430D9
:101AE00009F49BC0823009F492C0211531054105EB
:101AF000510509F48FC00280F381E02D8FEFE238A9
:101B0000F8070CF05AC0C2E8DFEFCE1BDF0BCA317A
:101B1000D1056CF579018A010C2E04C01695079544
:101B2000F794E7940A94D2F781E090E0A0E0B0E067
:101B30000C2E04C0880F991FAA1FBB1F0A94D2F74E
:101B40000197A109B10982239323A423B52321E09E
:101B500030E040E050E00097A105B10519F420E025
:101B600030E0A9012E293F29402B512B03C020E052
:101B700030E0A901DA01C9018F779070A070B070D0
:101B800080349105A105B10539F427FF09C0205C17
:101B90003F4F4F4F5F4F04C0215C3F4F4F4F5F4F50
:101BA000E1E0F0E0203080E0380780E0480780E4A2
:101BB000580728F5E0E0F0E022C0E038F1056CF5C8
:101BC000E158FF4FDA01C9018F779070A070B070B3
:101BD00080349105A105B10539F427FF09C0205CC7
:101BE0003F4F4F4F5F4F04C0215C3F4F4F4F5F4F00
:101BF00057FF05C05695479537952795319687E04D
:101C000056954795379527958A95D1F70BC0E0E013
:101C1000F0E005C0E0E0F0E005C0EFEFF0E020E02C
:101C200030E0A9018E2F879588278795942F9F777D
:101C3000679566276795E695E22EA92FA82BFE2FBC
:101C4000F62B622F732F8A2F9F2FCDB7DEB7E6E0DA
:101C50000C941C0FDC01FB012C9111963C91119707
:101C600012968C911297482F4F7750E0982F991F1A
:101C70009927991F13966C911397862F880F892B9C
:101C800090E0661F6627661F6183009739F521156E
:101C900031054105510511F482E029C082E89FEF2A
:101CA0008283938367E0220F331F441F551F6A9579
:101CB000D1F783E0808309C0220F331F441F551FD3
:101CC00082819381019782839383203080E038075B
:101CD00080E0480780E4580778F320C08F3F9105E3
:101CE00079F4211531054105510519F484E080830B
:101CF000089544FF03C081E0808310C010820EC0AD
:101D00008F5790408283938383E0808387E0220F04
:101D1000331F441F551F8A95D1F7506424833583A0
:101D200046835783089597FB092E07260AD077FD2F
:101D300004D027D006D000201AF4709561957F4F0B
:101D40000895F6F7909581959F4F089597FB092E7A
:101D500005260ED057FD04D028D00AD0001C38F438
:101D600050954095309521953F4F4F4F5F4F0895C7
:101D7000F6F790958095709561957F4F8F4F9F4FA7
:101D80000895AA1BBB1B51E107C0AA1FBB1FA617C2
:101D9000B70710F0A61BB70B881F991F5A95A9F714
:101DA00080959095BC01CD010895A1E21A2EAA1B41
:101DB000BB1BFD010DC0AA1FBB1FEE1FFF1FA217FB
:101DC000B307E407F50720F0A21BB30BE40BF50BF8
:101DD000661F771F881F991F1A9469F76095709581
:101DE000809590959B01AC01BD01CF0108952F9284
:101DF0003F924F925F926F927F928F929F92AF929B
:101E0000BF92CF92DF92EF92FF920F931F93CF93E7
:101E1000DF93CDB7DEB7CA1BDB0BCDBFDEBF0994A6
:101E20002A88398848885F846E847D848C849B846A
:101E3000AA84B984C884DF80EE80FD800C811B8178
:101E4000AA81B981CE0FD11DCDBFDEBFED010895AE
:041E5000F894FFCF34
:101E540001000100010028000A000000C80004007D
:101E64000000AEFC52034100004101004102004168
:101E74000300000000000200010028000A00000026
:101E8400C80004000000000056FA410400410500A7
:101E94004106004107000000000003000100280083
:101EA4000A000000C800040000000000AA05420067
:101EB400004201004202004203000000000004004E
:101EC400010028000A000000C80004000000C80047
:101ED40038FF4300004301004302004303000000B5
:101EE40000000500010028000A000000C8000400EA
:101EF400000038FFC80043040043050043060043C4
:101F04000700000000000600010028000A0000008D
:101F1400C800040000000000200344000044010045
:101F24004402004403000000000000000000000020
:101F34000000000102020303030304040404040474
:101F4400040405050505050505050505050505053F
:101F5400050506060606060606060606060606061F
:101F6400060606060606060606060606060606060D
:101F740006060707070707070707070707070707EF
:101F840007070707070707070707070707070707DD
:101F940007070707070707070707070707070707CD
:101FA40007070707070707070707070707070707BD
:101FB400070708080808080808080808080808089F
:101FC400080808080808080808080808080808088D
:101FD400080808080808080808080808080808087D
:101FE400080808080808080808080808080808086D
:101FF400080808080808080808080808080808085D
:10200400080808080808080808080808080808084C
:10201400080808080808080808080808080808083C
:10202400080808080808080808080808080808082C
:0220340008089A
:00000001FF
