:100000000C94BC000C94D9000C94D9000C94D90029
:100010000C94D9000C94D9000C94D9000C94D900FC
:100020000C94D9000C94D9000C94D9000C94D900EC
:100030000C94D9000C94D9000C94D9000C94D900DC
:100040000C94D9000C94D9000C94D9000C94D900CC
:100050000C94D9000C94D9000C94D9000C94D900BC
:100060000C94D9000C94D9000C94D9000C94D900AC
:100070000C94D9000C94D9000C94D9000C94D9009C
:100080000C94D9000C94D9000C94D9000C94D9008C
:100090000C94D9000C94D9000C94D9000C94D9007C
:1000A0000C94D9000C94D9000C94D9000C94D9006C
:1000B0000C94D9000C94D9000C94D9000C94D9005C
:1000C0000C94D9000C94D9000C94D9000C94D9004C
:1000D0000C94D9000C94D9000C94D9000C94D9003C
:1000E0000C94D9000C94D9000C94D9000C94D9002C
:1000F0000C94D9000C94D9000C94D9000C94D9001C
:100100000C94D9000C94D9000C94D9000C94D9000B
:100110000C94D9000C94D9000C94D9000C94D900FB
:100120000C94D9000C94D9000C94D9000C94D900EB
:100130000C94D9000C94D9000C94D9000C94D900DB
:100140000C94D9000C94D9000C94D9000C94D900CB
:100150000C94D9000C94D9000C94D9000C94D900BB
:100160000C94D9000C94D9000C94D9000C94D900AB
:100170000C94D9000C94D90011241FBECFEFD7E204
:10018000DEBFCDBF10E2A0E0B0E2EAE5F5E002C0DC
:1001900005900D92AC31B107D9F710E2ACE1B0E2B5
:1001A00001C01D92AE32B107E1F70E9453020C94D8
:1001B000AB020C9400001F93182F8A3019F48DE0C5
:1001C0000E94DB008091B10985FFFCCF1093B0093C
:1001D00080E090E01F9108950F93DF93CF930F92EB
:1001E000CDB7DEB72FB72983F8941BBEFC0108ED0D
:1001F00004BF608389818FBF0F90CF91DF910F91F2
:100200000895662311F090E201C090E0842B892BC1
:10021000E0E5F0E0828308956F71682BE0E5F0E09F
:1002200065830895E0E5F0E02081982F9095922372
:100230009083908189230895682B81E490E00E9447
:10024000EC0008951F93CF93DF93182FC0E4D0E004
:100250006881687F682B80E490E00E94EC008881D0
:100260008123DF91CF911F910895E0E4F0E0938125
:10027000917F9160982B9383089530915600282F99
:10028000982F90959323662309F420E0922BE0E5C4
:10029000F0E09683813031F4809168008160809332
:1002A00068000895823029F4809160008160809315
:1002B0006000089583E590E063E00E94EC000895FB
:1002C00082E490E061E00E94EC000895282F392F2D
:1002D000C90107C0EFE3FFE13197F1F700C000006B
:1002E00001970097B9F7089588ED84BF82E0809365
:1002F00050008091510081FFFCCF88ED84BF81E0E8
:10030000809340000895FF920F931F93CF93DF9344
:10031000EC0100E816E0FF24F394F801F5820E9456
:100320006601F801F682CE010E946601DF91CF914D
:100330001F910F91FF90089584EF91E00E94830137
:100340000895CF93DF93CAE0D0E082E390E00E946B
:1003500083012197D1F7DF91CF9108950F931F93D8
:10036000CF93DF938C01C0E0D0E005C082E390E042
:100370000E9483012196C017D107C4F3DF91CF916A
:100380001F910F9108950E947401E0E6F6E098E154
:10039000948BA0E8B6E011968C911197816011962C
:1003A0008C93119780E885838183E0EBF9E01782D5
:1003B00083E38683138283E0858394830895E0E852
:1003C000F6E081E001C085839091B10997FFFBCFF2
:1003D00081E0E0E8F6E086838091B00990E008953E
:1003E0000F931F930E94DF018A30910521F00E9434
:1003F000DF018C01F7CFC8011F910F9108950F9372
:100400001F93CF93DF93CCE1D0E200E010E018829D
:1004100019820E94DF018C329105C9F08A30910562
:1004200019F40530110599F0488159819A01220F7C
:10043000331F63E0440F551F6A95E1F7240F351F02
:1004400020533040280F391F28833983E2CF0F5FB4
:100450001F4F229606301105D1F6DF91CF911F91E3
:100460000F910895CF93DF938EE090E280932A203E
:1004700090932B2088EE93E00E94830180E090E22D
:100480000E945E020E94FF01CCE1D0E28991999125
:100490000E94AE0188EE93E00E94660180E2C832BD
:1004A000D807A1F7EBCF0E94C30188EE93E00E942A
:1004B00066010E94320280E090E00895EF92FF9280
:1004C0000F931F93CF93DF938C01E0912A20F0913B
:1004D0002B20838181FF1FC0C0E0D0E00AC0DB0178
:1004E0001896ED91FC9119970995009711F0CFEFAF
:1004F000DFEFF80181918F0160912A2070912B200C
:10050000882369F7DB011896ED91FC9119978AE031
:100510000995009711F0CFEFDFEFCE01CDB7DEB731
:10052000E6E00C949F022A88398848885F846E84AC
:100530007D848C849B84AA84B984C884DF80EE8007
:10054000FD800C811B81AA81B981CE0FD11DCDBF49
:0A055000DEBFED010895F894FFCF1F
:10055A0048656C6C6F2C20776F726C642100000008
:0C056A00000200000000DB0000000000A8
:00000001FF
