:100000000C94BC000C94DD000C94DD000C94DD001D
:100010000C94DD000C94DD000C94DD000C94DD00EC
:100020000C94DD000C94DD000C94DD000C94DD00DC
:100030000C94DD000C94DD000C940F020C94DD0098
:100040000C94DD000C94DD000C94DD000C94DD00BC
:100050000C94DD000C94DD000C94DD000C94DD00AC
:100060000C94DD000C94DD000C94DD000C94DD009C
:100070000C94DD000C94DD000C94DD000C94DD008C
:100080000C94DD000C94DD000C94DD000C94DD007C
:100090000C94DD000C94DD000C94DD000C94DD006C
:1000A0000C94DD000C94DD000C94DD000C94DD005C
:1000B0000C94DD000C94DD000C94DD000C94DD004C
:1000C0000C94DD000C94DD000C94DD000C94DD003C
:1000D0000C94DD000C94DD000C94DD000C94DD002C
:1000E0000C94DD000C94DD000C94DD000C94DD001C
:1000F0000C94DD000C94DD000C94DD000C94DD000C
:100100000C94DD000C94DD000C94DD000C94DD00FB
:100110000C94DD000C94DD000C94DD000C94DD00EB
:100120000C94DD000C94DD000C94DD000C94DD00DB
:100130000C94DD000C94DD000C94DD000C94DD00CB
:100140000C94DD000C94DD000C94DD000C94DD00BB
:100150000C94DD000C94DD000C94DD000C94DD00AB
:100160000C94DD000C94DD000C94DD000C94DD009B
:100170000C94DD000C94DD0011241FBECFEFDFE2F4
:10018000DEBFCDBF18BE19BE1ABE1BBE10E2A0E076
:10019000B0E2E0EBF3E102C005900D92A830B107A8
:1001A000D9F710E2A8E0B0E201C01D92AD30B1076E
:1001B000E1F70E9464030C94D6090C9400000F939D
:1001C000DF93CF93CDB7DEB72697CDBFDEBF8C834D
:1001D0009D836E83EFE3F0E080818B83F8948C81C4
:1001E0009D8189839A83EBE3F0E0108289819A8173
:1001F0002E81FC0108ED04BF2083EFE3F0E08B814A
:1002000080832696CDBFDEBFCF91DF910F910895F9
:10021000DF93CF93CDB7DEB72997CDBFDEBF8983FC
:100220009A836B834C835D8380E590E08887998710
:1002300099819F838B81882319F0E0E2EE8301C0CE
:100240001E828F81FE818F2B982F8C81892BE885D0
:10025000F98582832996CDBFDEBFCF91DF910895C6
:10026000DF93CF9300D00F92CDB7DEB789839A8307
:100270006B838B818F718B83E0E5F0E099818B81BB
:10028000892B85832396CDBFDEBFCF91DF91089563
:10029000DF93CF9300D0CDB7DEB78A83A0E5B0E07F
:1002A000E0E5F0E08081982F8A81809589238C9306
:1002B000E0E5F0E090818A818923898389810F902C
:1002C0000F90CF91DF910895DF93CF93CDB7DEB735
:1002D0002597CDBFDEBF8A839B836C837D838A8114
:1002E0009C81892B898381E490E069810E94DF00F1
:1002F0002596CDBFDEBFCF91DF910895DF93CF93D9
:1003000000D00F92CDB7DEB78A839B83E0E4F0E0A4
:100310008081982F987F8A81892B898380E490E05F
:1003200069810E94DF00E0E4F0E090818A81892306
:10033000898389812396CDBFDEBFCF91DF91089558
:10034000DF93CF9300D0CDB7DEB789839A83A0E443
:10035000B0E0E0E4F0E08381982F917F8981892BE0
:10036000816013968C9313970F900F90CF91DF912C
:100370000895DF93CF93CDB7DEB72697CDBFDEBF0D
:1003800089836A8380E590E08D839E83E0E5F0E0D9
:100390008681982F89818095E92FE823EC838A81D3
:1003A000882319F0F981FB8301C01B828C812B818A
:1003B000822BED81FE8186838981813041F4A8E61C
:1003C000B0E0E8E6F0E0808181608C930AC089812A
:1003D000823039F4A0E6B0E0E0E6F0E080818160B0
:1003E0008C932696CDBFDEBFCF91DF910895DF932A
:1003F000CF93CDB7DEB783E590E063E00E94DF00E6
:10040000CF91DF910895DF93CF93CDB7DEB782E42C
:1004100090E061E00E94DF00CF91DF9108951F928C
:100420000F920FB60F92009038000F921092380082
:10043000009039000F921092390011248F939F93EE
:10044000AF93BF93DF93CF93CDB7DEB780910820F2
:1004500090910920A0910A20B0910B200196A11D36
:10046000B11D8093082090930920A0930A20B09397
:100470000B20CF91DF91BF91AF919F918F910F9002
:10048000009239000F90009238000F900FBE0F902D
:100490001F901895DF93CF93CDB7DEB76A97CDBF86
:1004A000DEBF898F9A8F80E090E0AAE7B4E48D8B5D
:1004B0009E8BAF8BB88F6D897E898F89988D2BEA43
:1004C0003AEA4AE251E40E946F05DC01CB01898BD4
:1004D0009A8BAB8BBC8B69897A898B899C8920E04C
:1004E00030E040E85FE30E94750788231CF481E058
:1004F000888B91C069897A898B899C8920E030E05A
:100500004FE753E40E94150718160CF07BC06D8965
:100510007E898F89988D20E030E04AE754E40E947C
:100520006906DC01CB018C879D87AE87BF876C8510
:100530007D858E859F8520E030E04AEF55E40E945E
:100540006F05DC01CB0188879987AA87BB876885FF
:1005500079858A859B8520E030E040E85FE30E9452
:10056000750788232CF481E090E08E839F833FC041
:10057000688579858A859B8520E03FEF4FE757E4C2
:100580000E94150718164CF56C857D858E859F8514
:1005900020E030E040E251E40E946F05DC01CB0135
:1005A000BC01CD010E949903DC01CB018E839F83A6
:1005B0000FC080E293E08C839D838C819D810197A5
:1005C000F1F78C839D838E819F8101978E839F831A
:1005D0008E819F81009769F724C0688579858A8517
:1005E0009B850E949903DC01CB018E839F838E81C2
:1005F0009F818A839B838A819B810197F1F78A83FC
:100600009B830FC069897A898B899C890E94990391
:10061000DC01CB01888B8889898389818A95F1F7F0
:1006200089836A96CDBFDEBFCF91DF910895DF93B6
:10063000CF93CDB7DEB7E4E3F0E088ED8083E0E56B
:10064000F0E082E08083E0E5F0E08181882F90E0B7
:10065000827090700097B9F3E4E3F0E088ED808356
:10066000E0E4F0E081E08083CF91DF910895DF93B3
:10067000CF93CDB7DEB78091082090910920A0914B
:100680000A20B0910B20BC01CD01CF91DF910895DC
:10069000DF93CF9300D0CDB7DEB789839A83E0E8AC
:1006A000F6E081E0858389819A810E944A02E0E830
:1006B000F6E081E0868389819A810E944A020F9048
:1006C0000F90CF91DF910895DF93CF93CDB7DEB731
:1006D000E0E8F6E081E08183E0E0F8E080EA9FE096
:1006E00086A397A3A0E0B8E0E0E0F8E08081807FF7
:1006F00087608C93A0E0B8E0E0E0F8E0868183605A
:1007000016968C93A0EAB0E0E0EAF0E08281846083
:1007100012968C9378940E943703DC01CB018230CF
:100720009105A105B105BCF3E0E8F6E081E0858321
:10073000F2CFEF92FF920F931F937B018C0120E089
:1007400030E040E05FE40E94450788238CF0C80158
:10075000B70120E030E040E05FE40E9411050E9414
:10076000A5079B01AC01205030404040504806C0D6
:10077000C801B7010E94A5079B01AC01B901CA01DC
:100780001F910F91FF90EF900895A0E0B0E0EBEC87
:10079000F3E00C949F09DC012B01FA019C9192304B
:1007A00008F439C1EB018881823008F433C19430F8
:1007B00069F4843009F02FC111969C9111978981B9
:1007C000981709F428C1A0E0B0E225C1843009F4EB
:1007D00021C18230A9F4923009F01DC19A01AD0106
:1007E00088E0EA010990AE01E90109929E01815079
:1007F000C1F7E201898111969C918923818308C107
:10080000923009F407C112962D903C901397EB019A
:100810008A819B811496AD90BD90CD90DC90179706
:10082000EC80FD800E811F819101281B390BB901DD
:1008300037FF04C066277727621B730B6032710590
:100840000CF061C0121613066CF537014801062E34
:1008500004C096948794779467940A94D2F721E021
:1008600030E040E050E004C0220F331F441F551F0A
:100870006A95D2F721503040404050402E213F2110
:1008800040235123211531054105510521F021E077
:1008900030E040E050E079018A01E628F728082995
:1008A00019293CC0232BD1F1260E371E35014601F4
:1008B000062E04C096948794779467940A94D2F78E
:1008C00021E030E040E050E004C0220F331F441F1D
:1008D000551F6A95D2F721503040404050402A21A0
:1008E0003B214C215D21211531054105510521F0A8
:1008F00021E030E040E050E059016A01A628B72825
:10090000C828D9280BC0821593052CF01C01AA24F5
:10091000BB24650103C0EE24FF24870111969C913E
:10092000D20111968C91981709F445C0992339F09A
:10093000A80197012A193B094C095D0906C0A601C7
:1009400095012E193F09400B510B57FD08C011822C
:100950002282338224833583468357831DC081E0FE
:1009600081832282338288279927DC01821B930BA3
:10097000A40BB50B84839583A683B7830DC0220F88
:10098000331F441F551F2483358346835783828139
:100990009381019782839383248135814681578196
:1009A000DA01C9010197A109B1098F5F9F4FAF4FCC
:1009B000BF4328F30BC0918322823382EA0CFB1CD5
:1009C0000C1D1D1DE482F5820683178383E080835E
:1009D000248135814681578157FF1AC0C901AA2752
:1009E00097FDA095BA2F81709070A070B070569549
:1009F000479537952795822B932BA42BB52B848372
:100A00009583A683B78382819381019682839383A2
:100A1000DF0101C0D201CD01CDB7DEB7E2E10C9418
:100A2000BB09A0E2B0E0E7E1F5E00C94AB09698313
:100A30007A838B839C832D833E834F835887E9E0A1
:100A4000EE2EF12CEC0EFD1ECE010196B7010E9498
:100A5000CE088E010F5E1F4FCE010596B8010E9491
:100A6000CE088A8991E089278A8BC701B801AE0137
:100A7000475E5F4F0E94C5030E94F907A096E6E01B
:100A80000C94C709A0E2B0E0E8E4F5E00C94AB09EF
:100A900069837A838B839C832D833E834F8358871E
:100AA000F9E0EF2EF12CEC0EFD1ECE010196B70100
:100AB0000E94CE088E010F5E1F4FCE010596B80131
:100AC0000E94CE08C701B801AE01475E5F4F0E9489
:100AD000C5030E94F907A096E6E00C94C709A0E2BE
:100AE000B0E0E5E7F5E00C949F0969837A838B8396
:100AF0009C832D833E834F835887CE010196BE0190
:100B0000675F7F4F0E94CE08CE010596BE016F5EE3
:100B10007F4F0E94CE089985923088F08989823073
:100B2000C8F0943019F4823051F404C0843029F4B0
:100B3000923081F480E090E2C6C0923049F420E027
:100B40009A858A89981321E02A87CE010996BBC02D
:100B5000823049F420E09A858A89981321E02A8B13
:100B6000CE014196B0C02D843E844F8458886D8854
:100B70007E888F88988CEE24FF248701AA24BB24CA
:100B8000650140E050E060E070E0E0E0F0E0C101CD
:100B900081709070892BE9F0E60CF71C081D191D77
:100BA0009A01AB012A0D3B1D4C1D5D1D80E090E0BC
:100BB000A0E0B0E0E614F7040805190520F481E090
:100BC00090E0A0E0B0E0BA01A901480F591F6A1FE8
:100BD0007B1FAA0CBB1CCC1CDD1C97FE08C081E04F
:100BE00090E0A0E0B0E0A82AB92ACA2ADB2A319610
:100BF000E032F10549F0660C771C881C991C56946C
:100C0000479437942794C3CFFA85EA892B893C8986
:100C10008B859C85280F391F2E5F3F4F17C0CA0157
:100C200081709070892B61F016950795F794E79481
:100C300080E090E0A0E0B0E8E82AF92A0A2B1B2B1C
:100C400076956795579547952F5F3F4F77FDE7CF8F
:100C50000CC0440F551F661F771F17FD4160EE0C37
:100C6000FF1C001F111F21503040403090E05907F9
:100C700090E0690790E4790760F32B8F3C8FDB01EC
:100C8000CA018F779070A070B07080349105A10573
:100C9000B10561F447FD0AC0E114F1040105110535
:100CA00029F0405C5F4F6F4F7F4F40781A8EFE17E0
:100CB00011F081E08A8F4D8F5E8F6F8F78A383E074
:100CC000898FCE0149960E94F907A096E2E10C9423
:100CD000BB09A8E1B0E0EFE6F6E00C94A709698350
:100CE0007A838B839C832D833E834F835887B9E01F
:100CF000EB2EF12CEC0EFD1ECE010196B7010E94E9
:100D0000CE088E010F5E1F4FCE010596B8010E94DE
:100D1000CE082985223008F47EC03989323010F49B
:100D2000B8017CC08A859A8989278A87243011F086
:100D3000223031F4231709F06EC060E070E26EC01B
:100D4000343039F41D861E861F86188A1B861C8641
:100D500004C0323021F484E08987B7015FC02B855D
:100D60003C858B899C89281B390B2B873C87ED841C
:100D7000FE840F851889AD88BE88CF88D88CEA1488
:100D8000FB040C051D0540F4EE0CFF1C001F111F99
:100D9000215030402B873C8720E030E040E050E09D
:100DA00080E090E0A0E0B0E460E070E0EA14FB04D2
:100DB0000C051D0540F0282B392B4A2B5B2BEA181C
:100DC000FB080C091D09B695A79597958795EE0C1C
:100DD000FF1C001F111F6F5F7F4F6F31710531F7CF
:100DE000DA01C9018F779070A070B07080349105DE
:100DF000A105B10561F427FD0AC0E114F104010564
:100E0000110529F0205C3F4F4F4F5F4F20782D8711
:100E10003E874F87588BBE01675F7F4FCB010E9493
:100E2000F9076896EAE00C94C309A8E1B0E0EBE1A9
:100E3000F7E00C94AB0969837A838B839C832D83C1
:100E40003E834F83588789E0E82EF12CEC0EFD1E7F
:100E5000CE010196B7010E94CE088E010F5E1F4F92
:100E6000CE010596B8010E94CE088985823040F0F7
:100E70008989823028F0C701B8010E94460901C063
:100E80008FEF6896E6E00C94C709A8E1B0E0EBE4C8
:100E9000F7E00C94AB0969837A838B839C832D8361
:100EA0003E834F83588789E0E82EF12CEC0EFD1E1F
:100EB000CE010196B7010E94CE088E010F5E1F4F32
:100EC000CE010596B8010E94CE088985823040F097
:100ED0008989823028F0C701B8010E94460901C003
:100EE0008FEF6896E6E00C94C709A8E1B0E0EBE765
:100EF000F7E00C94AB0969837A838B839C832D8301
:100F00003E834F83588789E0E82EF12CEC0EFD1EBE
:100F1000CE010196B7010E94CE088E010F5E1F4FD1
:100F2000CE010596B8010E94CE088985823040F036
:100F30008989823028F0C701B8010E94460901C0A2
:100F400081E06896E6E00C94C709ACE0B0E0EBEA1B
:100F5000F7E00C94AF0969837A838B839C83CE017D
:100F60000196BE016B5F7F4F0E94CE088D8182305B
:100F700061F1823050F1843021F48E81882351F167
:100F80002EC02F81388537FD20C06E812F3131056D
:100F90001CF06623F9F023C08EE190E0821B930BD6
:100FA00029853A854B855C8504C0569547953795CC
:100FB00027958A95D2F76623B1F0509540953095E4
:100FC00021953F4F4F4F5F4F0EC020E030E040E093
:100FD00050E009C02FEF3FEF4FEF5FE704C020E084
:100FE00030E040E050E8B901CA012C96E2E00C94F0
:100FF000CB09DF92EF92FF920F931F93FC01E480E5
:10100000F58006811781D1808081823048F480E0AC
:1010100090E0A0E1B0E0E82AF92A0A2B1B2BA5C03A
:10102000843009F49FC0823021F4EE24FF2487012C
:1010300005C0E114F1040105110519F4E0E0F0E048
:1010400096C0628173819FEF623879070CF05BC0B4
:1010500022E83FEF261B370B2A3131052CF020E028
:1010600030E040E050E02AC0B801A701022E04C0E1
:1010700076956795579547950A94D2F781E090E069
:10108000A0E0B0E004C0880F991FAA1FBB1F2A95DB
:10109000D2F70197A109B1098E219F21A023B12385
:1010A0000097A105B10521F081E090E0A0E0B0E05B
:1010B0009A01AB01282B392B4A2B5B2BDA01C90192
:1010C0008F779070A070B07080349105A105B10544
:1010D00039F427FF09C0205C3F4F4F4F5F4F04C0DA
:1010E000215C3F4F4F4F5F4FE0E0F0E02030A0E049
:1010F0003A07A0E04A07A0E45A0710F0E1E0F0E068
:1011000079018A0127C06038710564F5FB01E15857
:10111000FF4FD801C7018F779070A070B0708034F6
:101120009105A105B10539F4E7FE0DC080E490E01A
:10113000A0E0B0E004C08FE390E0A0E0B0E0E80EF3
:10114000F91E0A1F1B1F17FF05C016950795F79478
:10115000E794319687E016950795F794E7948A957A
:10116000D1F705C0EE24FF248701EFEFF0E06E2FEA
:10117000679566276795902F9F77D794DD24D7943E
:101180008E2F8695492F462B582F5D29B701CA010E
:101190001F910F91FF90EF90DF900895FC01DB010C
:1011A000408151812281622F6F7770E0221F2227B8
:1011B000221F9381892F880F822B282F30E0991FBF
:1011C0009927991F11969C93119721153105A9F51F
:1011D000411551056105710511F482E037C082E8BF
:1011E0009FEF12968D939C9313979A01AB0167E042
:1011F000220F331F441F551F6A95D1F783E08C934C
:101200000DC0220F331F441F551F12968D919C91C4
:101210001397019712968D939C931397203080E03B
:10122000380780E0480780E4580758F314962D9358
:101230003D934D935C93179708952F3F310579F4B3
:10124000411551056105710519F484E08C930895E9
:1012500064FF03C081E08C9312C01C9210C02F5712
:10126000304012962D933C93139783E08C9387E044
:10127000440F551F661F771F8A95D1F77064149627
:101280004D935D936D937C93179708951F93DC01A5
:10129000FB019C91923008F447C08081823008F4B1
:1012A00043C0943051F411961C91843099F581819A
:1012B000682F70E0611B71093FC0843021F09230CB
:1012C00031F48230B9F18181882389F12DC01196E2
:1012D0001C9111978230F1F081811817D9F4129680
:1012E0002D913C911397828193818217930794F0FB
:1012F00028173907BCF014968D919D910D90BC91E3
:10130000A02D2481358146815781281739074A0746
:101310005B0718F4112341F00AC082179307A40752
:10132000B50740F4112319F061E070E005C06FEFDC
:101330007FEF02C060E070E0CB011F9108952F9213
:101340003F924F925F926F927F928F929F92AF9255
:10135000BF92CF92DF92EF92FF920F931F93CF93A2
:10136000DF93CDB7DEB7CA1BDB0B0FB6F894DEBF39
:101370000FBECDBF09942A88398848885F846E845F
:101380007D848C849B84AA84B984C884DF80EE80A9
:10139000FD800C811B81AA81B981CE0FD11D0FB6B2
:1013A000F894DEBF0FBECDBFED010895F894FFCFD6
:00000001FF
