:100000000C94BC000C94CE000C94CE000C94CE004A
:100010000C94CE000C94CE000C94CE000C94CE0028
:100020000C94CE000C94CE000C94CE000C94CE0018
:100030000C94CE000C94CE000C9445010C94CE0090
:100040000C94CE000C94CE000C94CE000C94CE00F8
:100050000C94CE000C94CE000C94CE000C94CE00E8
:100060000C94CE000C94CE000C94CE000C94CE00D8
:100070000C94CE000C94CE000C94CE000C94CE00C8
:100080000C94CE000C94CE000C94CE000C94CE00B8
:100090000C94CE000C94CE000C94CE000C94CE00A8
:1000A0000C94CE000C94CE000C94CE000C94CE0098
:1000B0000C94CE000C94CE000C94CE000C94CE0088
:1000C0000C94CE000C94CE000C94CE000C94CE0078
:1000D0000C94CE000C94CE000C94CE000C94CE0068
:1000E0000C94CE000C94CE000C94CE000C94CE0058
:1000F0000C94CE000C94CE000C94CE000C94CE0048
:100100000C94CE000C94CE000C94CE000C94CE0037
:100110000C94CE000C94CE000C94CE000C94CE0027
:100120000C94CE000C94CE000C94CE000C94CE0017
:100130000C94CE000C94CE000C94CE000C94CE0007
:100140000C94CE000C94CE000C94CE000C94CE00F7
:100150000C94CE000C94CE000C94CE000C94CE00E7
:100160000C94CE000C94CE000C94CE000C94CE00D7
:100170000C94CE000C94CE0011241FBECFEFD7E21A
:10018000DEBFCDBF10E2A0E0B0E201C01D92A530FD
:10019000B107E1F70E94A9010C94D7010C9400006B
:1001A0000F93CF93DF931F92CDB7DEB72FB729837D
:1001B000F8941BBEFC0108ED04BF608389818FBFEA
:1001C0000F90DF91CF910F910895662311F090E287
:1001D00001C090E0842B892B8093520008956F71A9
:1001E000682BE0E5F0E065830895E0E5F0E020812C
:1001F000982F909592239083908189230895682B5E
:1002000081E490E00C94D0001F93CF93DF93182FDC
:10021000C0E4D0E06881687F682B80E490E00E94B1
:10022000D00088818123DF91CF911F910895E0E470
:10023000F0E09381917F9160982B938308953091A2
:100240005600282F982F90959323611101C020E02C
:10025000922B90935600813031F480916800816038
:10026000809368000895823029F480916000816055
:1002700080936000089563E083E590E00C94D000E3
:1002800061E082E490E00C94D0001F920F920FB6D0
:100290000F9211248F939F93AF93BF93EF93FF938C
:1002A00081E0E0E8F6E085838091012090910220D2
:1002B000A0910320B09104200196A11DB11D80934F
:1002C000012090930220A0930320B0930420FF917B
:1002D000EF91BF91AF919F918F910F900FBE0F90B3
:1002E0001F9018958FE39FE10197F1F700C0000080
:1002F000089588ED84BF82E0809350008091510082
:1003000081FFFCCF88ED84BF81E080934000089599
:100310000F931F9300910120109102202091032040
:1003200030910420B801C9011F910F910895E0E8B0
:10033000F6E081E08583AFE3BFE11197F1F700C0FC
:10034000000086838FE39FE10197F1F700C0000072
:1003500008950E94790181E080938106809386064A
:1003600080EA9FE0809326089093270880910008F8
:10037000807F876080930008809106088360809367
:1003800006088091A20084608093A200789421E006
:100390008091012090910220A0910320B09104202F
:1003A0000297A105B105A4F320938506F1CFF89437
:0203B000FFCF7D
:00000001FF
