:100000000C94BC000C94C6000C94C6000C94C60062
:100010000C94C6000C94C6000C94C6000C94C60048
:100020000C94C6000C94C6000C94C6000C94C60038
:100030000C94C6000C94C6000C94C6000C94C60028
:100040000C94C6000C94C6000C94C6000C94C60018
:100050000C94C6000C94C6000C94C6000C94C60008
:100060000C94C6000C94C6000C94C6000C94C600F8
:100070000C94C6000C94C6000C94C6000C94C600E8
:100080000C94C6000C94C6000C94C6000C94C600D8
:100090000C94C6000C94C6000C94C6000C94C600C8
:1000A0000C94C6000C94C6000C94C6000C94C600B8
:1000B0000C94C6000C94C6000C94C6000C94C600A8
:1000C0000C94C6000C94C6000C94C6000C94C60098
:1000D0000C94C6000C94C6000C94C6000C94C60088
:1000E0000C94C6000C94C6000C94C6000C94C60078
:1000F0000C94C6000C94C6000C94C6000C94C60068
:100100000C94C6000C94C6000C94C6000C94C60057
:100110000C94C6000C94C6000C94C6000C94C60047
:100120000C94C6000C94C6000C94C6000C94C60037
:100130000C94C6000C94C6000C94C6000C94C60027
:100140000C94C6000C94C6000C94C6000C94C60017
:100150000C94C6000C94C6000C94C6000C94C60007
:100160000C94C6000C94C6000C94C6000C94C600F7
:100170000C94C6000C94C60011241FBECFEFDFE222
:10018000DEBFCDBF0E9490010C9499010C94000039
:100190000F93CF93DF931F92CDB7DEB72FB729838D
:1001A000F8941BBEFC0108ED04BF608389818FBFFA
:1001B0000F90DF91CF910F910895662311F090E297
:1001C00001C090E0842B892B8093520008956F71B9
:1001D000682BE0E5F0E065830895E0E5F0E020813C
:1001E000982F909592239083908189230895682B6E
:1001F00081E490E00C94C8001F93CF93DF93182FF5
:10020000C0E4D0E06881687F682B80E490E00E94C1
:10021000C80088818123DF91CF911F910895E0E488
:10022000F0E09381917F9160982B938308953091B2
:100230005600282F982F90959323611101C020E03C
:10024000922B90935600813031F480916800816048
:10025000809368000895823029F480916000816065
:1002600080936000089563E083E590E00C94C800FB
:1002700061E082E490E00C94C8009C0108C08FE328
:100280009FE10197F1F700C00000215031092115CD
:100290003105A9F7089588ED84BF82E0809350006E
:1002A0008091510081FFFCCF88ED84BF81E0809375
:1002B00040000895FF920F931F93CF93DF938C011B
:1002C000C0E8D6E0FF24F394FD820E943D01FE8247
:1002D000C801DF91CF911F910F91FF900C943D01C8
:1002E00084EF91E00C945A01CF93DF93CAE0D0E001
:1002F00082E390E00E945A012197D1F7DF91CF91DC
:1003000008950E947001FDCF0E944B0188E1E0E654
:10031000F6E0848BE0E8F6E08181816081830895D6
:100320000E94840188EE93E00E943D010E947001CA
:06033000FDCFF894FFCFA1
:00000001FF
