:100000000C94BC000C94C6000C94C6000C94C60062
:100010000C94C6000C94C6000C94C6000C94C60048
:100020000C94C6000C94C6000C94C6000C94C60038
:100030000C94C6000C94C6000C94C6000C94C60028
:100040000C94C6000C94C6000C94C6000C94C60018
:100050000C94C6000C94C6000C94C6000C94C60008
:100060000C94C6000C94C6000C94C6000C94C600F8
:100070000C94C6000C94C6000C94C6000C94C600E8
:100080000C94C6000C94C6000C94C6000C94C600D8
:100090000C94C6000C94C6000C94C6000C94C600C8
:1000A0000C94C6000C94C6000C94C6000C94C600B8
:1000B0000C94C6000C94C6000C94C6000C94C600A8
:1000C0000C94C6000C94C6000C94C6000C94C60098
:1000D0000C94C6000C94C6000C94C6000C94C60088
:1000E0000C94C6000C94C6000C94C6000C94C60078
:1000F0000C94C6000C94C6000C94C6000C94C60068
:100100000C94C6000C94C6000C94C6000C94C60057
:100110000C94C6000C94C6000C94C6000C94C60047
:100120000C94C6000C94C6000C94C6000C94C60037
:100130000C94C6000C94C6000C94C6000C94C60027
:100140000C94C6000C94C6000C94C6000C94C60017
:100150000C94C6000C94C6000C94C6000C94C60007
:100160000C94C6000C94C6000C94C6000C94C600F7
:100170000C94C6000C94C60011241FBECFEFD7E22A
:10018000DEBFCDBF0E9499010C94A6010C94000023
:100190000F93DF93CF930F92CDB7DEB72FB729839D
:1001A000F8941BBEFC0108ED04BF608389818FBFFA
:1001B0000F90CF91DF910F910895662311F090E297
:1001C00001C090E0842B892BE0E5F0E08283089564
:1001D0006F71682BE0E5F0E065830895E0E5F0E0FD
:1001E0002081982F90959223908390818923089560
:1001F000682B81E490E00E94C80008951F93CF937C
:10020000DF93182FC0E4D0E06881687F682B80E41A
:1002100090E00E94C80088818123DF91CF911F91D7
:100220000895E0E4F0E09381917F9160982B9383AF
:10023000089530915600282F982F90959323662388
:1002400009F420E0922BE0E5F0E09683813031F470
:10025000809168008160809368000895823029F45D
:1002600080916000816080936000089583E590E054
:1002700063E00E94C800089582E490E061E00E947B
:10028000C8000895282F392FC90107C0EFE3FFE107
:100290003197F1F700C0000001970097B9F7089572
:1002A00088ED84BF82E0809350008091510081FFEF
:1002B000FCCF88ED84BF81E0809340000895FF92D9
:1002C0000F931F93CF93DF93EC0100E816E0FF2418
:1002D000F394F801F5820E944201F801F682CE0102
:1002E0000E944201DF91CF911F910F91FF900895DD
:1002F00084E690E00E945F010895CF93DF93CAE007
:10030000D0E082E390E00E945F012197D1F7DF9176
:10031000CF9108950E947801FDCF0E94500188E19D
:10032000E0E6F6E0848BE0E8F6E08181816081839D
:1003300008950E948D0188EE93E00E94420181E0C1
:10034000E0E8F6E085830E947801FDCFF894FFCFC6
:00000001FF
